{"project/contracts/Payments.sol":{"StrimzPayments":{"abi":[{"inputs":[{"internalType":"address","name":"_feeCollector","type":"address"},{"internalType":"uint256","name":"_protocolFeeBps","type":"uint256"}],"stateMutability":"nonpayable","type":"constructor"},{"inputs":[],"name":"ReentrancyGuardReentrantCall","type":"error"},{"inputs":[{"internalType":"address","name":"token","type":"address"}],"name":"SafeERC20FailedOperation","type":"error"},{"anonymous":false,"inputs":[{"indexed":true,"internalType":"bytes32","name":"subscriptionId","type":"bytes32"},{"indexed":false,"internalType":"string","name":"reason","type":"string"}],"name":"BatchChargeFailed","type":"event"},{"anonymous":false,"inputs":[{"indexed":false,"internalType":"uint256","name":"newFeeBps","type":"uint256"}],"name":"FeeUpdated","type":"event"},{"anonymous":false,"inputs":[{"indexed":true,"internalType":"bytes32","name":"merchantId","type":"bytes32"},{"indexed":false,"internalType":"uint256","name":"feeBps","type":"uint256"}],"name":"MerchantFeeUpdated","type":"event"},{"anonymous":false,"inputs":[{"indexed":true,"internalType":"bytes32","name":"merchantId","type":"bytes32"},{"indexed":true,"internalType":"address","name":"wallet","type":"address"},{"indexed":false,"internalType":"string","name":"name","type":"string"}],"name":"MerchantRegistered","type":"event"},{"anonymous":false,"inputs":[{"indexed":true,"internalType":"bytes32","name":"merchantId","type":"bytes32"},{"indexed":false,"internalType":"address","name":"wallet","type":"address"},{"indexed":false,"internalType":"bool","name":"active","type":"bool"}],"name":"MerchantUpdated","type":"event"},{"anonymous":false,"inputs":[{"indexed":true,"internalType":"bytes32","name":"merchantId","type":"bytes32"}],"name":"MerchantWalletUpdateCancelled","type":"event"},{"anonymous":false,"inputs":[{"indexed":true,"internalType":"bytes32","name":"merchantId","type":"bytes32"},{"indexed":true,"internalType":"address","name":"newWallet","type":"address"}],"name":"MerchantWalletUpdateConfirmed","type":"event"},{"anonymous":false,"inputs":[{"indexed":true,"internalType":"bytes32","name":"merchantId","type":"bytes32"},{"indexed":true,"internalType":"address","name":"newWallet","type":"address"}],"name":"MerchantWalletUpdateInitiated","type":"event"},{"anonymous":false,"inputs":[{"indexed":true,"internalType":"bytes32","name":"paymentId","type":"bytes32"},{"indexed":true,"internalType":"address","name":"payer","type":"address"},{"indexed":true,"internalType":"bytes32","name":"merchantId","type":"bytes32"},{"indexed":false,"internalType":"uint256","name":"amount","type":"uint256"},{"indexed":false,"internalType":"uint256","name":"fee","type":"uint256"}],"name":"PaymentProcessed","type":"event"},{"anonymous":false,"inputs":[{"indexed":true,"internalType":"bytes32","name":"subscriptionId","type":"bytes32"},{"indexed":true,"internalType":"bytes32","name":"paymentId","type":"bytes32"},{"indexed":false,"internalType":"uint256","name":"amount","type":"uint256"}],"name":"SubscriptionCharged","type":"event"},{"anonymous":false,"inputs":[{"indexed":true,"internalType":"bytes32","name":"subscriptionId","type":"bytes32"},{"indexed":true,"internalType":"address","name":"subscriber","type":"address"},{"indexed":true,"internalType":"bytes32","name":"merchantId","type":"bytes32"},{"indexed":false,"internalType":"uint256","name":"amount","type":"uint256"},{"indexed":false,"internalType":"enum StrimzPayments.Interval","name":"interval","type":"uint8"}],"name":"SubscriptionCreated","type":"event"},{"anonymous":false,"inputs":[{"indexed":true,"internalType":"bytes32","name":"subscriptionId","type":"bytes32"},{"indexed":false,"internalType":"enum StrimzPayments.SubscriptionStatus","name":"status","type":"uint8"}],"name":"SubscriptionStatusChanged","type":"event"},{"anonymous":false,"inputs":[{"indexed":true,"internalType":"address","name":"token","type":"address"},{"indexed":false,"internalType":"bool","name":"supported","type":"bool"}],"name":"TokenSupported","type":"event"},{"inputs":[],"name":"BPS_DENOMINATOR","outputs":[{"internalType":"uint256","name":"","type":"uint256"}],"stateMutability":"view","type":"function"},{"inputs":[],"name":"MAX_FEE_BPS","outputs":[{"internalType":"uint256","name":"","type":"uint256"}],"stateMutability":"view","type":"function"},{"inputs":[{"internalType":"bytes32","name":"subscriptionId","type":"bytes32"},{"internalType":"uint256","name":"minAmountOut","type":"uint256"}],"name":"_chargeSubscriptionExternal","outputs":[],"stateMutability":"nonpayable","type":"function"},{"inputs":[],"name":"acceptOwnership","outputs":[],"stateMutability":"nonpayable","type":"function"},{"inputs":[{"internalType":"bytes32[]","name":"subscriptionIds","type":"bytes32[]"},{"internalType":"uint256","name":"minAmountOut","type":"uint256"}],"name":"batchChargeSubscriptions","outputs":[],"stateMutability":"nonpayable","type":"function"},{"inputs":[{"internalType":"bytes32","name":"subscriptionId","type":"bytes32"}],"name":"cancelSubscription","outputs":[],"stateMutability":"nonpayable","type":"function"},{"inputs":[{"internalType":"bytes32","name":"merchantId","type":"bytes32"}],"name":"cancelWalletUpdate","outputs":[],"stateMutability":"nonpayable","type":"function"},{"inputs":[{"internalType":"bytes32","name":"subscriptionId","type":"bytes32"},{"internalType":"uint256","name":"minAmountOut","type":"uint256"}],"name":"chargeSubscription","outputs":[],"stateMutability":"nonpayable","type":"function"},{"inputs":[{"internalType":"bytes32","name":"merchantId","type":"bytes32"}],"name":"confirmWalletUpdate","outputs":[],"stateMutability":"nonpayable","type":"function"},{"inputs":[{"internalType":"bytes32","name":"merchantId","type":"bytes32"},{"internalType":"address","name":"token","type":"address"},{"internalType":"uint256","name":"amount","type":"uint256"},{"internalType":"enum StrimzPayments.Interval","name":"interval","type":"uint8"},{"internalType":"bool","name":"autoCharge","type":"bool"}],"name":"createSubscription","outputs":[{"internalType":"bytes32","name":"","type":"bytes32"}],"stateMutability":"nonpayable","type":"function"},{"inputs":[],"name":"feeCollector","outputs":[{"internalType":"address","name":"","type":"address"}],"stateMutability":"view","type":"function"},{"inputs":[{"internalType":"bytes32","name":"merchantId","type":"bytes32"}],"name":"getEffectiveFee","outputs":[{"internalType":"uint256","name":"","type":"uint256"}],"stateMutability":"view","type":"function"},{"inputs":[{"internalType":"bytes32","name":"merchantId","type":"bytes32"}],"name":"getMerchantDetails","outputs":[{"components":[{"internalType":"address","name":"wallet","type":"address"},{"internalType":"string","name":"name","type":"string"},{"internalType":"bool","name":"active","type":"bool"},{"internalType":"uint256","name":"totalVolume","type":"uint256"},{"internalType":"uint256","name":"customFeeBps","type":"uint256"},{"internalType":"uint256","name":"registeredAt","type":"uint256"}],"internalType":"struct StrimzPayments.Merchant","name":"","type":"tuple"}],"stateMutability":"view","type":"function"},{"inputs":[{"internalType":"bytes32","name":"merchantId","type":"bytes32"}],"name":"getMerchantSubscriptions","outputs":[{"internalType":"bytes32[]","name":"","type":"bytes32[]"}],"stateMutability":"view","type":"function"},{"inputs":[{"internalType":"bytes32","name":"paymentId","type":"bytes32"}],"name":"getPaymentDetails","outputs":[{"components":[{"internalType":"bytes32","name":"id","type":"bytes32"},{"internalType":"address","name":"payer","type":"address"},{"internalType":"bytes32","name":"merchantId","type":"bytes32"},{"internalType":"address","name":"token","type":"address"},{"internalType":"uint256","name":"amount","type":"uint256"},{"internalType":"uint256","name":"fee","type":"uint256"},{"internalType":"uint256","name":"timestamp","type":"uint256"},{"internalType":"bytes32","name":"subscriptionId","type":"bytes32"},{"internalType":"string","name":"preference","type":"string"}],"internalType":"struct StrimzPayments.Payment","name":"","type":"tuple"}],"stateMutability":"view","type":"function"},{"inputs":[{"internalType":"bytes32","name":"subscriptionId","type":"bytes32"}],"name":"getSubscriptionDetails","outputs":[{"components":[{"internalType":"bytes32","name":"id","type":"bytes32"},{"internalType":"address","name":"subscriber","type":"address"},{"internalType":"bytes32","name":"merchantId","type":"bytes32"},{"internalType":"address","name":"token","type":"address"},{"internalType":"uint256","name":"amount","type":"uint256"},{"internalType":"enum StrimzPayments.Interval","name":"interval","type":"uint8"},{"internalType":"enum StrimzPayments.SubscriptionStatus","name":"status","type":"uint8"},{"internalType":"uint256","name":"createdAt","type":"uint256"},{"internalType":"uint256","name":"lastChargeAt","type":"uint256"},{"internalType":"uint256","name":"nextChargeAt","type":"uint256"},{"internalType":"uint256","name":"chargeCount","type":"uint256"}],"internalType":"struct StrimzPayments.Subscription","name":"","type":"tuple"}],"stateMutability":"view","type":"function"},{"inputs":[{"internalType":"address","name":"user","type":"address"}],"name":"getUserSubscriptions","outputs":[{"internalType":"bytes32[]","name":"","type":"bytes32[]"}],"stateMutability":"view","type":"function"},{"inputs":[{"internalType":"bytes32","name":"subscriptionId","type":"bytes32"}],"name":"isSubscriptionDue","outputs":[{"internalType":"bool","name":"","type":"bool"}],"stateMutability":"view","type":"function"},{"inputs":[],"name":"merchantCount","outputs":[{"internalType":"uint256","name":"","type":"uint256"}],"stateMutability":"view","type":"function"},{"inputs":[{"internalType":"bytes32","name":"","type":"bytes32"},{"internalType":"bytes32","name":"","type":"bytes32"}],"name":"merchantSubscriptionIndex","outputs":[{"internalType":"uint256","name":"","type":"uint256"}],"stateMutability":"view","type":"function"},{"inputs":[{"internalType":"bytes32","name":"","type":"bytes32"},{"internalType":"uint256","name":"","type":"uint256"}],"name":"merchantSubscriptions","outputs":[{"internalType":"bytes32","name":"","type":"bytes32"}],"stateMutability":"view","type":"function"},{"inputs":[{"internalType":"bytes32","name":"","type":"bytes32"}],"name":"merchants","outputs":[{"internalType":"address","name":"wallet","type":"address"},{"internalType":"string","name":"name","type":"string"},{"internalType":"bool","name":"active","type":"bool"},{"internalType":"uint256","name":"totalVolume","type":"uint256"},{"internalType":"uint256","name":"customFeeBps","type":"uint256"},{"internalType":"uint256","name":"registeredAt","type":"uint256"}],"stateMutability":"view","type":"function"},{"inputs":[],"name":"owner","outputs":[{"internalType":"address","name":"","type":"address"}],"stateMutability":"view","type":"function"},{"inputs":[{"internalType":"bytes32","name":"subscriptionId","type":"bytes32"}],"name":"pauseSubscription","outputs":[],"stateMutability":"nonpayable","type":"function"},{"inputs":[{"internalType":"bytes32","name":"merchantId","type":"bytes32"},{"internalType":"address","name":"token","type":"address"},{"internalType":"uint256","name":"amount","type":"uint256"},{"internalType":"string","name":"preference","type":"string"},{"internalType":"uint256","name":"minAmountOut","type":"uint256"}],"name":"pay","outputs":[{"internalType":"bytes32","name":"","type":"bytes32"}],"stateMutability":"nonpayable","type":"function"},{"inputs":[],"name":"paymentNonce","outputs":[{"internalType":"uint256","name":"","type":"uint256"}],"stateMutability":"view","type":"function"},{"inputs":[{"internalType":"bytes32","name":"","type":"bytes32"}],"name":"payments","outputs":[{"internalType":"bytes32","name":"id","type":"bytes32"},{"internalType":"address","name":"payer","type":"address"},{"internalType":"bytes32","name":"merchantId","type":"bytes32"},{"internalType":"address","name":"token","type":"address"},{"internalType":"uint256","name":"amount","type":"uint256"},{"internalType":"uint256","name":"fee","type":"uint256"},{"internalType":"uint256","name":"timestamp","type":"uint256"},{"internalType":"bytes32","name":"subscriptionId","type":"bytes32"},{"internalType":"string","name":"preference","type":"string"}],"stateMutability":"view","type":"function"},{"inputs":[],"name":"pendingOwner","outputs":[{"internalType":"address","name":"","type":"address"}],"stateMutability":"view","type":"function"},{"inputs":[{"internalType":"bytes32","name":"","type":"bytes32"}],"name":"pendingWallet","outputs":[{"internalType":"address","name":"","type":"address"}],"stateMutability":"view","type":"function"},{"inputs":[],"name":"protocolFeeBps","outputs":[{"internalType":"uint256","name":"","type":"uint256"}],"stateMutability":"view","type":"function"},{"inputs":[{"internalType":"address","name":"wallet","type":"address"},{"internalType":"string","name":"name","type":"string"}],"name":"registerMerchant","outputs":[{"internalType":"bytes32","name":"merchantId","type":"bytes32"}],"stateMutability":"nonpayable","type":"function"},{"inputs":[{"internalType":"address","name":"wallet","type":"address"},{"internalType":"string","name":"name","type":"string"}],"name":"registerMerchantFor","outputs":[{"internalType":"bytes32","name":"merchantId","type":"bytes32"}],"stateMutability":"nonpayable","type":"function"},{"inputs":[{"internalType":"bytes32","name":"subscriptionId","type":"bytes32"}],"name":"resumeSubscription","outputs":[],"stateMutability":"nonpayable","type":"function"},{"inputs":[{"internalType":"address","name":"_feeCollector","type":"address"}],"name":"setFeeCollector","outputs":[],"stateMutability":"nonpayable","type":"function"},{"inputs":[{"internalType":"bytes32","name":"merchantId","type":"bytes32"},{"internalType":"uint256","name":"feeBps","type":"uint256"}],"name":"setMerchantFee","outputs":[],"stateMutability":"nonpayable","type":"function"},{"inputs":[{"internalType":"uint256","name":"newFeeBps","type":"uint256"}],"name":"setProtocolFee","outputs":[],"stateMutability":"nonpayable","type":"function"},{"inputs":[{"internalType":"address","name":"token","type":"address"},{"internalType":"bool","name":"supported","type":"bool"}],"name":"setSupportedToken","outputs":[],"stateMutability":"nonpayable","type":"function"},{"inputs":[{"internalType":"bytes32","name":"","type":"bytes32"}],"name":"subscriptions","outputs":[{"internalType":"bytes32","name":"id","type":"bytes32"},{"internalType":"address","name":"subscriber","type":"address"},{"internalType":"bytes32","name":"merchantId","type":"bytes32"},{"internalType":"address","name":"token","type":"address"},{"internalType":"uint256","name":"amount","type":"uint256"},{"internalType":"enum StrimzPayments.Interval","name":"interval","type":"uint8"},{"internalType":"enum StrimzPayments.SubscriptionStatus","name":"status","type":"uint8"},{"internalType":"uint256","name":"createdAt","type":"uint256"},{"internalType":"uint256","name":"lastChargeAt","type":"uint256"},{"internalType":"uint256","name":"nextChargeAt","type":"uint256"},{"internalType":"uint256","name":"chargeCount","type":"uint256"}],"stateMutability":"view","type":"function"},{"inputs":[{"internalType":"address","name":"","type":"address"}],"name":"supportedTokens","outputs":[{"internalType":"bool","name":"","type":"bool"}],"stateMutability":"view","type":"function"},{"inputs":[{"internalType":"address","name":"newOwner","type":"address"}],"name":"transferOwnership","outputs":[],"stateMutability":"nonpayable","type":"function"},{"inputs":[{"internalType":"bytes32","name":"merchantId","type":"bytes32"},{"internalType":"address","name":"newWallet","type":"address"},{"internalType":"bool","name":"active","type":"bool"}],"name":"updateMerchant","outputs":[],"stateMutability":"nonpayable","type":"function"},{"inputs":[{"internalType":"bytes32","name":"subscriptionId","type":"bytes32"},{"internalType":"uint256","name":"newAmount","type":"uint256"}],"name":"updateSubscriptionAmount","outputs":[],"stateMutability":"nonpayable","type":"function"},{"inputs":[{"internalType":"bytes32","name":"","type":"bytes32"},{"internalType":"address","name":"","type":"address"}],"name":"userSubscriptionIndex","outputs":[{"internalType":"uint256","name":"","type":"uint256"}],"stateMutability":"view","type":"function"},{"inputs":[{"internalType":"address","name":"","type":"address"},{"internalType":"uint256","name":"","type":"uint256"}],"name":"userSubscriptions","outputs":[{"internalType":"bytes32","name":"","type":"bytes32"}],"stateMutability":"view","type":"function"},{"inputs":[{"internalType":"address","name":"","type":"address"}],"name":"walletToMerchant","outputs":[{"internalType":"bytes32","name":"","type":"bytes32"}],"stateMutability":"view","type":"function"}],"evm":{"bytecode":{"linkReferences":{},"object":"608060405234801562000010575f80fd5b5060405162003cc638038062003cc683398101604081905262000033916200012d565b60017f9b779b17422d0df92223018b32b4d1fa46e071723d6817e2486d003becc55f00556001600160a01b038216620000b35760405162461bcd60e51b815260206004820152601560248201527f494e56414c49445f4645455f434f4c4c4543544f52000000000000000000000060448201526064015b60405180910390fd5b6101f4811115620000f65760405162461bcd60e51b815260206004820152600c60248201526b08c8a8abea89e9ebe90928e960a31b6044820152606401620000aa565b5f8054336001600160a01b031991821617909155600180549091166001600160a01b03939093169290921790915560045562000166565b5f80604083850312156200013f575f80fd5b82516001600160a01b038116811462000156575f80fd5b6020939093015192949293505050565b613b5280620001745f395ff3fe608060405234801561000f575f80fd5b5060043610610276575f3560e01c80639381bdd611610156578063cd827fb7116100ca578063e30c397811610084578063e30c3978146106a0578063e7986466146106b3578063f2fde38b146106c6578063f3212445146106d9578063fbeec81f146106ec578063ff0f7b74146106f5575f80fd5b8063cd827fb714610629578063d21f1ffc1461063c578063d55be8c61461064f578063d91a128d14610658578063d992a70114610678578063e1a4521814610697575f80fd5b8063a42dce801161011b578063a42dce801461058b578063a6c8a3841461059e578063b49a9a0b146105b1578063c415b95c146105db578063c725f868146105ee578063c95d6edc14610616575f80fd5b80639381bdd6146104b157806394259c6c146104c4578063996d10d8146105525780639b5bf14c146105655780639c5117f414610578575f80fd5b806335659fb8116101ed5780636b1f2772116101b25780636b1f27721461043d578063787dce3d1461045057806379ba5097146104635780637e0724fb1461046b578063891051851461047e5780638da5cb5b14610487575f80fd5b806335659fb8146103b557806348b1e0ea146103be5780635fd13996146103d157806362d80666146103f157806368c4ac261461041b575f80fd5b806326ed63f31161023e57806326ed63f31461030b5780632c1479171461032c5780632d34d1871461034c5780632e6ca5881461035f5780632eaad46b1461037f5780632ef4d11614610392575f80fd5b80630716326d1461027a57806309cf4190146102ab5780631d9dac21146102c057806320003022146102d3578063246082cd146102f8575b5f80fd5b61028d610288366004613045565b610708565b6040516102a29998979695949392919061309f565b60405180910390f35b6102be6102b93660046130ff565b6107e6565b005b6102be6102ce366004613045565b610a39565b6102e66102e1366004613045565b610b46565b6040516102a296959493929190613173565b6102be610306366004613045565b610c0f565b61031e61031936600461321b565b610d20565b6040519081526020016102a2565b61033f61033a366004613045565b61105d565b6040516102a291906132be565b61031e61035a36600461336a565b6111a8565b61037261036d36600461338a565b6111d3565b6040516102a291906133a3565b61037261038d366004613045565b61123c565b6103a56103a0366004613045565b611299565b60405190151581526020016102a2565b61031e60045481565b6102be6103cc36600461336a565b6113d7565b6103e46103df366004613045565b611424565b6040516102a291906133e6565b61031e6103ff36600461336a565b600d60209081525f928352604080842090915290825290205481565b6103a561042936600461338a565b60036020525f908152604090205460ff1681565b6102be61044b36600461336a565b611581565b6102be61045e366004613045565b61166f565b6102be611714565b6102be61047936600461336a565b611764565b61031e60085481565b5f54610499906001600160a01b031681565b6040516001600160a01b0390911681526020016102a2565b6102be6104bf366004613045565b6117e1565b61053b6104d2366004613045565b600960208190525f9182526040909120805460018201546002830154600384015460048501546005860154600687015460078801546008890154989099015496986001600160a01b039687169895979490961695929460ff80841695610100909404169391928b565b6040516102a29b9a9998979695949392919061347b565b6102be61056036600461336a565b6118b4565b61031e610573366004613045565b6119bf565b61031e6105863660046134ed565b611a1a565b6102be61059936600461338a565b611cb1565b61031e6105ac3660046134ed565b611d44565b61031e6105bf36600461353c565b600c60209081525f928352604080842090915290825290205481565b600154610499906001600160a01b031681565b6104996105fc366004613045565b60056020525f90815260409020546001600160a01b031681565b61031e610624366004613566565b611dd9565b6102be610637366004613045565b611df2565b6102be61064a366004613045565b611ee6565b61031e6101f481565b61066b610666366004613045565b61202d565b6040516102a2919061358e565b61031e61068636600461338a565b60076020525f908152604090205481565b61031e61271081565b600254610499906001600160a01b031681565b6102be6106c1366004613600565b61218a565b6102be6106d436600461338a565b612250565b61031e6106e7366004613628565b6122e3565b61031e600f5481565b6102be610703366004613680565b61267b565b600e6020525f908152604090208054600182015460028301546003840154600485015460058601546006870154600788015460088901805498996001600160a01b03988916999798909616969495939492939192610765906136b9565b80601f0160208091040260200160405190810160405280929190818152602001828054610791906136b9565b80156107dc5780601f106107b3576101008083540402835291602001916107dc565b820191905f5260205f20905b8154815290600101906020018083116107bf57829003601f168201915b5050505050905089565b6107ee6127ef565b5f5b82811015610a1d575f84848381811061080b5761080b6136eb565b602090810292909201355f81815260099093526040909220805492935091905061087757815f80516020613afd833981519152604051610868906020808252600990820152681393d517d193d5539160ba1b604082015260600190565b60405180910390a25050610a0b565b5f6005820154610100900460ff16600281111561089657610896613286565b1480156108a7575080600801544210155b15610a0857604051632458f07560e11b8152600481018390526024810185905230906348b1e0ea906044015f604051808303815f87803b1580156108e9575f80fd5b505af19250505080156108fa575060015b610a08576109066136ff565b806308c379a003610950575061091a613758565b8061092557506109a2565b825f80516020613afd8339815191528260405161094291906137e1565b60405180910390a250610a08565b634e487b71036109a2576109626137f3565b9061096d57506109a2565b825f80516020613afd8339815191526040516109429060208082526005908201526450414e494360d81b604082015260600190565b3d8080156109cb576040519150601f19603f3d011682016040523d82523d5f602084013e6109d0565b606091505b50825f80516020613afd833981519152604051610942906020808252600790820152662aa725a727aba760c91b604082015260600190565b50505b80610a1581613824565b9150506107f0565b50610a3460015f80516020613add83398151915255565b505050565b5f818152600560205260409020546001600160a01b031680610a965760405162461bcd60e51b81526020600482015260116024820152701393d7d4115391125391d7d5d053131155607a1b60448201526064015b60405180910390fd5b336001600160a01b03821614610abe5760405162461bcd60e51b8152600401610a8d9061383c565b5f82815260066020908152604080832080546001600160a01b03908116855260078452828520859055851680855282852087905581546001600160a01b031990811682178355878652600590945282852080549094169093559051909285917fe3bd9565f5edb0352d671e26009db9a479cbbd94d17ae4cb199acdc4674d54279190a3505050565b60066020525f9081526040902080546001820180546001600160a01b039092169291610b71906136b9565b80601f0160208091040260200160405190810160405280929190818152602001828054610b9d906136b9565b8015610be85780601f10610bbf57610100808354040283529160200191610be8565b820191905f5260205f20905b815481529060010190602001808311610bcb57829003601f168201915b50505050600283015460038401546004850154600590950154939460ff9092169390925086565b5f8181526009602052604090208054610c3a5760405162461bcd60e51b8152600401610a8d90613862565b60018101546001600160a01b03163314610c665760405162461bcd60e51b8152600401610a8d9061383c565b60016005820154610100900460ff166002811115610c8657610c86613286565b14610cc05760405162461bcd60e51b815260206004820152600a6024820152691393d517d4105554d15160b21b6044820152606401610a8d565b60058101805461ff00198116909155610cdd90429060ff1661280d565b600882015560405182907f533a5d00496f7fbd387ecaa9aed7a2da5858b198f3851d647d2c035e5259c33890610d14905f90613892565b60405180910390a25050565b5f610d296127ef565b5f87815260066020526040902060020154879060ff16610d815760405162461bcd60e51b81526020600482015260136024820152724d45524348414e545f4e4f545f41435449564560681b6044820152606401610a8d565b6001600160a01b0387165f90815260036020526040902054879060ff16610de05760405162461bcd60e51b81526020600482015260136024820152721513d2d15397d393d517d4d5541413d4951151606a1b6044820152606401610a8d565b5f8711610dff5760405162461bcd60e51b8152600401610a8d906138a0565b5f610e0a8a896128ee565b90505f610e17828a6138c8565b905085811015610e5d5760405162461bcd60e51b815260206004820152601160248201527014d31254141051d157d15610d151511151607a1b6044820152606401610a8d565b5f8b815260066020526040902054610e84906001600160a01b038c81169133911684612940565b8115610ea657600154610ea6906001600160a01b038c81169133911685612940565b5f610eb1338d61297c565b9050604051806101200160405280828152602001336001600160a01b031681526020018d81526020018c6001600160a01b031681526020018b81526020018481526020014281526020015f801b81526020018a8a8080601f0160208091040260200160405190810160405280939291908181526020018383808284375f920182905250939094525050838152600e602090815260409182902084518155908401516001820180546001600160a01b03199081166001600160a01b039384161790915592850151600283015560608501516003830180549094169116179091556080830151600482015560a0830151600582015560c0830151600682015560e083015160078201556101008301519091506008820190610fd09082613920565b5050505f8c815260066020526040812060030180548c9290610ff39084906139dc565b9091555050604080518b8152602081018590528d91339184917f4197dd339e35320d2adf05bb6ffd309440748ce6a7ae1798c7aa704960ffad0f910160405180910390a494505050505061105360015f80516020613add83398151915255565b9695505050505050565b6110b460408051610160810182525f8082526020820181905291810182905260608101829052608081018290529060a082019081526020015f81526020015f81526020015f81526020015f81526020015f81525090565b5f828152600960209081526040918290208251610160810184528154815260018201546001600160a01b03908116938201939093526002820154938101939093526003808201549092166060840152600481015460808401526005810154909160a084019160ff169081111561112c5761112c613286565b600381111561113d5761113d613286565b81526020016005820160019054906101000a900460ff16600281111561116557611165613286565b600281111561117657611176613286565b815260068201546020820152600782015460408201526008820154606082015260099091015460809091015292915050565b600b602052815f5260405f2081815481106111c1575f80fd5b905f5260205f20015f91509150505481565b6001600160a01b0381165f908152600a602090815260409182902080548351818402810184019094528084526060939283018282801561123057602002820191905f5260205f20905b81548152602001906001019080831161121c575b50505050509050919050565b5f818152600b602090815260409182902080548351818402810184019094528084526060939283018282801561123057602002820191905f5260205f209081548152602001906001019080831161121c5750505050509050919050565b5f8181526009602090815260408083208151610160810183528154815260018201546001600160a01b03908116948201949094526002820154928101929092526003808201549093166060830152600481015460808301526005810154849360a084019160ff169081111561131057611310613286565b600381111561132157611321613286565b81526020016005820160019054906101000a900460ff16600281111561134957611349613286565b600281111561135a5761135a613286565b815260068201546020820152600782015460408201526008820154606082015260099091015460809091015280519091506113a75760405162461bcd60e51b8152600401610a8d90613862565b5f8160c0015160028111156113be576113be613286565b1480156113d057508061012001514210155b9392505050565b3330146114165760405162461bcd60e51b815260206004820152600d60248201526c494e5445524e414c5f4f4e4c5960981b6044820152606401610a8d565b61142082826129e0565b5050565b60408051610120810182525f8082526020820181905291810182905260608082018390526080820183905260a0820183905260c0820183905260e08201929092526101008101919091525f828152600e60209081526040918290208251610120810184528154815260018201546001600160a01b03908116938201939093526002820154938101939093526003810154909116606083015260048101546080830152600581015460a0830152600681015460c0830152600781015460e0830152600881018054610100840191906114fa906136b9565b80601f0160208091040260200160405190810160405280929190818152602001828054611526906136b9565b80156115715780601f1061154857610100808354040283529160200191611571565b820191905f5260205f20905b81548152906001019060200180831161155457829003601f168201915b5050505050815250509050919050565b5f546001600160a01b031633146115aa5760405162461bcd60e51b8152600401610a8d9061383c565b5f828152600660205260408120600501548391036115da5760405162461bcd60e51b8152600401610a8d906139ef565b6101f482111561161b5760405162461bcd60e51b815260206004820152600c60248201526b08c8a8abea89e9ebe90928e960a31b6044820152606401610a8d565b5f83815260066020526040908190206004018390555183907fb796dda41a95e209dd5ea1cee4f66274a27a7a83048f374e4230ac61c750d815906116629085815260200190565b60405180910390a2505050565b5f546001600160a01b031633146116985760405162461bcd60e51b8152600401610a8d9061383c565b6101f48111156116d95760405162461bcd60e51b815260206004820152600c60248201526b08c8a8abea89e9ebe90928e960a31b6044820152606401610a8d565b60048190556040518181527f8c4d35e54a3f2ef1134138fd8ea3daee6a3c89e10d2665996babdf70261e2c769060200160405180910390a150565b6002546001600160a01b0316331461173e5760405162461bcd60e51b8152600401610a8d9061383c565b600280545f80546001600160a01b03199081166001600160a01b03841617909155169055565b5f828152600960205260409020805461178f5760405162461bcd60e51b8152600401610a8d90613862565b60018101546001600160a01b031633146117bb5760405162461bcd60e51b8152600401610a8d9061383c565b5f82116117da5760405162461bcd60e51b8152600401610a8d906138a0565b6004015550565b5f81815260066020526040902080546001600160a01b031633146118175760405162461bcd60e51b8152600401610a8d9061383c565b5f828152600560205260409020546001600160a01b031661186e5760405162461bcd60e51b81526020600482015260116024820152701393d7d4115391125391d7d5d053131155607a1b6044820152606401610a8d565b5f8281526005602052604080822080546001600160a01b03191690555183917f8bab6b20bd4e5154845b93b3f70c86685eaecb5130cc92abafe2373a0f0efe4291a25050565b6118bc6127ef565b5f82815260096020526040902080546118e75760405162461bcd60e51b8152600401610a8d90613862565b5f6005820154610100900460ff16600281111561190657611906613286565b146119535760405162461bcd60e51b815260206004820152601760248201527f535542534352495054494f4e5f4e4f545f4143544956450000000000000000006044820152606401610a8d565b806008015442101561199e5760405162461bcd60e51b8152602060048201526014602482015273535542534352495054494f4e5f4e4f545f44554560601b6044820152606401610a8d565b6119a883836129e0565b5061142060015f80516020613add83398151915255565b5f81815260066020526040812060050154829082036119f05760405162461bcd60e51b8152600401610a8d906139ef565b5f8381526006602052604090206004015480611a0e57600454611a10565b805b9250505b50919050565b5f80546001600160a01b03163314611a445760405162461bcd60e51b8152600401610a8d9061383c565b6001600160a01b038416611a8b5760405162461bcd60e51b815260206004820152600e60248201526d1253959053125117d5d05313115560921b6044820152606401610a8d565b81611ac75760405162461bcd60e51b815260206004820152600c60248201526b494e56414c49445f4e414d4560a01b6044820152606401610a8d565b6001600160a01b0384165f9081526007602052604090205415611b285760405162461bcd60e51b815260206004820152601960248201527815d05313115517d053149150511657d49151d254d511549151603a1b6044820152606401610a8d565b60088054905f611b3783613824565b919050555083838342600854604051602001611b57959493929190613a1b565b6040516020818303038152906040528051906020012090506040518060c00160405280856001600160a01b0316815260200184848080601f0160208091040260200160405190810160405280939291908181526020018383808284375f920182905250938552505060016020808501829052604080860185905260608601859052426080909601959095528684526006815293909220845181546001600160a01b0319166001600160a01b039091161781559284015191830191611c1c915082613920565b5060408281015160028301805460ff1916911515919091179055606083015160038301556080830151600483015560a0909201516005909101556001600160a01b0385165f8181526007602052829020839055905182907fea9569940409313529de09d9e1094900c5552cd487bd94db071bc2d0a662fe8b90611ca29087908790613a50565b60405180910390a39392505050565b5f546001600160a01b03163314611cda5760405162461bcd60e51b8152600401610a8d9061383c565b6001600160a01b038116611d225760405162461bcd60e51b815260206004820152600f60248201526e494e56414c49445f4144445245535360881b6044820152606401610a8d565b600180546001600160a01b0319166001600160a01b0392909216919091179055565b5f6001600160a01b038416611d8c5760405162461bcd60e51b815260206004820152600e60248201526d1253959053125117d5d05313115560921b6044820152606401610a8d565b336001600160a01b03851614611a8b5760405162461bcd60e51b815260206004820152601260248201527126aaa9aa2fa922a3a4a9aa22a92fa9a2a62360711b6044820152606401610a8d565b600a602052815f5260405f2081815481106111c1575f80fd5b5f8181526009602052604090208054611e1d5760405162461bcd60e51b8152600401610a8d90613862565b60018101546001600160a01b03163314611e495760405162461bcd60e51b8152600401610a8d9061383c565b5f6005820154610100900460ff166002811115611e6857611e68613286565b14611ea25760405162461bcd60e51b815260206004820152600a6024820152694e4f545f41435449564560b01b6044820152606401610a8d565b60058101805461ff00191661010017905560405182907f533a5d00496f7fbd387ecaa9aed7a2da5858b198f3851d647d2c035e5259c33890610d1490600190613892565b5f8181526009602052604090208054611f115760405162461bcd60e51b8152600401610a8d90613862565b60026005820154610100900460ff166002811115611f3157611f31613286565b03611f725760405162461bcd60e51b81526020600482015260116024820152701053149150511657d0d05390d153131151607a1b6044820152606401610a8d565b60028101545f90815260066020526040902060018201546001600160a01b0316331480611fa8575080546001600160a01b031633145b80611fbc57505f546001600160a01b031633145b611fd85760405162461bcd60e51b8152600401610a8d9061383c565b60058201805461ff00191661020017905560405183907f533a5d00496f7fbd387ecaa9aed7a2da5858b198f3851d647d2c035e5259c3389061201c90600290613892565b60405180910390a2610a3483612ce2565b61206c6040518060c001604052805f6001600160a01b03168152602001606081526020015f151581526020015f81526020015f81526020015f81525090565b5f82815260066020526040812060050154900361209b5760405162461bcd60e51b8152600401610a8d906139ef565b5f82815260066020908152604091829020825160c0810190935280546001600160a01b0316835260018101805491928401916120d6906136b9565b80601f0160208091040260200160405190810160405280929190818152602001828054612102906136b9565b801561214d5780601f106121245761010080835404028352916020019161214d565b820191905f5260205f20905b81548152906001019060200180831161213057829003601f168201915b5050509183525050600282015460ff1615156020820152600382015460408201526004820154606082015260059091015460809091015292915050565b5f546001600160a01b031633146121b35760405162461bcd60e51b8152600401610a8d9061383c565b6001600160a01b0382166121f95760405162461bcd60e51b815260206004820152600d60248201526c24a72b20a624a22faa27a5a2a760991b6044820152606401610a8d565b6001600160a01b0382165f81815260036020908152604091829020805460ff191685151590811790915591519182527fd86c88b4a367d9b81a6e00c9d3f7d01657bffef358fa8968c91c045ae99f0d529101610d14565b5f546001600160a01b031633146122795760405162461bcd60e51b8152600401610a8d9061383c565b6001600160a01b0381166122c15760405162461bcd60e51b815260206004820152600f60248201526e494e56414c49445f4144445245535360881b6044820152606401610a8d565b600280546001600160a01b0319166001600160a01b0392909216919091179055565b5f6122ec6127ef565b5f86815260066020526040902060020154869060ff166123445760405162461bcd60e51b81526020600482015260136024820152724d45524348414e545f4e4f545f41435449564560681b6044820152606401610a8d565b6001600160a01b0386165f90815260036020526040902054869060ff166123a35760405162461bcd60e51b81526020600482015260136024820152721513d2d15397d393d517d4d5541413d4951151606a1b6044820152606401610a8d565b5f86116123c25760405162461bcd60e51b8152600401610a8d906138a0565b335f818152600a6020908152604080832054905160609490941b6bffffffffffffffffffffffff191691840191909152603483018b90526054830189905242607484015243609484015260b48301529060d401604051602081830303815290604052805190602001209050604051806101600160405280828152602001336001600160a01b031681526020018a8152602001896001600160a01b0316815260200188815260200187600381111561247b5761247b613286565b81526020015f81526020014281526020015f8152602001866124a6576124a1428961280d565b6124a8565b425b81525f6020918201819052838152600982526040908190208351815591830151600180840180546001600160a01b03199081166001600160a01b039485161790915592850151600285015560608501516003808601805490951691909316179092556080840151600484015560a08401516005840180549193909260ff1990921691849081111561253b5761253b613286565b021790555060c082015160058201805461ff00191661010083600281111561256557612565613286565b021790555060e082015160068201556101008201516007820155610120820151600882015561014090910151600990910155335f818152600a6020908152604080832080548e8552600b8452828520805460018084018555938752858720830189905581549384018255908652848620909201879055868552600c84528285208686528452828520819055868552600d84528285208f8652909352928190208390555190928c9185907f0cc9f74b87107468eb3cdad1f245adc8ce93d052c5143eae269793f7114709729061263d908e908e90613a7e565b60405180910390a4861561265557612655835f6129e0565b5090935050505061267260015f80516020613add83398151915255565b95945050505050565b5f83815260066020526040902080546001600160a01b031633146126b15760405162461bcd60e51b8152600401610a8d9061383c565b60028101805460ff19168315151790556001600160a01b038316158015906126e6575080546001600160a01b03848116911614155b156127a1576001600160a01b0383165f908152600760205260409020541561274c5760405162461bcd60e51b815260206004820152601960248201527815d05313115517d053149150511657d49151d254d511549151603a1b6044820152606401610a8d565b5f8481526005602052604080822080546001600160a01b0319166001600160a01b0387169081179091559051909186917f73b585ba33023e53677797d01cd3376054acb573ce071b919e23ddbd23a84ed99190a35b8054604080516001600160a01b039092168252831515602083015285917f7dac21e92520eaedc798f2261da9eecebda327db2d8dff77c1aab26798dc25e8910160405180910390a250505050565b6127f7612fa7565b60025f80516020613add83398151915255565b90565b5f8082600381111561282157612821613286565b0361283a576128338362093a806139dc565b90506128e8565b600182600381111561284e5761284e613286565b03612860576128338362278d006139dc565b600282600381111561287457612874613286565b0361288657612833836276a7006139dc565b600382600381111561289a5761289a613286565b036128ad57612833836301e133806139dc565b60405162461bcd60e51b815260206004820152601060248201526f1253959053125117d25395115495905360821b6044820152606401610a8d565b92915050565b5f82815260066020526040812060040154819061290d5760045461291f565b5f848152600660205260409020600401545b905061271061292e8285613a92565b6129389190613aa9565b949350505050565b61294e848484846001612fd8565b61297657604051635274afe760e01b81526001600160a01b0385166004820152602401610a8d565b50505050565b600f80545f918261298c83613824565b9091555050600f546040516bffffffffffffffffffffffff19606086901b16602082015260348101849052605481019190915260740160405160208183030381529060405280519060200120905092915050565b5f82815260096020526040812060028101546004820154919291612a0491906128ee565b90505f818360040154612a1791906138c8565b905083811015612a5d5760405162461bcd60e51b815260206004820152601160248201527014d31254141051d157d15610d151511151607a1b6044820152606401610a8d565b600183015460028401545f91612a7e916001600160a01b039091169061297c565b9050604051806101200160405280828152602001856001015f9054906101000a90046001600160a01b03166001600160a01b0316815260200185600201548152602001856003015f9054906101000a90046001600160a01b03166001600160a01b031681526020018560040154815260200184815260200142815260200187815260200160405180602001604052805f815250815250600e5f8381526020019081526020015f205f820151815f01556020820151816001015f6101000a8154816001600160a01b0302191690836001600160a01b03160217905550604082015181600201556060820151816003015f6101000a8154816001600160a01b0302191690836001600160a01b031602179055506080820151816004015560a0820151816005015560c0820151816006015560e08201518160070155610100820151816008019081612bcd9190613920565b505042600786018190556005860154612be9925060ff1661280d565b6008850155600984018054905f612bff83613824565b9091555050600484015460028501545f9081526006602052604081206003018054909190612c2e9084906139dc565b9250508190555080867f0ca1dcdb530b2d7aa5d5defd481fd1d48a8e46d57f4c18e5d60ec2518fd1be1a8660040154604051612c6c91815260200190565b60405180910390a3600184015460028501545f908152600660205260409020546003860154612cac926001600160a01b0391821692908216911685612940565b8215612cda5760018085015490546003860154612cda926001600160a01b0391821692908216911686612940565b505050505050565b5f818152600960205260409020600181015460028201546001600160a01b03909116908115612e61575f848152600c602090815260408083206001600160a01b0386168452825280832054600a90925290912080548690829084908110612d4b57612d4b6136eb565b905f5260205f20015414612d915760405162461bcd60e51b815260206004820152600d60248201526c125391115617d0d3d494955415609a1b6044820152606401610a8d565b8054612d9f906001906138c8565b821015612e175780545f908290612db8906001906138c8565b81548110612dc857612dc86136eb565b905f5260205f200154905080828481548110612de657612de66136eb565b5f918252602080832090910192909255918252600c815260408083206001600160a01b038816845290915290208290555b80805480612e2757612e27613ac8565b5f828152602080822083015f19908101839055909201909255878252600c815260408083206001600160a01b038816845290915281205550505b8015612976575f848152600d60209081526040808320848452825280832054600b90925290912080548690829084908110612e9e57612e9e6136eb565b905f5260205f20015414612ee45760405162461bcd60e51b815260206004820152600d60248201526c125391115617d0d3d494955415609a1b6044820152606401610a8d565b8054612ef2906001906138c8565b821015612f615780545f908290612f0b906001906138c8565b81548110612f1b57612f1b6136eb565b905f5260205f200154905080828481548110612f3957612f396136eb565b5f918252602080832090910192909255918252600d8152604080832086845290915290208290555b80805480612f7157612f71613ac8565b5f828152602080822083015f19908101839055909201909255878252600d81526040808320868452909152812055505050505050565b5f80516020613add83398151915254600203612fd657604051633ee5aeb560e01b815260040160405180910390fd5b565b6040516323b872dd60e01b5f8181526001600160a01b038781166004528616602452604485905291602083606481808c5af1925060015f51148316613034578383151615613028573d5f823e3d81fd5b5f883b113d1516831692505b604052505f60605295945050505050565b5f60208284031215613055575f80fd5b5035919050565b5f81518084525f5b8181101561308057602081850181015186830182015201613064565b505f602082860101526020601f19601f83011685010191505092915050565b5f6101208b835260018060a01b03808c1660208501528a6040850152808a166060850152508760808401528660a08401528560c08401528460e0840152806101008401526130ef8184018561305c565b9c9b505050505050505050505050565b5f805f60408486031215613111575f80fd5b833567ffffffffffffffff80821115613128575f80fd5b818601915086601f83011261313b575f80fd5b813581811115613149575f80fd5b8760208260051b850101111561315d575f80fd5b6020928301989097509590910135949350505050565b6001600160a01b038716815260c0602082018190525f906131969083018861305c565b9515156040830152506060810193909352608083019190915260a09091015292915050565b80356001600160a01b03811681146131d1575f80fd5b919050565b5f8083601f8401126131e6575f80fd5b50813567ffffffffffffffff8111156131fd575f80fd5b602083019150836020828501011115613214575f80fd5b9250929050565b5f805f805f8060a08789031215613230575f80fd5b86359550613240602088016131bb565b945060408701359350606087013567ffffffffffffffff811115613262575f80fd5b61326e89828a016131d6565b979a9699509497949695608090950135949350505050565b634e487b7160e01b5f52602160045260245ffd5b600481106132aa576132aa613286565b9052565b600381106132aa576132aa613286565b815181526020808301516101608301916132e2908401826001600160a01b03169052565b5060408301516040830152606083015161330760608401826001600160a01b03169052565b506080830151608083015260a083015161332460a084018261329a565b5060c083015161333760c08401826132ae565b5060e083810151908301526101008084015190830152610120808401519083015261014092830151929091019190915290565b5f806040838503121561337b575f80fd5b50508035926020909101359150565b5f6020828403121561339a575f80fd5b6113d0826131bb565b602080825282518282018190525f9190848201906040850190845b818110156133da578351835292840192918401916001016133be565b50909695505050505050565b60208152815160208201525f602083015161340c60408401826001600160a01b03169052565b5060408301516060830152606083015161343160808401826001600160a01b03169052565b50608083015160a083015260a083015160c083015260c083015160e083015260e083015161010081818501528085015191505061012080818501525061293861014084018261305c565b8b81526001600160a01b038b81166020830152604082018b9052891660608201526080810188905261016081016134b560a083018961329a565b6134c260c08301886132ae565b8560e08301528461010083015283610120830152826101408301529c9b505050505050505050505050565b5f805f604084860312156134ff575f80fd5b613508846131bb565b9250602084013567ffffffffffffffff811115613523575f80fd5b61352f868287016131d6565b9497909650939450505050565b5f806040838503121561354d575f80fd5b8235915061355d602084016131bb565b90509250929050565b5f8060408385031215613577575f80fd5b613580836131bb565b946020939093013593505050565b602080825282516001600160a01b03168282015282015160c060408301525f906135bb60e084018261305c565b905060408401511515606084015260608401516080840152608084015160a084015260a084015160c08401528091505092915050565b803580151581146131d1575f80fd5b5f8060408385031215613611575f80fd5b61361a836131bb565b915061355d602084016135f1565b5f805f805f60a0868803121561363c575f80fd5b8535945061364c602087016131bb565b935060408601359250606086013560048110613666575f80fd5b9150613674608087016135f1565b90509295509295909350565b5f805f60608486031215613692575f80fd5b833592506136a2602085016131bb565b91506136b0604085016135f1565b90509250925092565b600181811c908216806136cd57607f821691505b602082108103611a1457634e487b7160e01b5f52602260045260245ffd5b634e487b7160e01b5f52603260045260245ffd5b5f60033d111561280a5760045f803e505f5160e01c90565b634e487b7160e01b5f52604160045260245ffd5b601f8201601f1916810167ffffffffffffffff8111828210171561375157613751613717565b6040525050565b5f60443d10156137655790565b6040516003193d81016004833e81513d67ffffffffffffffff816024840111818411171561379557505050505090565b82850191508151818111156137ad5750505050505090565b843d87010160208285010111156137c75750505050505090565b6137d66020828601018761372b565b509095945050505050565b602081525f6113d0602083018461305c565b5f8060233d111561380c57602060045f3e50505f516001905b9091565b634e487b7160e01b5f52601160045260245ffd5b5f6001820161383557613835613810565b5060010190565b6020808252600c908201526b15539055551213d49256915160a21b604082015260600190565b60208082526016908201527514d55094d0d49254151253d397d393d517d193d5539160521b604082015260600190565b602081016128e882846132ae565b6020808252600e908201526d1253959053125117d05353d5539560921b604082015260600190565b818103818111156128e8576128e8613810565b601f821115610a34575f81815260208120601f850160051c810160208610156139015750805b601f850160051c820191505b81811015612cda5782815560010161390d565b815167ffffffffffffffff81111561393a5761393a613717565b61394e8161394884546136b9565b846138db565b602080601f831160018114613981575f841561396a5750858301515b5f19600386901b1c1916600185901b178555612cda565b5f85815260208120601f198616915b828110156139af57888601518255948401946001909101908401613990565b50858210156139cc57878501515f19600388901b60f8161c191681555b5050505050600190811b01905550565b808201808211156128e8576128e8613810565b60208082526012908201527113515490d210539517d393d517d193d5539160721b604082015260600190565b6bffffffffffffffffffffffff198660601b168152838560148301376014930192830191909152603482015260540192915050565b60208152816020820152818360408301375f818301604090810191909152601f909201601f19160101919050565b828152604081016113d0602083018461329a565b80820281158282048414176128e8576128e8613810565b5f82613ac357634e487b7160e01b5f52601260045260245ffd5b500490565b634e487b7160e01b5f52603160045260245ffdfe9b779b17422d0df92223018b32b4d1fa46e071723d6817e2486d003becc55f0008d5b9d725a401a02a5f1d78d13960dd231b16bb5a7efe9616f6e4d57936701ba26469706673582212201f08c7d6d708b3a8b2d938c81fdef6bbe45d6d0e53ae55b3c2b58625c4d2a90564736f6c63430008140033","opcodes":"PUSH1 0x80 PUSH1 0x40 MSTORE CALLVALUE DUP1 ISZERO PUSH3 0x10 JUMPI PUSH0 DUP1 REVERT JUMPDEST POP PUSH1 0x40 MLOAD PUSH3 0x3CC6 CODESIZE SUB DUP1 PUSH3 0x3CC6 DUP4 CODECOPY DUP2 ADD PUSH1 0x40 DUP2 SWAP1 MSTORE PUSH3 0x33 SWAP2 PUSH3 0x12D JUMP JUMPDEST PUSH1 0x1 PUSH32 0x9B779B17422D0DF92223018B32B4D1FA46E071723D6817E2486D003BECC55F00 SSTORE PUSH1 0x1 PUSH1 0x1 PUSH1 0xA0 SHL SUB DUP3 AND PUSH3 0xB3 JUMPI PUSH1 0x40 MLOAD PUSH3 0x461BCD PUSH1 0xE5 SHL DUP2 MSTORE PUSH1 0x20 PUSH1 0x4 DUP3 ADD MSTORE PUSH1 0x15 PUSH1 0x24 DUP3 ADD MSTORE PUSH32 0x494E56414C49445F4645455F434F4C4C4543544F520000000000000000000000 PUSH1 0x44 DUP3 ADD MSTORE PUSH1 0x64 ADD JUMPDEST PUSH1 0x40 MLOAD DUP1 SWAP2 SUB SWAP1 REVERT JUMPDEST PUSH2 0x1F4 DUP2 GT ISZERO PUSH3 0xF6 JUMPI PUSH1 0x40 MLOAD PUSH3 0x461BCD PUSH1 0xE5 SHL DUP2 MSTORE PUSH1 0x20 PUSH1 0x4 DUP3 ADD MSTORE PUSH1 0xC PUSH1 0x24 DUP3 ADD MSTORE PUSH12 0x8C8A8ABEA89E9EBE90928E9 PUSH1 0xA3 SHL PUSH1 0x44 DUP3 ADD MSTORE PUSH1 0x64 ADD PUSH3 0xAA JUMP JUMPDEST PUSH0 DUP1 SLOAD CALLER PUSH1 0x1 PUSH1 0x1 PUSH1 0xA0 SHL SUB NOT SWAP2 DUP3 AND OR SWAP1 SWAP2 SSTORE PUSH1 0x1 DUP1 SLOAD SWAP1 SWAP2 AND PUSH1 0x1 PUSH1 0x1 PUSH1 0xA0 SHL SUB SWAP4 SWAP1 SWAP4 AND SWAP3 SWAP1 SWAP3 OR SWAP1 SWAP2 SSTORE PUSH1 0x4 SSTORE PUSH3 0x166 JUMP JUMPDEST PUSH0 DUP1 PUSH1 0x40 DUP4 DUP6 SUB SLT ISZERO PUSH3 0x13F JUMPI PUSH0 DUP1 REVERT JUMPDEST DUP3 MLOAD PUSH1 0x1 PUSH1 0x1 PUSH1 0xA0 SHL SUB DUP2 AND DUP2 EQ PUSH3 0x156 JUMPI PUSH0 DUP1 REVERT JUMPDEST PUSH1 0x20 SWAP4 SWAP1 SWAP4 ADD MLOAD SWAP3 SWAP5 SWAP3 SWAP4 POP POP POP JUMP JUMPDEST PUSH2 0x3B52 DUP1 PUSH3 0x174 PUSH0 CODECOPY PUSH0 RETURN INVALID PUSH1 0x80 PUSH1 0x40 MSTORE CALLVALUE DUP1 ISZERO PUSH2 0xF JUMPI PUSH0 DUP1 REVERT JUMPDEST POP PUSH1 0x4 CALLDATASIZE LT PUSH2 0x276 JUMPI PUSH0 CALLDATALOAD PUSH1 0xE0 SHR DUP1 PUSH4 0x9381BDD6 GT PUSH2 0x156 JUMPI DUP1 PUSH4 0xCD827FB7 GT PUSH2 0xCA JUMPI DUP1 PUSH4 0xE30C3978 GT PUSH2 0x84 JUMPI DUP1 PUSH4 0xE30C3978 EQ PUSH2 0x6A0 JUMPI DUP1 PUSH4 0xE7986466 EQ PUSH2 0x6B3 JUMPI DUP1 PUSH4 0xF2FDE38B EQ PUSH2 0x6C6 JUMPI DUP1 PUSH4 0xF3212445 EQ PUSH2 0x6D9 JUMPI DUP1 PUSH4 0xFBEEC81F EQ PUSH2 0x6EC JUMPI DUP1 PUSH4 0xFF0F7B74 EQ PUSH2 0x6F5 JUMPI PUSH0 DUP1 REVERT JUMPDEST DUP1 PUSH4 0xCD827FB7 EQ PUSH2 0x629 JUMPI DUP1 PUSH4 0xD21F1FFC EQ PUSH2 0x63C JUMPI DUP1 PUSH4 0xD55BE8C6 EQ PUSH2 0x64F JUMPI DUP1 PUSH4 0xD91A128D EQ PUSH2 0x658 JUMPI DUP1 PUSH4 0xD992A701 EQ PUSH2 0x678 JUMPI DUP1 PUSH4 0xE1A45218 EQ PUSH2 0x697 JUMPI PUSH0 DUP1 REVERT JUMPDEST DUP1 PUSH4 0xA42DCE80 GT PUSH2 0x11B JUMPI DUP1 PUSH4 0xA42DCE80 EQ PUSH2 0x58B JUMPI DUP1 PUSH4 0xA6C8A384 EQ PUSH2 0x59E JUMPI DUP1 PUSH4 0xB49A9A0B EQ PUSH2 0x5B1 JUMPI DUP1 PUSH4 0xC415B95C EQ PUSH2 0x5DB JUMPI DUP1 PUSH4 0xC725F868 EQ PUSH2 0x5EE JUMPI DUP1 PUSH4 0xC95D6EDC EQ PUSH2 0x616 JUMPI PUSH0 DUP1 REVERT JUMPDEST DUP1 PUSH4 0x9381BDD6 EQ PUSH2 0x4B1 JUMPI DUP1 PUSH4 0x94259C6C EQ PUSH2 0x4C4 JUMPI DUP1 PUSH4 0x996D10D8 EQ PUSH2 0x552 JUMPI DUP1 PUSH4 0x9B5BF14C EQ PUSH2 0x565 JUMPI DUP1 PUSH4 0x9C5117F4 EQ PUSH2 0x578 JUMPI PUSH0 DUP1 REVERT JUMPDEST DUP1 PUSH4 0x35659FB8 GT PUSH2 0x1ED JUMPI DUP1 PUSH4 0x6B1F2772 GT PUSH2 0x1B2 JUMPI DUP1 PUSH4 0x6B1F2772 EQ PUSH2 0x43D JUMPI DUP1 PUSH4 0x787DCE3D EQ PUSH2 0x450 JUMPI DUP1 PUSH4 0x79BA5097 EQ PUSH2 0x463 JUMPI DUP1 PUSH4 0x7E0724FB EQ PUSH2 0x46B JUMPI DUP1 PUSH4 0x89105185 EQ PUSH2 0x47E JUMPI DUP1 PUSH4 0x8DA5CB5B EQ PUSH2 0x487 JUMPI PUSH0 DUP1 REVERT JUMPDEST DUP1 PUSH4 0x35659FB8 EQ PUSH2 0x3B5 JUMPI DUP1 PUSH4 0x48B1E0EA EQ PUSH2 0x3BE JUMPI DUP1 PUSH4 0x5FD13996 EQ PUSH2 0x3D1 JUMPI DUP1 PUSH4 0x62D80666 EQ PUSH2 0x3F1 JUMPI DUP1 PUSH4 0x68C4AC26 EQ PUSH2 0x41B JUMPI PUSH0 DUP1 REVERT JUMPDEST DUP1 PUSH4 0x26ED63F3 GT PUSH2 0x23E JUMPI DUP1 PUSH4 0x26ED63F3 EQ PUSH2 0x30B JUMPI DUP1 PUSH4 0x2C147917 EQ PUSH2 0x32C JUMPI DUP1 PUSH4 0x2D34D187 EQ PUSH2 0x34C JUMPI DUP1 PUSH4 0x2E6CA588 EQ PUSH2 0x35F JUMPI DUP1 PUSH4 0x2EAAD46B EQ PUSH2 0x37F JUMPI DUP1 PUSH4 0x2EF4D116 EQ PUSH2 0x392 JUMPI PUSH0 DUP1 REVERT JUMPDEST DUP1 PUSH4 0x716326D EQ PUSH2 0x27A JUMPI DUP1 PUSH4 0x9CF4190 EQ PUSH2 0x2AB JUMPI DUP1 PUSH4 0x1D9DAC21 EQ PUSH2 0x2C0 JUMPI DUP1 PUSH4 0x20003022 EQ PUSH2 0x2D3 JUMPI DUP1 PUSH4 0x246082CD EQ PUSH2 0x2F8 JUMPI JUMPDEST PUSH0 DUP1 REVERT JUMPDEST PUSH2 0x28D PUSH2 0x288 CALLDATASIZE PUSH1 0x4 PUSH2 0x3045 JUMP JUMPDEST PUSH2 0x708 JUMP JUMPDEST PUSH1 0x40 MLOAD PUSH2 0x2A2 SWAP10 SWAP9 SWAP8 SWAP7 SWAP6 SWAP5 SWAP4 SWAP3 SWAP2 SWAP1 PUSH2 0x309F JUMP JUMPDEST PUSH1 0x40 MLOAD DUP1 SWAP2 SUB SWAP1 RETURN JUMPDEST PUSH2 0x2BE PUSH2 0x2B9 CALLDATASIZE PUSH1 0x4 PUSH2 0x30FF JUMP JUMPDEST PUSH2 0x7E6 JUMP JUMPDEST STOP JUMPDEST PUSH2 0x2BE PUSH2 0x2CE CALLDATASIZE PUSH1 0x4 PUSH2 0x3045 JUMP JUMPDEST PUSH2 0xA39 JUMP JUMPDEST PUSH2 0x2E6 PUSH2 0x2E1 CALLDATASIZE PUSH1 0x4 PUSH2 0x3045 JUMP JUMPDEST PUSH2 0xB46 JUMP JUMPDEST PUSH1 0x40 MLOAD PUSH2 0x2A2 SWAP7 SWAP6 SWAP5 SWAP4 SWAP3 SWAP2 SWAP1 PUSH2 0x3173 JUMP JUMPDEST PUSH2 0x2BE PUSH2 0x306 CALLDATASIZE PUSH1 0x4 PUSH2 0x3045 JUMP JUMPDEST PUSH2 0xC0F JUMP JUMPDEST PUSH2 0x31E PUSH2 0x319 CALLDATASIZE PUSH1 0x4 PUSH2 0x321B JUMP JUMPDEST PUSH2 0xD20 JUMP JUMPDEST PUSH1 0x40 MLOAD SWAP1 DUP2 MSTORE PUSH1 0x20 ADD PUSH2 0x2A2 JUMP JUMPDEST PUSH2 0x33F PUSH2 0x33A CALLDATASIZE PUSH1 0x4 PUSH2 0x3045 JUMP JUMPDEST PUSH2 0x105D JUMP JUMPDEST PUSH1 0x40 MLOAD PUSH2 0x2A2 SWAP2 SWAP1 PUSH2 0x32BE JUMP JUMPDEST PUSH2 0x31E PUSH2 0x35A CALLDATASIZE PUSH1 0x4 PUSH2 0x336A JUMP JUMPDEST PUSH2 0x11A8 JUMP JUMPDEST PUSH2 0x372 PUSH2 0x36D CALLDATASIZE PUSH1 0x4 PUSH2 0x338A JUMP JUMPDEST PUSH2 0x11D3 JUMP JUMPDEST PUSH1 0x40 MLOAD PUSH2 0x2A2 SWAP2 SWAP1 PUSH2 0x33A3 JUMP JUMPDEST PUSH2 0x372 PUSH2 0x38D CALLDATASIZE PUSH1 0x4 PUSH2 0x3045 JUMP JUMPDEST PUSH2 0x123C JUMP JUMPDEST PUSH2 0x3A5 PUSH2 0x3A0 CALLDATASIZE PUSH1 0x4 PUSH2 0x3045 JUMP JUMPDEST PUSH2 0x1299 JUMP JUMPDEST PUSH1 0x40 MLOAD SWAP1 ISZERO ISZERO DUP2 MSTORE PUSH1 0x20 ADD PUSH2 0x2A2 JUMP JUMPDEST PUSH2 0x31E PUSH1 0x4 SLOAD DUP2 JUMP JUMPDEST PUSH2 0x2BE PUSH2 0x3CC CALLDATASIZE PUSH1 0x4 PUSH2 0x336A JUMP JUMPDEST PUSH2 0x13D7 JUMP JUMPDEST PUSH2 0x3E4 PUSH2 0x3DF CALLDATASIZE PUSH1 0x4 PUSH2 0x3045 JUMP JUMPDEST PUSH2 0x1424 JUMP JUMPDEST PUSH1 0x40 MLOAD PUSH2 0x2A2 SWAP2 SWAP1 PUSH2 0x33E6 JUMP JUMPDEST PUSH2 0x31E PUSH2 0x3FF CALLDATASIZE PUSH1 0x4 PUSH2 0x336A JUMP JUMPDEST PUSH1 0xD PUSH1 0x20 SWAP1 DUP2 MSTORE PUSH0 SWAP3 DUP4 MSTORE PUSH1 0x40 DUP1 DUP5 KECCAK256 SWAP1 SWAP2 MSTORE SWAP1 DUP3 MSTORE SWAP1 KECCAK256 SLOAD DUP2 JUMP JUMPDEST PUSH2 0x3A5 PUSH2 0x429 CALLDATASIZE PUSH1 0x4 PUSH2 0x338A JUMP JUMPDEST PUSH1 0x3 PUSH1 0x20 MSTORE PUSH0 SWAP1 DUP2 MSTORE PUSH1 0x40 SWAP1 KECCAK256 SLOAD PUSH1 0xFF AND DUP2 JUMP JUMPDEST PUSH2 0x2BE PUSH2 0x44B CALLDATASIZE PUSH1 0x4 PUSH2 0x336A JUMP JUMPDEST PUSH2 0x1581 JUMP JUMPDEST PUSH2 0x2BE PUSH2 0x45E CALLDATASIZE PUSH1 0x4 PUSH2 0x3045 JUMP JUMPDEST PUSH2 0x166F JUMP JUMPDEST PUSH2 0x2BE PUSH2 0x1714 JUMP JUMPDEST PUSH2 0x2BE PUSH2 0x479 CALLDATASIZE PUSH1 0x4 PUSH2 0x336A JUMP JUMPDEST PUSH2 0x1764 JUMP JUMPDEST PUSH2 0x31E PUSH1 0x8 SLOAD DUP2 JUMP JUMPDEST PUSH0 SLOAD PUSH2 0x499 SWAP1 PUSH1 0x1 PUSH1 0x1 PUSH1 0xA0 SHL SUB AND DUP2 JUMP JUMPDEST PUSH1 0x40 MLOAD PUSH1 0x1 PUSH1 0x1 PUSH1 0xA0 SHL SUB SWAP1 SWAP2 AND DUP2 MSTORE PUSH1 0x20 ADD PUSH2 0x2A2 JUMP JUMPDEST PUSH2 0x2BE PUSH2 0x4BF CALLDATASIZE PUSH1 0x4 PUSH2 0x3045 JUMP JUMPDEST PUSH2 0x17E1 JUMP JUMPDEST PUSH2 0x53B PUSH2 0x4D2 CALLDATASIZE PUSH1 0x4 PUSH2 0x3045 JUMP JUMPDEST PUSH1 0x9 PUSH1 0x20 DUP2 SWAP1 MSTORE PUSH0 SWAP2 DUP3 MSTORE PUSH1 0x40 SWAP1 SWAP2 KECCAK256 DUP1 SLOAD PUSH1 0x1 DUP3 ADD SLOAD PUSH1 0x2 DUP4 ADD SLOAD PUSH1 0x3 DUP5 ADD SLOAD PUSH1 0x4 DUP6 ADD SLOAD PUSH1 0x5 DUP7 ADD SLOAD PUSH1 0x6 DUP8 ADD SLOAD PUSH1 0x7 DUP9 ADD SLOAD PUSH1 0x8 DUP10 ADD SLOAD SWAP9 SWAP1 SWAP10 ADD SLOAD SWAP7 SWAP9 PUSH1 0x1 PUSH1 0x1 PUSH1 0xA0 SHL SUB SWAP7 DUP8 AND SWAP9 SWAP6 SWAP8 SWAP5 SWAP1 SWAP7 AND SWAP6 SWAP3 SWAP5 PUSH1 0xFF DUP1 DUP5 AND SWAP6 PUSH2 0x100 SWAP1 SWAP5 DIV AND SWAP4 SWAP2 SWAP3 DUP12 JUMP JUMPDEST PUSH1 0x40 MLOAD PUSH2 0x2A2 SWAP12 SWAP11 SWAP10 SWAP9 SWAP8 SWAP7 SWAP6 SWAP5 SWAP4 SWAP3 SWAP2 SWAP1 PUSH2 0x347B JUMP JUMPDEST PUSH2 0x2BE PUSH2 0x560 CALLDATASIZE PUSH1 0x4 PUSH2 0x336A JUMP JUMPDEST PUSH2 0x18B4 JUMP JUMPDEST PUSH2 0x31E PUSH2 0x573 CALLDATASIZE PUSH1 0x4 PUSH2 0x3045 JUMP JUMPDEST PUSH2 0x19BF JUMP JUMPDEST PUSH2 0x31E PUSH2 0x586 CALLDATASIZE PUSH1 0x4 PUSH2 0x34ED JUMP JUMPDEST PUSH2 0x1A1A JUMP JUMPDEST PUSH2 0x2BE PUSH2 0x599 CALLDATASIZE PUSH1 0x4 PUSH2 0x338A JUMP JUMPDEST PUSH2 0x1CB1 JUMP JUMPDEST PUSH2 0x31E PUSH2 0x5AC CALLDATASIZE PUSH1 0x4 PUSH2 0x34ED JUMP JUMPDEST PUSH2 0x1D44 JUMP JUMPDEST PUSH2 0x31E PUSH2 0x5BF CALLDATASIZE PUSH1 0x4 PUSH2 0x353C JUMP JUMPDEST PUSH1 0xC PUSH1 0x20 SWAP1 DUP2 MSTORE PUSH0 SWAP3 DUP4 MSTORE PUSH1 0x40 DUP1 DUP5 KECCAK256 SWAP1 SWAP2 MSTORE SWAP1 DUP3 MSTORE SWAP1 KECCAK256 SLOAD DUP2 JUMP JUMPDEST PUSH1 0x1 SLOAD PUSH2 0x499 SWAP1 PUSH1 0x1 PUSH1 0x1 PUSH1 0xA0 SHL SUB AND DUP2 JUMP JUMPDEST PUSH2 0x499 PUSH2 0x5FC CALLDATASIZE PUSH1 0x4 PUSH2 0x3045 JUMP JUMPDEST PUSH1 0x5 PUSH1 0x20 MSTORE PUSH0 SWAP1 DUP2 MSTORE PUSH1 0x40 SWAP1 KECCAK256 SLOAD PUSH1 0x1 PUSH1 0x1 PUSH1 0xA0 SHL SUB AND DUP2 JUMP JUMPDEST PUSH2 0x31E PUSH2 0x624 CALLDATASIZE PUSH1 0x4 PUSH2 0x3566 JUMP JUMPDEST PUSH2 0x1DD9 JUMP JUMPDEST PUSH2 0x2BE PUSH2 0x637 CALLDATASIZE PUSH1 0x4 PUSH2 0x3045 JUMP JUMPDEST PUSH2 0x1DF2 JUMP JUMPDEST PUSH2 0x2BE PUSH2 0x64A CALLDATASIZE PUSH1 0x4 PUSH2 0x3045 JUMP JUMPDEST PUSH2 0x1EE6 JUMP JUMPDEST PUSH2 0x31E PUSH2 0x1F4 DUP2 JUMP JUMPDEST PUSH2 0x66B PUSH2 0x666 CALLDATASIZE PUSH1 0x4 PUSH2 0x3045 JUMP JUMPDEST PUSH2 0x202D JUMP JUMPDEST PUSH1 0x40 MLOAD PUSH2 0x2A2 SWAP2 SWAP1 PUSH2 0x358E JUMP JUMPDEST PUSH2 0x31E PUSH2 0x686 CALLDATASIZE PUSH1 0x4 PUSH2 0x338A JUMP JUMPDEST PUSH1 0x7 PUSH1 0x20 MSTORE PUSH0 SWAP1 DUP2 MSTORE PUSH1 0x40 SWAP1 KECCAK256 SLOAD DUP2 JUMP JUMPDEST PUSH2 0x31E PUSH2 0x2710 DUP2 JUMP JUMPDEST PUSH1 0x2 SLOAD PUSH2 0x499 SWAP1 PUSH1 0x1 PUSH1 0x1 PUSH1 0xA0 SHL SUB AND DUP2 JUMP JUMPDEST PUSH2 0x2BE PUSH2 0x6C1 CALLDATASIZE PUSH1 0x4 PUSH2 0x3600 JUMP JUMPDEST PUSH2 0x218A JUMP JUMPDEST PUSH2 0x2BE PUSH2 0x6D4 CALLDATASIZE PUSH1 0x4 PUSH2 0x338A JUMP JUMPDEST PUSH2 0x2250 JUMP JUMPDEST PUSH2 0x31E PUSH2 0x6E7 CALLDATASIZE PUSH1 0x4 PUSH2 0x3628 JUMP JUMPDEST PUSH2 0x22E3 JUMP JUMPDEST PUSH2 0x31E PUSH1 0xF SLOAD DUP2 JUMP JUMPDEST PUSH2 0x2BE PUSH2 0x703 CALLDATASIZE PUSH1 0x4 PUSH2 0x3680 JUMP JUMPDEST PUSH2 0x267B JUMP JUMPDEST PUSH1 0xE PUSH1 0x20 MSTORE PUSH0 SWAP1 DUP2 MSTORE PUSH1 0x40 SWAP1 KECCAK256 DUP1 SLOAD PUSH1 0x1 DUP3 ADD SLOAD PUSH1 0x2 DUP4 ADD SLOAD PUSH1 0x3 DUP5 ADD SLOAD PUSH1 0x4 DUP6 ADD SLOAD PUSH1 0x5 DUP7 ADD SLOAD PUSH1 0x6 DUP8 ADD SLOAD PUSH1 0x7 DUP9 ADD SLOAD PUSH1 0x8 DUP10 ADD DUP1 SLOAD SWAP9 SWAP10 PUSH1 0x1 PUSH1 0x1 PUSH1 0xA0 SHL SUB SWAP9 DUP10 AND SWAP10 SWAP8 SWAP9 SWAP1 SWAP7 AND SWAP7 SWAP5 SWAP6 SWAP4 SWAP5 SWAP3 SWAP4 SWAP2 SWAP3 PUSH2 0x765 SWAP1 PUSH2 0x36B9 JUMP JUMPDEST DUP1 PUSH1 0x1F ADD PUSH1 0x20 DUP1 SWAP2 DIV MUL PUSH1 0x20 ADD PUSH1 0x40 MLOAD SWAP1 DUP2 ADD PUSH1 0x40 MSTORE DUP1 SWAP3 SWAP2 SWAP1 DUP2 DUP2 MSTORE PUSH1 0x20 ADD DUP3 DUP1 SLOAD PUSH2 0x791 SWAP1 PUSH2 0x36B9 JUMP JUMPDEST DUP1 ISZERO PUSH2 0x7DC JUMPI DUP1 PUSH1 0x1F LT PUSH2 0x7B3 JUMPI PUSH2 0x100 DUP1 DUP4 SLOAD DIV MUL DUP4 MSTORE SWAP2 PUSH1 0x20 ADD SWAP2 PUSH2 0x7DC JUMP JUMPDEST DUP3 ADD SWAP2 SWAP1 PUSH0 MSTORE PUSH1 0x20 PUSH0 KECCAK256 SWAP1 JUMPDEST DUP2 SLOAD DUP2 MSTORE SWAP1 PUSH1 0x1 ADD SWAP1 PUSH1 0x20 ADD DUP1 DUP4 GT PUSH2 0x7BF JUMPI DUP3 SWAP1 SUB PUSH1 0x1F AND DUP3 ADD SWAP2 JUMPDEST POP POP POP POP POP SWAP1 POP DUP10 JUMP JUMPDEST PUSH2 0x7EE PUSH2 0x27EF JUMP JUMPDEST PUSH0 JUMPDEST DUP3 DUP2 LT ISZERO PUSH2 0xA1D JUMPI PUSH0 DUP5 DUP5 DUP4 DUP2 DUP2 LT PUSH2 0x80B JUMPI PUSH2 0x80B PUSH2 0x36EB JUMP JUMPDEST PUSH1 0x20 SWAP1 DUP2 MUL SWAP3 SWAP1 SWAP3 ADD CALLDATALOAD PUSH0 DUP2 DUP2 MSTORE PUSH1 0x9 SWAP1 SWAP4 MSTORE PUSH1 0x40 SWAP1 SWAP3 KECCAK256 DUP1 SLOAD SWAP3 SWAP4 POP SWAP2 SWAP1 POP PUSH2 0x877 JUMPI DUP2 PUSH0 DUP1 MLOAD PUSH1 0x20 PUSH2 0x3AFD DUP4 CODECOPY DUP2 MLOAD SWAP2 MSTORE PUSH1 0x40 MLOAD PUSH2 0x868 SWAP1 PUSH1 0x20 DUP1 DUP3 MSTORE PUSH1 0x9 SWAP1 DUP3 ADD MSTORE PUSH9 0x1393D517D193D55391 PUSH1 0xBA SHL PUSH1 0x40 DUP3 ADD MSTORE PUSH1 0x60 ADD SWAP1 JUMP JUMPDEST PUSH1 0x40 MLOAD DUP1 SWAP2 SUB SWAP1 LOG2 POP POP PUSH2 0xA0B JUMP JUMPDEST PUSH0 PUSH1 0x5 DUP3 ADD SLOAD PUSH2 0x100 SWAP1 DIV PUSH1 0xFF AND PUSH1 0x2 DUP2 GT ISZERO PUSH2 0x896 JUMPI PUSH2 0x896 PUSH2 0x3286 JUMP JUMPDEST EQ DUP1 ISZERO PUSH2 0x8A7 JUMPI POP DUP1 PUSH1 0x8 ADD SLOAD TIMESTAMP LT ISZERO JUMPDEST ISZERO PUSH2 0xA08 JUMPI PUSH1 0x40 MLOAD PUSH4 0x2458F075 PUSH1 0xE1 SHL DUP2 MSTORE PUSH1 0x4 DUP2 ADD DUP4 SWAP1 MSTORE PUSH1 0x24 DUP2 ADD DUP6 SWAP1 MSTORE ADDRESS SWAP1 PUSH4 0x48B1E0EA SWAP1 PUSH1 0x44 ADD PUSH0 PUSH1 0x40 MLOAD DUP1 DUP4 SUB DUP2 PUSH0 DUP8 DUP1 EXTCODESIZE ISZERO DUP1 ISZERO PUSH2 0x8E9 JUMPI PUSH0 DUP1 REVERT JUMPDEST POP GAS CALL SWAP3 POP POP POP DUP1 ISZERO PUSH2 0x8FA JUMPI POP PUSH1 0x1 JUMPDEST PUSH2 0xA08 JUMPI PUSH2 0x906 PUSH2 0x36FF JUMP JUMPDEST DUP1 PUSH4 0x8C379A0 SUB PUSH2 0x950 JUMPI POP PUSH2 0x91A PUSH2 0x3758 JUMP JUMPDEST DUP1 PUSH2 0x925 JUMPI POP PUSH2 0x9A2 JUMP JUMPDEST DUP3 PUSH0 DUP1 MLOAD PUSH1 0x20 PUSH2 0x3AFD DUP4 CODECOPY DUP2 MLOAD SWAP2 MSTORE DUP3 PUSH1 0x40 MLOAD PUSH2 0x942 SWAP2 SWAP1 PUSH2 0x37E1 JUMP JUMPDEST PUSH1 0x40 MLOAD DUP1 SWAP2 SUB SWAP1 LOG2 POP PUSH2 0xA08 JUMP JUMPDEST PUSH4 0x4E487B71 SUB PUSH2 0x9A2 JUMPI PUSH2 0x962 PUSH2 0x37F3 JUMP JUMPDEST SWAP1 PUSH2 0x96D JUMPI POP PUSH2 0x9A2 JUMP JUMPDEST DUP3 PUSH0 DUP1 MLOAD PUSH1 0x20 PUSH2 0x3AFD DUP4 CODECOPY DUP2 MLOAD SWAP2 MSTORE PUSH1 0x40 MLOAD PUSH2 0x942 SWAP1 PUSH1 0x20 DUP1 DUP3 MSTORE PUSH1 0x5 SWAP1 DUP3 ADD MSTORE PUSH5 0x50414E4943 PUSH1 0xD8 SHL PUSH1 0x40 DUP3 ADD MSTORE PUSH1 0x60 ADD SWAP1 JUMP JUMPDEST RETURNDATASIZE DUP1 DUP1 ISZERO PUSH2 0x9CB JUMPI PUSH1 0x40 MLOAD SWAP2 POP PUSH1 0x1F NOT PUSH1 0x3F RETURNDATASIZE ADD AND DUP3 ADD PUSH1 0x40 MSTORE RETURNDATASIZE DUP3 MSTORE RETURNDATASIZE PUSH0 PUSH1 0x20 DUP5 ADD RETURNDATACOPY PUSH2 0x9D0 JUMP JUMPDEST PUSH1 0x60 SWAP2 POP JUMPDEST POP DUP3 PUSH0 DUP1 MLOAD PUSH1 0x20 PUSH2 0x3AFD DUP4 CODECOPY DUP2 MLOAD SWAP2 MSTORE PUSH1 0x40 MLOAD PUSH2 0x942 SWAP1 PUSH1 0x20 DUP1 DUP3 MSTORE PUSH1 0x7 SWAP1 DUP3 ADD MSTORE PUSH7 0x2AA725A727ABA7 PUSH1 0xC9 SHL PUSH1 0x40 DUP3 ADD MSTORE PUSH1 0x60 ADD SWAP1 JUMP JUMPDEST POP POP JUMPDEST DUP1 PUSH2 0xA15 DUP2 PUSH2 0x3824 JUMP JUMPDEST SWAP2 POP POP PUSH2 0x7F0 JUMP JUMPDEST POP PUSH2 0xA34 PUSH1 0x1 PUSH0 DUP1 MLOAD PUSH1 0x20 PUSH2 0x3ADD DUP4 CODECOPY DUP2 MLOAD SWAP2 MSTORE SSTORE JUMP JUMPDEST POP POP POP JUMP JUMPDEST PUSH0 DUP2 DUP2 MSTORE PUSH1 0x5 PUSH1 0x20 MSTORE PUSH1 0x40 SWAP1 KECCAK256 SLOAD PUSH1 0x1 PUSH1 0x1 PUSH1 0xA0 SHL SUB AND DUP1 PUSH2 0xA96 JUMPI PUSH1 0x40 MLOAD PUSH3 0x461BCD PUSH1 0xE5 SHL DUP2 MSTORE PUSH1 0x20 PUSH1 0x4 DUP3 ADD MSTORE PUSH1 0x11 PUSH1 0x24 DUP3 ADD MSTORE PUSH17 0x1393D7D4115391125391D7D5D053131155 PUSH1 0x7A SHL PUSH1 0x44 DUP3 ADD MSTORE PUSH1 0x64 ADD JUMPDEST PUSH1 0x40 MLOAD DUP1 SWAP2 SUB SWAP1 REVERT JUMPDEST CALLER PUSH1 0x1 PUSH1 0x1 PUSH1 0xA0 SHL SUB DUP3 AND EQ PUSH2 0xABE JUMPI PUSH1 0x40 MLOAD PUSH3 0x461BCD PUSH1 0xE5 SHL DUP2 MSTORE PUSH1 0x4 ADD PUSH2 0xA8D SWAP1 PUSH2 0x383C JUMP JUMPDEST PUSH0 DUP3 DUP2 MSTORE PUSH1 0x6 PUSH1 0x20 SWAP1 DUP2 MSTORE PUSH1 0x40 DUP1 DUP4 KECCAK256 DUP1 SLOAD PUSH1 0x1 PUSH1 0x1 PUSH1 0xA0 SHL SUB SWAP1 DUP2 AND DUP6 MSTORE PUSH1 0x7 DUP5 MSTORE DUP3 DUP6 KECCAK256 DUP6 SWAP1 SSTORE DUP6 AND DUP1 DUP6 MSTORE DUP3 DUP6 KECCAK256 DUP8 SWAP1 SSTORE DUP2 SLOAD PUSH1 0x1 PUSH1 0x1 PUSH1 0xA0 SHL SUB NOT SWAP1 DUP2 AND DUP3 OR DUP4 SSTORE DUP8 DUP7 MSTORE PUSH1 0x5 SWAP1 SWAP5 MSTORE DUP3 DUP6 KECCAK256 DUP1 SLOAD SWAP1 SWAP5 AND SWAP1 SWAP4 SSTORE SWAP1 MLOAD SWAP1 SWAP3 DUP6 SWAP2 PUSH32 0xE3BD9565F5EDB0352D671E26009DB9A479CBBD94D17AE4CB199ACDC4674D5427 SWAP2 SWAP1 LOG3 POP POP POP JUMP JUMPDEST PUSH1 0x6 PUSH1 0x20 MSTORE PUSH0 SWAP1 DUP2 MSTORE PUSH1 0x40 SWAP1 KECCAK256 DUP1 SLOAD PUSH1 0x1 DUP3 ADD DUP1 SLOAD PUSH1 0x1 PUSH1 0x1 PUSH1 0xA0 SHL SUB SWAP1 SWAP3 AND SWAP3 SWAP2 PUSH2 0xB71 SWAP1 PUSH2 0x36B9 JUMP JUMPDEST DUP1 PUSH1 0x1F ADD PUSH1 0x20 DUP1 SWAP2 DIV MUL PUSH1 0x20 ADD PUSH1 0x40 MLOAD SWAP1 DUP2 ADD PUSH1 0x40 MSTORE DUP1 SWAP3 SWAP2 SWAP1 DUP2 DUP2 MSTORE PUSH1 0x20 ADD DUP3 DUP1 SLOAD PUSH2 0xB9D SWAP1 PUSH2 0x36B9 JUMP JUMPDEST DUP1 ISZERO PUSH2 0xBE8 JUMPI DUP1 PUSH1 0x1F LT PUSH2 0xBBF JUMPI PUSH2 0x100 DUP1 DUP4 SLOAD DIV MUL DUP4 MSTORE SWAP2 PUSH1 0x20 ADD SWAP2 PUSH2 0xBE8 JUMP JUMPDEST DUP3 ADD SWAP2 SWAP1 PUSH0 MSTORE PUSH1 0x20 PUSH0 KECCAK256 SWAP1 JUMPDEST DUP2 SLOAD DUP2 MSTORE SWAP1 PUSH1 0x1 ADD SWAP1 PUSH1 0x20 ADD DUP1 DUP4 GT PUSH2 0xBCB JUMPI DUP3 SWAP1 SUB PUSH1 0x1F AND DUP3 ADD SWAP2 JUMPDEST POP POP POP POP PUSH1 0x2 DUP4 ADD SLOAD PUSH1 0x3 DUP5 ADD SLOAD PUSH1 0x4 DUP6 ADD SLOAD PUSH1 0x5 SWAP1 SWAP6 ADD SLOAD SWAP4 SWAP5 PUSH1 0xFF SWAP1 SWAP3 AND SWAP4 SWAP1 SWAP3 POP DUP7 JUMP JUMPDEST PUSH0 DUP2 DUP2 MSTORE PUSH1 0x9 PUSH1 0x20 MSTORE PUSH1 0x40 SWAP1 KECCAK256 DUP1 SLOAD PUSH2 0xC3A JUMPI PUSH1 0x40 MLOAD PUSH3 0x461BCD PUSH1 0xE5 SHL DUP2 MSTORE PUSH1 0x4 ADD PUSH2 0xA8D SWAP1 PUSH2 0x3862 JUMP JUMPDEST PUSH1 0x1 DUP2 ADD SLOAD PUSH1 0x1 PUSH1 0x1 PUSH1 0xA0 SHL SUB AND CALLER EQ PUSH2 0xC66 JUMPI PUSH1 0x40 MLOAD PUSH3 0x461BCD PUSH1 0xE5 SHL DUP2 MSTORE PUSH1 0x4 ADD PUSH2 0xA8D SWAP1 PUSH2 0x383C JUMP JUMPDEST PUSH1 0x1 PUSH1 0x5 DUP3 ADD SLOAD PUSH2 0x100 SWAP1 DIV PUSH1 0xFF AND PUSH1 0x2 DUP2 GT ISZERO PUSH2 0xC86 JUMPI PUSH2 0xC86 PUSH2 0x3286 JUMP JUMPDEST EQ PUSH2 0xCC0 JUMPI PUSH1 0x40 MLOAD PUSH3 0x461BCD PUSH1 0xE5 SHL DUP2 MSTORE PUSH1 0x20 PUSH1 0x4 DUP3 ADD MSTORE PUSH1 0xA PUSH1 0x24 DUP3 ADD MSTORE PUSH10 0x1393D517D4105554D151 PUSH1 0xB2 SHL PUSH1 0x44 DUP3 ADD MSTORE PUSH1 0x64 ADD PUSH2 0xA8D JUMP JUMPDEST PUSH1 0x5 DUP2 ADD DUP1 SLOAD PUSH2 0xFF00 NOT DUP2 AND SWAP1 SWAP2 SSTORE PUSH2 0xCDD SWAP1 TIMESTAMP SWAP1 PUSH1 0xFF AND PUSH2 0x280D JUMP JUMPDEST PUSH1 0x8 DUP3 ADD SSTORE PUSH1 0x40 MLOAD DUP3 SWAP1 PUSH32 0x533A5D00496F7FBD387ECAA9AED7A2DA5858B198F3851D647D2C035E5259C338 SWAP1 PUSH2 0xD14 SWAP1 PUSH0 SWAP1 PUSH2 0x3892 JUMP JUMPDEST PUSH1 0x40 MLOAD DUP1 SWAP2 SUB SWAP1 LOG2 POP POP JUMP JUMPDEST PUSH0 PUSH2 0xD29 PUSH2 0x27EF JUMP JUMPDEST PUSH0 DUP8 DUP2 MSTORE PUSH1 0x6 PUSH1 0x20 MSTORE PUSH1 0x40 SWAP1 KECCAK256 PUSH1 0x2 ADD SLOAD DUP8 SWAP1 PUSH1 0xFF AND PUSH2 0xD81 JUMPI PUSH1 0x40 MLOAD PUSH3 0x461BCD PUSH1 0xE5 SHL DUP2 MSTORE PUSH1 0x20 PUSH1 0x4 DUP3 ADD MSTORE PUSH1 0x13 PUSH1 0x24 DUP3 ADD MSTORE PUSH19 0x4D45524348414E545F4E4F545F414354495645 PUSH1 0x68 SHL PUSH1 0x44 DUP3 ADD MSTORE PUSH1 0x64 ADD PUSH2 0xA8D JUMP JUMPDEST PUSH1 0x1 PUSH1 0x1 PUSH1 0xA0 SHL SUB DUP8 AND PUSH0 SWAP1 DUP2 MSTORE PUSH1 0x3 PUSH1 0x20 MSTORE PUSH1 0x40 SWAP1 KECCAK256 SLOAD DUP8 SWAP1 PUSH1 0xFF AND PUSH2 0xDE0 JUMPI PUSH1 0x40 MLOAD PUSH3 0x461BCD PUSH1 0xE5 SHL DUP2 MSTORE PUSH1 0x20 PUSH1 0x4 DUP3 ADD MSTORE PUSH1 0x13 PUSH1 0x24 DUP3 ADD MSTORE PUSH19 0x1513D2D15397D393D517D4D5541413D4951151 PUSH1 0x6A SHL PUSH1 0x44 DUP3 ADD MSTORE PUSH1 0x64 ADD PUSH2 0xA8D JUMP JUMPDEST PUSH0 DUP8 GT PUSH2 0xDFF JUMPI PUSH1 0x40 MLOAD PUSH3 0x461BCD PUSH1 0xE5 SHL DUP2 MSTORE PUSH1 0x4 ADD PUSH2 0xA8D SWAP1 PUSH2 0x38A0 JUMP JUMPDEST PUSH0 PUSH2 0xE0A DUP11 DUP10 PUSH2 0x28EE JUMP JUMPDEST SWAP1 POP PUSH0 PUSH2 0xE17 DUP3 DUP11 PUSH2 0x38C8 JUMP JUMPDEST SWAP1 POP DUP6 DUP2 LT ISZERO PUSH2 0xE5D JUMPI PUSH1 0x40 MLOAD PUSH3 0x461BCD PUSH1 0xE5 SHL DUP2 MSTORE PUSH1 0x20 PUSH1 0x4 DUP3 ADD MSTORE PUSH1 0x11 PUSH1 0x24 DUP3 ADD MSTORE PUSH17 0x14D31254141051D157D15610D151511151 PUSH1 0x7A SHL PUSH1 0x44 DUP3 ADD MSTORE PUSH1 0x64 ADD PUSH2 0xA8D JUMP JUMPDEST PUSH0 DUP12 DUP2 MSTORE PUSH1 0x6 PUSH1 0x20 MSTORE PUSH1 0x40 SWAP1 KECCAK256 SLOAD PUSH2 0xE84 SWAP1 PUSH1 0x1 PUSH1 0x1 PUSH1 0xA0 SHL SUB DUP13 DUP2 AND SWAP2 CALLER SWAP2 AND DUP5 PUSH2 0x2940 JUMP JUMPDEST DUP2 ISZERO PUSH2 0xEA6 JUMPI PUSH1 0x1 SLOAD PUSH2 0xEA6 SWAP1 PUSH1 0x1 PUSH1 0x1 PUSH1 0xA0 SHL SUB DUP13 DUP2 AND SWAP2 CALLER SWAP2 AND DUP6 PUSH2 0x2940 JUMP JUMPDEST PUSH0 PUSH2 0xEB1 CALLER DUP14 PUSH2 0x297C JUMP JUMPDEST SWAP1 POP PUSH1 0x40 MLOAD DUP1 PUSH2 0x120 ADD PUSH1 0x40 MSTORE DUP1 DUP3 DUP2 MSTORE PUSH1 0x20 ADD CALLER PUSH1 0x1 PUSH1 0x1 PUSH1 0xA0 SHL SUB AND DUP2 MSTORE PUSH1 0x20 ADD DUP14 DUP2 MSTORE PUSH1 0x20 ADD DUP13 PUSH1 0x1 PUSH1 0x1 PUSH1 0xA0 SHL SUB AND DUP2 MSTORE PUSH1 0x20 ADD DUP12 DUP2 MSTORE PUSH1 0x20 ADD DUP5 DUP2 MSTORE PUSH1 0x20 ADD TIMESTAMP DUP2 MSTORE PUSH1 0x20 ADD PUSH0 DUP1 SHL DUP2 MSTORE PUSH1 0x20 ADD DUP11 DUP11 DUP1 DUP1 PUSH1 0x1F ADD PUSH1 0x20 DUP1 SWAP2 DIV MUL PUSH1 0x20 ADD PUSH1 0x40 MLOAD SWAP1 DUP2 ADD PUSH1 0x40 MSTORE DUP1 SWAP4 SWAP3 SWAP2 SWAP1 DUP2 DUP2 MSTORE PUSH1 0x20 ADD DUP4 DUP4 DUP1 DUP3 DUP5 CALLDATACOPY PUSH0 SWAP3 ADD DUP3 SWAP1 MSTORE POP SWAP4 SWAP1 SWAP5 MSTORE POP POP DUP4 DUP2 MSTORE PUSH1 0xE PUSH1 0x20 SWAP1 DUP2 MSTORE PUSH1 0x40 SWAP2 DUP3 SWAP1 KECCAK256 DUP5 MLOAD DUP2 SSTORE SWAP1 DUP5 ADD MLOAD PUSH1 0x1 DUP3 ADD DUP1 SLOAD PUSH1 0x1 PUSH1 0x1 PUSH1 0xA0 SHL SUB NOT SWAP1 DUP2 AND PUSH1 0x1 PUSH1 0x1 PUSH1 0xA0 SHL SUB SWAP4 DUP5 AND OR SWAP1 SWAP2 SSTORE SWAP3 DUP6 ADD MLOAD PUSH1 0x2 DUP4 ADD SSTORE PUSH1 0x60 DUP6 ADD MLOAD PUSH1 0x3 DUP4 ADD DUP1 SLOAD SWAP1 SWAP5 AND SWAP2 AND OR SWAP1 SWAP2 SSTORE PUSH1 0x80 DUP4 ADD MLOAD PUSH1 0x4 DUP3 ADD SSTORE PUSH1 0xA0 DUP4 ADD MLOAD PUSH1 0x5 DUP3 ADD SSTORE PUSH1 0xC0 DUP4 ADD MLOAD PUSH1 0x6 DUP3 ADD SSTORE PUSH1 0xE0 DUP4 ADD MLOAD PUSH1 0x7 DUP3 ADD SSTORE PUSH2 0x100 DUP4 ADD MLOAD SWAP1 SWAP2 POP PUSH1 0x8 DUP3 ADD SWAP1 PUSH2 0xFD0 SWAP1 DUP3 PUSH2 0x3920 JUMP JUMPDEST POP POP POP PUSH0 DUP13 DUP2 MSTORE PUSH1 0x6 PUSH1 0x20 MSTORE PUSH1 0x40 DUP2 KECCAK256 PUSH1 0x3 ADD DUP1 SLOAD DUP13 SWAP3 SWAP1 PUSH2 0xFF3 SWAP1 DUP5 SWAP1 PUSH2 0x39DC JUMP JUMPDEST SWAP1 SWAP2 SSTORE POP POP PUSH1 0x40 DUP1 MLOAD DUP12 DUP2 MSTORE PUSH1 0x20 DUP2 ADD DUP6 SWAP1 MSTORE DUP14 SWAP2 CALLER SWAP2 DUP5 SWAP2 PUSH32 0x4197DD339E35320D2ADF05BB6FFD309440748CE6A7AE1798C7AA704960FFAD0F SWAP2 ADD PUSH1 0x40 MLOAD DUP1 SWAP2 SUB SWAP1 LOG4 SWAP5 POP POP POP POP POP PUSH2 0x1053 PUSH1 0x1 PUSH0 DUP1 MLOAD PUSH1 0x20 PUSH2 0x3ADD DUP4 CODECOPY DUP2 MLOAD SWAP2 MSTORE SSTORE JUMP JUMPDEST SWAP7 SWAP6 POP POP POP POP POP POP JUMP JUMPDEST PUSH2 0x10B4 PUSH1 0x40 DUP1 MLOAD PUSH2 0x160 DUP2 ADD DUP3 MSTORE PUSH0 DUP1 DUP3 MSTORE PUSH1 0x20 DUP3 ADD DUP2 SWAP1 MSTORE SWAP2 DUP2 ADD DUP3 SWAP1 MSTORE PUSH1 0x60 DUP2 ADD DUP3 SWAP1 MSTORE PUSH1 0x80 DUP2 ADD DUP3 SWAP1 MSTORE SWAP1 PUSH1 0xA0 DUP3 ADD SWAP1 DUP2 MSTORE PUSH1 0x20 ADD PUSH0 DUP2 MSTORE PUSH1 0x20 ADD PUSH0 DUP2 MSTORE PUSH1 0x20 ADD PUSH0 DUP2 MSTORE PUSH1 0x20 ADD PUSH0 DUP2 MSTORE PUSH1 0x20 ADD PUSH0 DUP2 MSTORE POP SWAP1 JUMP JUMPDEST PUSH0 DUP3 DUP2 MSTORE PUSH1 0x9 PUSH1 0x20 SWAP1 DUP2 MSTORE PUSH1 0x40 SWAP2 DUP3 SWAP1 KECCAK256 DUP3 MLOAD PUSH2 0x160 DUP2 ADD DUP5 MSTORE DUP2 SLOAD DUP2 MSTORE PUSH1 0x1 DUP3 ADD SLOAD PUSH1 0x1 PUSH1 0x1 PUSH1 0xA0 SHL SUB SWAP1 DUP2 AND SWAP4 DUP3 ADD SWAP4 SWAP1 SWAP4 MSTORE PUSH1 0x2 DUP3 ADD SLOAD SWAP4 DUP2 ADD SWAP4 SWAP1 SWAP4 MSTORE PUSH1 0x3 DUP1 DUP3 ADD SLOAD SWAP1 SWAP3 AND PUSH1 0x60 DUP5 ADD MSTORE PUSH1 0x4 DUP2 ADD SLOAD PUSH1 0x80 DUP5 ADD MSTORE PUSH1 0x5 DUP2 ADD SLOAD SWAP1 SWAP2 PUSH1 0xA0 DUP5 ADD SWAP2 PUSH1 0xFF AND SWAP1 DUP2 GT ISZERO PUSH2 0x112C JUMPI PUSH2 0x112C PUSH2 0x3286 JUMP JUMPDEST PUSH1 0x3 DUP2 GT ISZERO PUSH2 0x113D JUMPI PUSH2 0x113D PUSH2 0x3286 JUMP JUMPDEST DUP2 MSTORE PUSH1 0x20 ADD PUSH1 0x5 DUP3 ADD PUSH1 0x1 SWAP1 SLOAD SWAP1 PUSH2 0x100 EXP SWAP1 DIV PUSH1 0xFF AND PUSH1 0x2 DUP2 GT ISZERO PUSH2 0x1165 JUMPI PUSH2 0x1165 PUSH2 0x3286 JUMP JUMPDEST PUSH1 0x2 DUP2 GT ISZERO PUSH2 0x1176 JUMPI PUSH2 0x1176 PUSH2 0x3286 JUMP JUMPDEST DUP2 MSTORE PUSH1 0x6 DUP3 ADD SLOAD PUSH1 0x20 DUP3 ADD MSTORE PUSH1 0x7 DUP3 ADD SLOAD PUSH1 0x40 DUP3 ADD MSTORE PUSH1 0x8 DUP3 ADD SLOAD PUSH1 0x60 DUP3 ADD MSTORE PUSH1 0x9 SWAP1 SWAP2 ADD SLOAD PUSH1 0x80 SWAP1 SWAP2 ADD MSTORE SWAP3 SWAP2 POP POP JUMP JUMPDEST PUSH1 0xB PUSH1 0x20 MSTORE DUP2 PUSH0 MSTORE PUSH1 0x40 PUSH0 KECCAK256 DUP2 DUP2 SLOAD DUP2 LT PUSH2 0x11C1 JUMPI PUSH0 DUP1 REVERT JUMPDEST SWAP1 PUSH0 MSTORE PUSH1 0x20 PUSH0 KECCAK256 ADD PUSH0 SWAP2 POP SWAP2 POP POP SLOAD DUP2 JUMP JUMPDEST PUSH1 0x1 PUSH1 0x1 PUSH1 0xA0 SHL SUB DUP2 AND PUSH0 SWAP1 DUP2 MSTORE PUSH1 0xA PUSH1 0x20 SWAP1 DUP2 MSTORE PUSH1 0x40 SWAP2 DUP3 SWAP1 KECCAK256 DUP1 SLOAD DUP4 MLOAD DUP2 DUP5 MUL DUP2 ADD DUP5 ADD SWAP1 SWAP5 MSTORE DUP1 DUP5 MSTORE PUSH1 0x60 SWAP4 SWAP3 DUP4 ADD DUP3 DUP3 DUP1 ISZERO PUSH2 0x1230 JUMPI PUSH1 0x20 MUL DUP3 ADD SWAP2 SWAP1 PUSH0 MSTORE PUSH1 0x20 PUSH0 KECCAK256 SWAP1 JUMPDEST DUP2 SLOAD DUP2 MSTORE PUSH1 0x20 ADD SWAP1 PUSH1 0x1 ADD SWAP1 DUP1 DUP4 GT PUSH2 0x121C JUMPI JUMPDEST POP POP POP POP POP SWAP1 POP SWAP2 SWAP1 POP JUMP JUMPDEST PUSH0 DUP2 DUP2 MSTORE PUSH1 0xB PUSH1 0x20 SWAP1 DUP2 MSTORE PUSH1 0x40 SWAP2 DUP3 SWAP1 KECCAK256 DUP1 SLOAD DUP4 MLOAD DUP2 DUP5 MUL DUP2 ADD DUP5 ADD SWAP1 SWAP5 MSTORE DUP1 DUP5 MSTORE PUSH1 0x60 SWAP4 SWAP3 DUP4 ADD DUP3 DUP3 DUP1 ISZERO PUSH2 0x1230 JUMPI PUSH1 0x20 MUL DUP3 ADD SWAP2 SWAP1 PUSH0 MSTORE PUSH1 0x20 PUSH0 KECCAK256 SWAP1 DUP2 SLOAD DUP2 MSTORE PUSH1 0x20 ADD SWAP1 PUSH1 0x1 ADD SWAP1 DUP1 DUP4 GT PUSH2 0x121C JUMPI POP POP POP POP POP SWAP1 POP SWAP2 SWAP1 POP JUMP JUMPDEST PUSH0 DUP2 DUP2 MSTORE PUSH1 0x9 PUSH1 0x20 SWAP1 DUP2 MSTORE PUSH1 0x40 DUP1 DUP4 KECCAK256 DUP2 MLOAD PUSH2 0x160 DUP2 ADD DUP4 MSTORE DUP2 SLOAD DUP2 MSTORE PUSH1 0x1 DUP3 ADD SLOAD PUSH1 0x1 PUSH1 0x1 PUSH1 0xA0 SHL SUB SWAP1 DUP2 AND SWAP5 DUP3 ADD SWAP5 SWAP1 SWAP5 MSTORE PUSH1 0x2 DUP3 ADD SLOAD SWAP3 DUP2 ADD SWAP3 SWAP1 SWAP3 MSTORE PUSH1 0x3 DUP1 DUP3 ADD SLOAD SWAP1 SWAP4 AND PUSH1 0x60 DUP4 ADD MSTORE PUSH1 0x4 DUP2 ADD SLOAD PUSH1 0x80 DUP4 ADD MSTORE PUSH1 0x5 DUP2 ADD SLOAD DUP5 SWAP4 PUSH1 0xA0 DUP5 ADD SWAP2 PUSH1 0xFF AND SWAP1 DUP2 GT ISZERO PUSH2 0x1310 JUMPI PUSH2 0x1310 PUSH2 0x3286 JUMP JUMPDEST PUSH1 0x3 DUP2 GT ISZERO PUSH2 0x1321 JUMPI PUSH2 0x1321 PUSH2 0x3286 JUMP JUMPDEST DUP2 MSTORE PUSH1 0x20 ADD PUSH1 0x5 DUP3 ADD PUSH1 0x1 SWAP1 SLOAD SWAP1 PUSH2 0x100 EXP SWAP1 DIV PUSH1 0xFF AND PUSH1 0x2 DUP2 GT ISZERO PUSH2 0x1349 JUMPI PUSH2 0x1349 PUSH2 0x3286 JUMP JUMPDEST PUSH1 0x2 DUP2 GT ISZERO PUSH2 0x135A JUMPI PUSH2 0x135A PUSH2 0x3286 JUMP JUMPDEST DUP2 MSTORE PUSH1 0x6 DUP3 ADD SLOAD PUSH1 0x20 DUP3 ADD MSTORE PUSH1 0x7 DUP3 ADD SLOAD PUSH1 0x40 DUP3 ADD MSTORE PUSH1 0x8 DUP3 ADD SLOAD PUSH1 0x60 DUP3 ADD MSTORE PUSH1 0x9 SWAP1 SWAP2 ADD SLOAD PUSH1 0x80 SWAP1 SWAP2 ADD MSTORE DUP1 MLOAD SWAP1 SWAP2 POP PUSH2 0x13A7 JUMPI PUSH1 0x40 MLOAD PUSH3 0x461BCD PUSH1 0xE5 SHL DUP2 MSTORE PUSH1 0x4 ADD PUSH2 0xA8D SWAP1 PUSH2 0x3862 JUMP JUMPDEST PUSH0 DUP2 PUSH1 0xC0 ADD MLOAD PUSH1 0x2 DUP2 GT ISZERO PUSH2 0x13BE JUMPI PUSH2 0x13BE PUSH2 0x3286 JUMP JUMPDEST EQ DUP1 ISZERO PUSH2 0x13D0 JUMPI POP DUP1 PUSH2 0x120 ADD MLOAD TIMESTAMP LT ISZERO JUMPDEST SWAP4 SWAP3 POP POP POP JUMP JUMPDEST CALLER ADDRESS EQ PUSH2 0x1416 JUMPI PUSH1 0x40 MLOAD PUSH3 0x461BCD PUSH1 0xE5 SHL DUP2 MSTORE PUSH1 0x20 PUSH1 0x4 DUP3 ADD MSTORE PUSH1 0xD PUSH1 0x24 DUP3 ADD MSTORE PUSH13 0x494E5445524E414C5F4F4E4C59 PUSH1 0x98 SHL PUSH1 0x44 DUP3 ADD MSTORE PUSH1 0x64 ADD PUSH2 0xA8D JUMP JUMPDEST PUSH2 0x1420 DUP3 DUP3 PUSH2 0x29E0 JUMP JUMPDEST POP POP JUMP JUMPDEST PUSH1 0x40 DUP1 MLOAD PUSH2 0x120 DUP2 ADD DUP3 MSTORE PUSH0 DUP1 DUP3 MSTORE PUSH1 0x20 DUP3 ADD DUP2 SWAP1 MSTORE SWAP2 DUP2 ADD DUP3 SWAP1 MSTORE PUSH1 0x60 DUP1 DUP3 ADD DUP4 SWAP1 MSTORE PUSH1 0x80 DUP3 ADD DUP4 SWAP1 MSTORE PUSH1 0xA0 DUP3 ADD DUP4 SWAP1 MSTORE PUSH1 0xC0 DUP3 ADD DUP4 SWAP1 MSTORE PUSH1 0xE0 DUP3 ADD SWAP3 SWAP1 SWAP3 MSTORE PUSH2 0x100 DUP2 ADD SWAP2 SWAP1 SWAP2 MSTORE PUSH0 DUP3 DUP2 MSTORE PUSH1 0xE PUSH1 0x20 SWAP1 DUP2 MSTORE PUSH1 0x40 SWAP2 DUP3 SWAP1 KECCAK256 DUP3 MLOAD PUSH2 0x120 DUP2 ADD DUP5 MSTORE DUP2 SLOAD DUP2 MSTORE PUSH1 0x1 DUP3 ADD SLOAD PUSH1 0x1 PUSH1 0x1 PUSH1 0xA0 SHL SUB SWAP1 DUP2 AND SWAP4 DUP3 ADD SWAP4 SWAP1 SWAP4 MSTORE PUSH1 0x2 DUP3 ADD SLOAD SWAP4 DUP2 ADD SWAP4 SWAP1 SWAP4 MSTORE PUSH1 0x3 DUP2 ADD SLOAD SWAP1 SWAP2 AND PUSH1 0x60 DUP4 ADD MSTORE PUSH1 0x4 DUP2 ADD SLOAD PUSH1 0x80 DUP4 ADD MSTORE PUSH1 0x5 DUP2 ADD SLOAD PUSH1 0xA0 DUP4 ADD MSTORE PUSH1 0x6 DUP2 ADD SLOAD PUSH1 0xC0 DUP4 ADD MSTORE PUSH1 0x7 DUP2 ADD SLOAD PUSH1 0xE0 DUP4 ADD MSTORE PUSH1 0x8 DUP2 ADD DUP1 SLOAD PUSH2 0x100 DUP5 ADD SWAP2 SWAP1 PUSH2 0x14FA SWAP1 PUSH2 0x36B9 JUMP JUMPDEST DUP1 PUSH1 0x1F ADD PUSH1 0x20 DUP1 SWAP2 DIV MUL PUSH1 0x20 ADD PUSH1 0x40 MLOAD SWAP1 DUP2 ADD PUSH1 0x40 MSTORE DUP1 SWAP3 SWAP2 SWAP1 DUP2 DUP2 MSTORE PUSH1 0x20 ADD DUP3 DUP1 SLOAD PUSH2 0x1526 SWAP1 PUSH2 0x36B9 JUMP JUMPDEST DUP1 ISZERO PUSH2 0x1571 JUMPI DUP1 PUSH1 0x1F LT PUSH2 0x1548 JUMPI PUSH2 0x100 DUP1 DUP4 SLOAD DIV MUL DUP4 MSTORE SWAP2 PUSH1 0x20 ADD SWAP2 PUSH2 0x1571 JUMP JUMPDEST DUP3 ADD SWAP2 SWAP1 PUSH0 MSTORE PUSH1 0x20 PUSH0 KECCAK256 SWAP1 JUMPDEST DUP2 SLOAD DUP2 MSTORE SWAP1 PUSH1 0x1 ADD SWAP1 PUSH1 0x20 ADD DUP1 DUP4 GT PUSH2 0x1554 JUMPI DUP3 SWAP1 SUB PUSH1 0x1F AND DUP3 ADD SWAP2 JUMPDEST POP POP POP POP POP DUP2 MSTORE POP POP SWAP1 POP SWAP2 SWAP1 POP JUMP JUMPDEST PUSH0 SLOAD PUSH1 0x1 PUSH1 0x1 PUSH1 0xA0 SHL SUB AND CALLER EQ PUSH2 0x15AA JUMPI PUSH1 0x40 MLOAD PUSH3 0x461BCD PUSH1 0xE5 SHL DUP2 MSTORE PUSH1 0x4 ADD PUSH2 0xA8D SWAP1 PUSH2 0x383C JUMP JUMPDEST PUSH0 DUP3 DUP2 MSTORE PUSH1 0x6 PUSH1 0x20 MSTORE PUSH1 0x40 DUP2 KECCAK256 PUSH1 0x5 ADD SLOAD DUP4 SWAP2 SUB PUSH2 0x15DA JUMPI PUSH1 0x40 MLOAD PUSH3 0x461BCD PUSH1 0xE5 SHL DUP2 MSTORE PUSH1 0x4 ADD PUSH2 0xA8D SWAP1 PUSH2 0x39EF JUMP JUMPDEST PUSH2 0x1F4 DUP3 GT ISZERO PUSH2 0x161B JUMPI PUSH1 0x40 MLOAD PUSH3 0x461BCD PUSH1 0xE5 SHL DUP2 MSTORE PUSH1 0x20 PUSH1 0x4 DUP3 ADD MSTORE PUSH1 0xC PUSH1 0x24 DUP3 ADD MSTORE PUSH12 0x8C8A8ABEA89E9EBE90928E9 PUSH1 0xA3 SHL PUSH1 0x44 DUP3 ADD MSTORE PUSH1 0x64 ADD PUSH2 0xA8D JUMP JUMPDEST PUSH0 DUP4 DUP2 MSTORE PUSH1 0x6 PUSH1 0x20 MSTORE PUSH1 0x40 SWAP1 DUP2 SWAP1 KECCAK256 PUSH1 0x4 ADD DUP4 SWAP1 SSTORE MLOAD DUP4 SWAP1 PUSH32 0xB796DDA41A95E209DD5EA1CEE4F66274A27A7A83048F374E4230AC61C750D815 SWAP1 PUSH2 0x1662 SWAP1 DUP6 DUP2 MSTORE PUSH1 0x20 ADD SWAP1 JUMP JUMPDEST PUSH1 0x40 MLOAD DUP1 SWAP2 SUB SWAP1 LOG2 POP POP POP JUMP JUMPDEST PUSH0 SLOAD PUSH1 0x1 PUSH1 0x1 PUSH1 0xA0 SHL SUB AND CALLER EQ PUSH2 0x1698 JUMPI PUSH1 0x40 MLOAD PUSH3 0x461BCD PUSH1 0xE5 SHL DUP2 MSTORE PUSH1 0x4 ADD PUSH2 0xA8D SWAP1 PUSH2 0x383C JUMP JUMPDEST PUSH2 0x1F4 DUP2 GT ISZERO PUSH2 0x16D9 JUMPI PUSH1 0x40 MLOAD PUSH3 0x461BCD PUSH1 0xE5 SHL DUP2 MSTORE PUSH1 0x20 PUSH1 0x4 DUP3 ADD MSTORE PUSH1 0xC PUSH1 0x24 DUP3 ADD MSTORE PUSH12 0x8C8A8ABEA89E9EBE90928E9 PUSH1 0xA3 SHL PUSH1 0x44 DUP3 ADD MSTORE PUSH1 0x64 ADD PUSH2 0xA8D JUMP JUMPDEST PUSH1 0x4 DUP2 SWAP1 SSTORE PUSH1 0x40 MLOAD DUP2 DUP2 MSTORE PUSH32 0x8C4D35E54A3F2EF1134138FD8EA3DAEE6A3C89E10D2665996BABDF70261E2C76 SWAP1 PUSH1 0x20 ADD PUSH1 0x40 MLOAD DUP1 SWAP2 SUB SWAP1 LOG1 POP JUMP JUMPDEST PUSH1 0x2 SLOAD PUSH1 0x1 PUSH1 0x1 PUSH1 0xA0 SHL SUB AND CALLER EQ PUSH2 0x173E JUMPI PUSH1 0x40 MLOAD PUSH3 0x461BCD PUSH1 0xE5 SHL DUP2 MSTORE PUSH1 0x4 ADD PUSH2 0xA8D SWAP1 PUSH2 0x383C JUMP JUMPDEST PUSH1 0x2 DUP1 SLOAD PUSH0 DUP1 SLOAD PUSH1 0x1 PUSH1 0x1 PUSH1 0xA0 SHL SUB NOT SWAP1 DUP2 AND PUSH1 0x1 PUSH1 0x1 PUSH1 0xA0 SHL SUB DUP5 AND OR SWAP1 SWAP2 SSTORE AND SWAP1 SSTORE JUMP JUMPDEST PUSH0 DUP3 DUP2 MSTORE PUSH1 0x9 PUSH1 0x20 MSTORE PUSH1 0x40 SWAP1 KECCAK256 DUP1 SLOAD PUSH2 0x178F JUMPI PUSH1 0x40 MLOAD PUSH3 0x461BCD PUSH1 0xE5 SHL DUP2 MSTORE PUSH1 0x4 ADD PUSH2 0xA8D SWAP1 PUSH2 0x3862 JUMP JUMPDEST PUSH1 0x1 DUP2 ADD SLOAD PUSH1 0x1 PUSH1 0x1 PUSH1 0xA0 SHL SUB AND CALLER EQ PUSH2 0x17BB JUMPI PUSH1 0x40 MLOAD PUSH3 0x461BCD PUSH1 0xE5 SHL DUP2 MSTORE PUSH1 0x4 ADD PUSH2 0xA8D SWAP1 PUSH2 0x383C JUMP JUMPDEST PUSH0 DUP3 GT PUSH2 0x17DA JUMPI PUSH1 0x40 MLOAD PUSH3 0x461BCD PUSH1 0xE5 SHL DUP2 MSTORE PUSH1 0x4 ADD PUSH2 0xA8D SWAP1 PUSH2 0x38A0 JUMP JUMPDEST PUSH1 0x4 ADD SSTORE POP JUMP JUMPDEST PUSH0 DUP2 DUP2 MSTORE PUSH1 0x6 PUSH1 0x20 MSTORE PUSH1 0x40 SWAP1 KECCAK256 DUP1 SLOAD PUSH1 0x1 PUSH1 0x1 PUSH1 0xA0 SHL SUB AND CALLER EQ PUSH2 0x1817 JUMPI PUSH1 0x40 MLOAD PUSH3 0x461BCD PUSH1 0xE5 SHL DUP2 MSTORE PUSH1 0x4 ADD PUSH2 0xA8D SWAP1 PUSH2 0x383C JUMP JUMPDEST PUSH0 DUP3 DUP2 MSTORE PUSH1 0x5 PUSH1 0x20 MSTORE PUSH1 0x40 SWAP1 KECCAK256 SLOAD PUSH1 0x1 PUSH1 0x1 PUSH1 0xA0 SHL SUB AND PUSH2 0x186E JUMPI PUSH1 0x40 MLOAD PUSH3 0x461BCD PUSH1 0xE5 SHL DUP2 MSTORE PUSH1 0x20 PUSH1 0x4 DUP3 ADD MSTORE PUSH1 0x11 PUSH1 0x24 DUP3 ADD MSTORE PUSH17 0x1393D7D4115391125391D7D5D053131155 PUSH1 0x7A SHL PUSH1 0x44 DUP3 ADD MSTORE PUSH1 0x64 ADD PUSH2 0xA8D JUMP JUMPDEST PUSH0 DUP3 DUP2 MSTORE PUSH1 0x5 PUSH1 0x20 MSTORE PUSH1 0x40 DUP1 DUP3 KECCAK256 DUP1 SLOAD PUSH1 0x1 PUSH1 0x1 PUSH1 0xA0 SHL SUB NOT AND SWAP1 SSTORE MLOAD DUP4 SWAP2 PUSH32 0x8BAB6B20BD4E5154845B93B3F70C86685EAECB5130CC92ABAFE2373A0F0EFE42 SWAP2 LOG2 POP POP JUMP JUMPDEST PUSH2 0x18BC PUSH2 0x27EF JUMP JUMPDEST PUSH0 DUP3 DUP2 MSTORE PUSH1 0x9 PUSH1 0x20 MSTORE PUSH1 0x40 SWAP1 KECCAK256 DUP1 SLOAD PUSH2 0x18E7 JUMPI PUSH1 0x40 MLOAD PUSH3 0x461BCD PUSH1 0xE5 SHL DUP2 MSTORE PUSH1 0x4 ADD PUSH2 0xA8D SWAP1 PUSH2 0x3862 JUMP JUMPDEST PUSH0 PUSH1 0x5 DUP3 ADD SLOAD PUSH2 0x100 SWAP1 DIV PUSH1 0xFF AND PUSH1 0x2 DUP2 GT ISZERO PUSH2 0x1906 JUMPI PUSH2 0x1906 PUSH2 0x3286 JUMP JUMPDEST EQ PUSH2 0x1953 JUMPI PUSH1 0x40 MLOAD PUSH3 0x461BCD PUSH1 0xE5 SHL DUP2 MSTORE PUSH1 0x20 PUSH1 0x4 DUP3 ADD MSTORE PUSH1 0x17 PUSH1 0x24 DUP3 ADD MSTORE PUSH32 0x535542534352495054494F4E5F4E4F545F414354495645000000000000000000 PUSH1 0x44 DUP3 ADD MSTORE PUSH1 0x64 ADD PUSH2 0xA8D JUMP JUMPDEST DUP1 PUSH1 0x8 ADD SLOAD TIMESTAMP LT ISZERO PUSH2 0x199E JUMPI PUSH1 0x40 MLOAD PUSH3 0x461BCD PUSH1 0xE5 SHL DUP2 MSTORE PUSH1 0x20 PUSH1 0x4 DUP3 ADD MSTORE PUSH1 0x14 PUSH1 0x24 DUP3 ADD MSTORE PUSH20 0x535542534352495054494F4E5F4E4F545F445545 PUSH1 0x60 SHL PUSH1 0x44 DUP3 ADD MSTORE PUSH1 0x64 ADD PUSH2 0xA8D JUMP JUMPDEST PUSH2 0x19A8 DUP4 DUP4 PUSH2 0x29E0 JUMP JUMPDEST POP PUSH2 0x1420 PUSH1 0x1 PUSH0 DUP1 MLOAD PUSH1 0x20 PUSH2 0x3ADD DUP4 CODECOPY DUP2 MLOAD SWAP2 MSTORE SSTORE JUMP JUMPDEST PUSH0 DUP2 DUP2 MSTORE PUSH1 0x6 PUSH1 0x20 MSTORE PUSH1 0x40 DUP2 KECCAK256 PUSH1 0x5 ADD SLOAD DUP3 SWAP1 DUP3 SUB PUSH2 0x19F0 JUMPI PUSH1 0x40 MLOAD PUSH3 0x461BCD PUSH1 0xE5 SHL DUP2 MSTORE PUSH1 0x4 ADD PUSH2 0xA8D SWAP1 PUSH2 0x39EF JUMP JUMPDEST PUSH0 DUP4 DUP2 MSTORE PUSH1 0x6 PUSH1 0x20 MSTORE PUSH1 0x40 SWAP1 KECCAK256 PUSH1 0x4 ADD SLOAD DUP1 PUSH2 0x1A0E JUMPI PUSH1 0x4 SLOAD PUSH2 0x1A10 JUMP JUMPDEST DUP1 JUMPDEST SWAP3 POP POP JUMPDEST POP SWAP2 SWAP1 POP JUMP JUMPDEST PUSH0 DUP1 SLOAD PUSH1 0x1 PUSH1 0x1 PUSH1 0xA0 SHL SUB AND CALLER EQ PUSH2 0x1A44 JUMPI PUSH1 0x40 MLOAD PUSH3 0x461BCD PUSH1 0xE5 SHL DUP2 MSTORE PUSH1 0x4 ADD PUSH2 0xA8D SWAP1 PUSH2 0x383C JUMP JUMPDEST PUSH1 0x1 PUSH1 0x1 PUSH1 0xA0 SHL SUB DUP5 AND PUSH2 0x1A8B JUMPI PUSH1 0x40 MLOAD PUSH3 0x461BCD PUSH1 0xE5 SHL DUP2 MSTORE PUSH1 0x20 PUSH1 0x4 DUP3 ADD MSTORE PUSH1 0xE PUSH1 0x24 DUP3 ADD MSTORE PUSH14 0x1253959053125117D5D053131155 PUSH1 0x92 SHL PUSH1 0x44 DUP3 ADD MSTORE PUSH1 0x64 ADD PUSH2 0xA8D JUMP JUMPDEST DUP2 PUSH2 0x1AC7 JUMPI PUSH1 0x40 MLOAD PUSH3 0x461BCD PUSH1 0xE5 SHL DUP2 MSTORE PUSH1 0x20 PUSH1 0x4 DUP3 ADD MSTORE PUSH1 0xC PUSH1 0x24 DUP3 ADD MSTORE PUSH12 0x494E56414C49445F4E414D45 PUSH1 0xA0 SHL PUSH1 0x44 DUP3 ADD MSTORE PUSH1 0x64 ADD PUSH2 0xA8D JUMP JUMPDEST PUSH1 0x1 PUSH1 0x1 PUSH1 0xA0 SHL SUB DUP5 AND PUSH0 SWAP1 DUP2 MSTORE PUSH1 0x7 PUSH1 0x20 MSTORE PUSH1 0x40 SWAP1 KECCAK256 SLOAD ISZERO PUSH2 0x1B28 JUMPI PUSH1 0x40 MLOAD PUSH3 0x461BCD PUSH1 0xE5 SHL DUP2 MSTORE PUSH1 0x20 PUSH1 0x4 DUP3 ADD MSTORE PUSH1 0x19 PUSH1 0x24 DUP3 ADD MSTORE PUSH25 0x15D05313115517D053149150511657D49151D254D511549151 PUSH1 0x3A SHL PUSH1 0x44 DUP3 ADD MSTORE PUSH1 0x64 ADD PUSH2 0xA8D JUMP JUMPDEST PUSH1 0x8 DUP1 SLOAD SWAP1 PUSH0 PUSH2 0x1B37 DUP4 PUSH2 0x3824 JUMP JUMPDEST SWAP2 SWAP1 POP SSTORE POP DUP4 DUP4 DUP4 TIMESTAMP PUSH1 0x8 SLOAD PUSH1 0x40 MLOAD PUSH1 0x20 ADD PUSH2 0x1B57 SWAP6 SWAP5 SWAP4 SWAP3 SWAP2 SWAP1 PUSH2 0x3A1B JUMP JUMPDEST PUSH1 0x40 MLOAD PUSH1 0x20 DUP2 DUP4 SUB SUB DUP2 MSTORE SWAP1 PUSH1 0x40 MSTORE DUP1 MLOAD SWAP1 PUSH1 0x20 ADD KECCAK256 SWAP1 POP PUSH1 0x40 MLOAD DUP1 PUSH1 0xC0 ADD PUSH1 0x40 MSTORE DUP1 DUP6 PUSH1 0x1 PUSH1 0x1 PUSH1 0xA0 SHL SUB AND DUP2 MSTORE PUSH1 0x20 ADD DUP5 DUP5 DUP1 DUP1 PUSH1 0x1F ADD PUSH1 0x20 DUP1 SWAP2 DIV MUL PUSH1 0x20 ADD PUSH1 0x40 MLOAD SWAP1 DUP2 ADD PUSH1 0x40 MSTORE DUP1 SWAP4 SWAP3 SWAP2 SWAP1 DUP2 DUP2 MSTORE PUSH1 0x20 ADD DUP4 DUP4 DUP1 DUP3 DUP5 CALLDATACOPY PUSH0 SWAP3 ADD DUP3 SWAP1 MSTORE POP SWAP4 DUP6 MSTORE POP POP PUSH1 0x1 PUSH1 0x20 DUP1 DUP6 ADD DUP3 SWAP1 MSTORE PUSH1 0x40 DUP1 DUP7 ADD DUP6 SWAP1 MSTORE PUSH1 0x60 DUP7 ADD DUP6 SWAP1 MSTORE TIMESTAMP PUSH1 0x80 SWAP1 SWAP7 ADD SWAP6 SWAP1 SWAP6 MSTORE DUP7 DUP5 MSTORE PUSH1 0x6 DUP2 MSTORE SWAP4 SWAP1 SWAP3 KECCAK256 DUP5 MLOAD DUP2 SLOAD PUSH1 0x1 PUSH1 0x1 PUSH1 0xA0 SHL SUB NOT AND PUSH1 0x1 PUSH1 0x1 PUSH1 0xA0 SHL SUB SWAP1 SWAP2 AND OR DUP2 SSTORE SWAP3 DUP5 ADD MLOAD SWAP2 DUP4 ADD SWAP2 PUSH2 0x1C1C SWAP2 POP DUP3 PUSH2 0x3920 JUMP JUMPDEST POP PUSH1 0x40 DUP3 DUP2 ADD MLOAD PUSH1 0x2 DUP4 ADD DUP1 SLOAD PUSH1 0xFF NOT AND SWAP2 ISZERO ISZERO SWAP2 SWAP1 SWAP2 OR SWAP1 SSTORE PUSH1 0x60 DUP4 ADD MLOAD PUSH1 0x3 DUP4 ADD SSTORE PUSH1 0x80 DUP4 ADD MLOAD PUSH1 0x4 DUP4 ADD SSTORE PUSH1 0xA0 SWAP1 SWAP3 ADD MLOAD PUSH1 0x5 SWAP1 SWAP2 ADD SSTORE PUSH1 0x1 PUSH1 0x1 PUSH1 0xA0 SHL SUB DUP6 AND PUSH0 DUP2 DUP2 MSTORE PUSH1 0x7 PUSH1 0x20 MSTORE DUP3 SWAP1 KECCAK256 DUP4 SWAP1 SSTORE SWAP1 MLOAD DUP3 SWAP1 PUSH32 0xEA9569940409313529DE09D9E1094900C5552CD487BD94DB071BC2D0A662FE8B SWAP1 PUSH2 0x1CA2 SWAP1 DUP8 SWAP1 DUP8 SWAP1 PUSH2 0x3A50 JUMP JUMPDEST PUSH1 0x40 MLOAD DUP1 SWAP2 SUB SWAP1 LOG3 SWAP4 SWAP3 POP POP POP JUMP JUMPDEST PUSH0 SLOAD PUSH1 0x1 PUSH1 0x1 PUSH1 0xA0 SHL SUB AND CALLER EQ PUSH2 0x1CDA JUMPI PUSH1 0x40 MLOAD PUSH3 0x461BCD PUSH1 0xE5 SHL DUP2 MSTORE PUSH1 0x4 ADD PUSH2 0xA8D SWAP1 PUSH2 0x383C JUMP JUMPDEST PUSH1 0x1 PUSH1 0x1 PUSH1 0xA0 SHL SUB DUP2 AND PUSH2 0x1D22 JUMPI PUSH1 0x40 MLOAD PUSH3 0x461BCD PUSH1 0xE5 SHL DUP2 MSTORE PUSH1 0x20 PUSH1 0x4 DUP3 ADD MSTORE PUSH1 0xF PUSH1 0x24 DUP3 ADD MSTORE PUSH15 0x494E56414C49445F41444452455353 PUSH1 0x88 SHL PUSH1 0x44 DUP3 ADD MSTORE PUSH1 0x64 ADD PUSH2 0xA8D JUMP JUMPDEST PUSH1 0x1 DUP1 SLOAD PUSH1 0x1 PUSH1 0x1 PUSH1 0xA0 SHL SUB NOT AND PUSH1 0x1 PUSH1 0x1 PUSH1 0xA0 SHL SUB SWAP3 SWAP1 SWAP3 AND SWAP2 SWAP1 SWAP2 OR SWAP1 SSTORE JUMP JUMPDEST PUSH0 PUSH1 0x1 PUSH1 0x1 PUSH1 0xA0 SHL SUB DUP5 AND PUSH2 0x1D8C JUMPI PUSH1 0x40 MLOAD PUSH3 0x461BCD PUSH1 0xE5 SHL DUP2 MSTORE PUSH1 0x20 PUSH1 0x4 DUP3 ADD MSTORE PUSH1 0xE PUSH1 0x24 DUP3 ADD MSTORE PUSH14 0x1253959053125117D5D053131155 PUSH1 0x92 SHL PUSH1 0x44 DUP3 ADD MSTORE PUSH1 0x64 ADD PUSH2 0xA8D JUMP JUMPDEST CALLER PUSH1 0x1 PUSH1 0x1 PUSH1 0xA0 SHL SUB DUP6 AND EQ PUSH2 0x1A8B JUMPI PUSH1 0x40 MLOAD PUSH3 0x461BCD PUSH1 0xE5 SHL DUP2 MSTORE PUSH1 0x20 PUSH1 0x4 DUP3 ADD MSTORE PUSH1 0x12 PUSH1 0x24 DUP3 ADD MSTORE PUSH18 0x26AAA9AA2FA922A3A4A9AA22A92FA9A2A623 PUSH1 0x71 SHL PUSH1 0x44 DUP3 ADD MSTORE PUSH1 0x64 ADD PUSH2 0xA8D JUMP JUMPDEST PUSH1 0xA PUSH1 0x20 MSTORE DUP2 PUSH0 MSTORE PUSH1 0x40 PUSH0 KECCAK256 DUP2 DUP2 SLOAD DUP2 LT PUSH2 0x11C1 JUMPI PUSH0 DUP1 REVERT JUMPDEST PUSH0 DUP2 DUP2 MSTORE PUSH1 0x9 PUSH1 0x20 MSTORE PUSH1 0x40 SWAP1 KECCAK256 DUP1 SLOAD PUSH2 0x1E1D JUMPI PUSH1 0x40 MLOAD PUSH3 0x461BCD PUSH1 0xE5 SHL DUP2 MSTORE PUSH1 0x4 ADD PUSH2 0xA8D SWAP1 PUSH2 0x3862 JUMP JUMPDEST PUSH1 0x1 DUP2 ADD SLOAD PUSH1 0x1 PUSH1 0x1 PUSH1 0xA0 SHL SUB AND CALLER EQ PUSH2 0x1E49 JUMPI PUSH1 0x40 MLOAD PUSH3 0x461BCD PUSH1 0xE5 SHL DUP2 MSTORE PUSH1 0x4 ADD PUSH2 0xA8D SWAP1 PUSH2 0x383C JUMP JUMPDEST PUSH0 PUSH1 0x5 DUP3 ADD SLOAD PUSH2 0x100 SWAP1 DIV PUSH1 0xFF AND PUSH1 0x2 DUP2 GT ISZERO PUSH2 0x1E68 JUMPI PUSH2 0x1E68 PUSH2 0x3286 JUMP JUMPDEST EQ PUSH2 0x1EA2 JUMPI PUSH1 0x40 MLOAD PUSH3 0x461BCD PUSH1 0xE5 SHL DUP2 MSTORE PUSH1 0x20 PUSH1 0x4 DUP3 ADD MSTORE PUSH1 0xA PUSH1 0x24 DUP3 ADD MSTORE PUSH10 0x4E4F545F414354495645 PUSH1 0xB0 SHL PUSH1 0x44 DUP3 ADD MSTORE PUSH1 0x64 ADD PUSH2 0xA8D JUMP JUMPDEST PUSH1 0x5 DUP2 ADD DUP1 SLOAD PUSH2 0xFF00 NOT AND PUSH2 0x100 OR SWAP1 SSTORE PUSH1 0x40 MLOAD DUP3 SWAP1 PUSH32 0x533A5D00496F7FBD387ECAA9AED7A2DA5858B198F3851D647D2C035E5259C338 SWAP1 PUSH2 0xD14 SWAP1 PUSH1 0x1 SWAP1 PUSH2 0x3892 JUMP JUMPDEST PUSH0 DUP2 DUP2 MSTORE PUSH1 0x9 PUSH1 0x20 MSTORE PUSH1 0x40 SWAP1 KECCAK256 DUP1 SLOAD PUSH2 0x1F11 JUMPI PUSH1 0x40 MLOAD PUSH3 0x461BCD PUSH1 0xE5 SHL DUP2 MSTORE PUSH1 0x4 ADD PUSH2 0xA8D SWAP1 PUSH2 0x3862 JUMP JUMPDEST PUSH1 0x2 PUSH1 0x5 DUP3 ADD SLOAD PUSH2 0x100 SWAP1 DIV PUSH1 0xFF AND PUSH1 0x2 DUP2 GT ISZERO PUSH2 0x1F31 JUMPI PUSH2 0x1F31 PUSH2 0x3286 JUMP JUMPDEST SUB PUSH2 0x1F72 JUMPI PUSH1 0x40 MLOAD PUSH3 0x461BCD PUSH1 0xE5 SHL DUP2 MSTORE PUSH1 0x20 PUSH1 0x4 DUP3 ADD MSTORE PUSH1 0x11 PUSH1 0x24 DUP3 ADD MSTORE PUSH17 0x1053149150511657D0D05390D153131151 PUSH1 0x7A SHL PUSH1 0x44 DUP3 ADD MSTORE PUSH1 0x64 ADD PUSH2 0xA8D JUMP JUMPDEST PUSH1 0x2 DUP2 ADD SLOAD PUSH0 SWAP1 DUP2 MSTORE PUSH1 0x6 PUSH1 0x20 MSTORE PUSH1 0x40 SWAP1 KECCAK256 PUSH1 0x1 DUP3 ADD SLOAD PUSH1 0x1 PUSH1 0x1 PUSH1 0xA0 SHL SUB AND CALLER EQ DUP1 PUSH2 0x1FA8 JUMPI POP DUP1 SLOAD PUSH1 0x1 PUSH1 0x1 PUSH1 0xA0 SHL SUB AND CALLER EQ JUMPDEST DUP1 PUSH2 0x1FBC JUMPI POP PUSH0 SLOAD PUSH1 0x1 PUSH1 0x1 PUSH1 0xA0 SHL SUB AND CALLER EQ JUMPDEST PUSH2 0x1FD8 JUMPI PUSH1 0x40 MLOAD PUSH3 0x461BCD PUSH1 0xE5 SHL DUP2 MSTORE PUSH1 0x4 ADD PUSH2 0xA8D SWAP1 PUSH2 0x383C JUMP JUMPDEST PUSH1 0x5 DUP3 ADD DUP1 SLOAD PUSH2 0xFF00 NOT AND PUSH2 0x200 OR SWAP1 SSTORE PUSH1 0x40 MLOAD DUP4 SWAP1 PUSH32 0x533A5D00496F7FBD387ECAA9AED7A2DA5858B198F3851D647D2C035E5259C338 SWAP1 PUSH2 0x201C SWAP1 PUSH1 0x2 SWAP1 PUSH2 0x3892 JUMP JUMPDEST PUSH1 0x40 MLOAD DUP1 SWAP2 SUB SWAP1 LOG2 PUSH2 0xA34 DUP4 PUSH2 0x2CE2 JUMP JUMPDEST PUSH2 0x206C PUSH1 0x40 MLOAD DUP1 PUSH1 0xC0 ADD PUSH1 0x40 MSTORE DUP1 PUSH0 PUSH1 0x1 PUSH1 0x1 PUSH1 0xA0 SHL SUB AND DUP2 MSTORE PUSH1 0x20 ADD PUSH1 0x60 DUP2 MSTORE PUSH1 0x20 ADD PUSH0 ISZERO ISZERO DUP2 MSTORE PUSH1 0x20 ADD PUSH0 DUP2 MSTORE PUSH1 0x20 ADD PUSH0 DUP2 MSTORE PUSH1 0x20 ADD PUSH0 DUP2 MSTORE POP SWAP1 JUMP JUMPDEST PUSH0 DUP3 DUP2 MSTORE PUSH1 0x6 PUSH1 0x20 MSTORE PUSH1 0x40 DUP2 KECCAK256 PUSH1 0x5 ADD SLOAD SWAP1 SUB PUSH2 0x209B JUMPI PUSH1 0x40 MLOAD PUSH3 0x461BCD PUSH1 0xE5 SHL DUP2 MSTORE PUSH1 0x4 ADD PUSH2 0xA8D SWAP1 PUSH2 0x39EF JUMP JUMPDEST PUSH0 DUP3 DUP2 MSTORE PUSH1 0x6 PUSH1 0x20 SWAP1 DUP2 MSTORE PUSH1 0x40 SWAP2 DUP3 SWAP1 KECCAK256 DUP3 MLOAD PUSH1 0xC0 DUP2 ADD SWAP1 SWAP4 MSTORE DUP1 SLOAD PUSH1 0x1 PUSH1 0x1 PUSH1 0xA0 SHL SUB AND DUP4 MSTORE PUSH1 0x1 DUP2 ADD DUP1 SLOAD SWAP2 SWAP3 DUP5 ADD SWAP2 PUSH2 0x20D6 SWAP1 PUSH2 0x36B9 JUMP JUMPDEST DUP1 PUSH1 0x1F ADD PUSH1 0x20 DUP1 SWAP2 DIV MUL PUSH1 0x20 ADD PUSH1 0x40 MLOAD SWAP1 DUP2 ADD PUSH1 0x40 MSTORE DUP1 SWAP3 SWAP2 SWAP1 DUP2 DUP2 MSTORE PUSH1 0x20 ADD DUP3 DUP1 SLOAD PUSH2 0x2102 SWAP1 PUSH2 0x36B9 JUMP JUMPDEST DUP1 ISZERO PUSH2 0x214D JUMPI DUP1 PUSH1 0x1F LT PUSH2 0x2124 JUMPI PUSH2 0x100 DUP1 DUP4 SLOAD DIV MUL DUP4 MSTORE SWAP2 PUSH1 0x20 ADD SWAP2 PUSH2 0x214D JUMP JUMPDEST DUP3 ADD SWAP2 SWAP1 PUSH0 MSTORE PUSH1 0x20 PUSH0 KECCAK256 SWAP1 JUMPDEST DUP2 SLOAD DUP2 MSTORE SWAP1 PUSH1 0x1 ADD SWAP1 PUSH1 0x20 ADD DUP1 DUP4 GT PUSH2 0x2130 JUMPI DUP3 SWAP1 SUB PUSH1 0x1F AND DUP3 ADD SWAP2 JUMPDEST POP POP POP SWAP2 DUP4 MSTORE POP POP PUSH1 0x2 DUP3 ADD SLOAD PUSH1 0xFF AND ISZERO ISZERO PUSH1 0x20 DUP3 ADD MSTORE PUSH1 0x3 DUP3 ADD SLOAD PUSH1 0x40 DUP3 ADD MSTORE PUSH1 0x4 DUP3 ADD SLOAD PUSH1 0x60 DUP3 ADD MSTORE PUSH1 0x5 SWAP1 SWAP2 ADD SLOAD PUSH1 0x80 SWAP1 SWAP2 ADD MSTORE SWAP3 SWAP2 POP POP JUMP JUMPDEST PUSH0 SLOAD PUSH1 0x1 PUSH1 0x1 PUSH1 0xA0 SHL SUB AND CALLER EQ PUSH2 0x21B3 JUMPI PUSH1 0x40 MLOAD PUSH3 0x461BCD PUSH1 0xE5 SHL DUP2 MSTORE PUSH1 0x4 ADD PUSH2 0xA8D SWAP1 PUSH2 0x383C JUMP JUMPDEST PUSH1 0x1 PUSH1 0x1 PUSH1 0xA0 SHL SUB DUP3 AND PUSH2 0x21F9 JUMPI PUSH1 0x40 MLOAD PUSH3 0x461BCD PUSH1 0xE5 SHL DUP2 MSTORE PUSH1 0x20 PUSH1 0x4 DUP3 ADD MSTORE PUSH1 0xD PUSH1 0x24 DUP3 ADD MSTORE PUSH13 0x24A72B20A624A22FAA27A5A2A7 PUSH1 0x99 SHL PUSH1 0x44 DUP3 ADD MSTORE PUSH1 0x64 ADD PUSH2 0xA8D JUMP JUMPDEST PUSH1 0x1 PUSH1 0x1 PUSH1 0xA0 SHL SUB DUP3 AND PUSH0 DUP2 DUP2 MSTORE PUSH1 0x3 PUSH1 0x20 SWAP1 DUP2 MSTORE PUSH1 0x40 SWAP2 DUP3 SWAP1 KECCAK256 DUP1 SLOAD PUSH1 0xFF NOT AND DUP6 ISZERO ISZERO SWAP1 DUP2 OR SWAP1 SWAP2 SSTORE SWAP2 MLOAD SWAP2 DUP3 MSTORE PUSH32 0xD86C88B4A367D9B81A6E00C9D3F7D01657BFFEF358FA8968C91C045AE99F0D52 SWAP2 ADD PUSH2 0xD14 JUMP JUMPDEST PUSH0 SLOAD PUSH1 0x1 PUSH1 0x1 PUSH1 0xA0 SHL SUB AND CALLER EQ PUSH2 0x2279 JUMPI PUSH1 0x40 MLOAD PUSH3 0x461BCD PUSH1 0xE5 SHL DUP2 MSTORE PUSH1 0x4 ADD PUSH2 0xA8D SWAP1 PUSH2 0x383C JUMP JUMPDEST PUSH1 0x1 PUSH1 0x1 PUSH1 0xA0 SHL SUB DUP2 AND PUSH2 0x22C1 JUMPI PUSH1 0x40 MLOAD PUSH3 0x461BCD PUSH1 0xE5 SHL DUP2 MSTORE PUSH1 0x20 PUSH1 0x4 DUP3 ADD MSTORE PUSH1 0xF PUSH1 0x24 DUP3 ADD MSTORE PUSH15 0x494E56414C49445F41444452455353 PUSH1 0x88 SHL PUSH1 0x44 DUP3 ADD MSTORE PUSH1 0x64 ADD PUSH2 0xA8D JUMP JUMPDEST PUSH1 0x2 DUP1 SLOAD PUSH1 0x1 PUSH1 0x1 PUSH1 0xA0 SHL SUB NOT AND PUSH1 0x1 PUSH1 0x1 PUSH1 0xA0 SHL SUB SWAP3 SWAP1 SWAP3 AND SWAP2 SWAP1 SWAP2 OR SWAP1 SSTORE JUMP JUMPDEST PUSH0 PUSH2 0x22EC PUSH2 0x27EF JUMP JUMPDEST PUSH0 DUP7 DUP2 MSTORE PUSH1 0x6 PUSH1 0x20 MSTORE PUSH1 0x40 SWAP1 KECCAK256 PUSH1 0x2 ADD SLOAD DUP7 SWAP1 PUSH1 0xFF AND PUSH2 0x2344 JUMPI PUSH1 0x40 MLOAD PUSH3 0x461BCD PUSH1 0xE5 SHL DUP2 MSTORE PUSH1 0x20 PUSH1 0x4 DUP3 ADD MSTORE PUSH1 0x13 PUSH1 0x24 DUP3 ADD MSTORE PUSH19 0x4D45524348414E545F4E4F545F414354495645 PUSH1 0x68 SHL PUSH1 0x44 DUP3 ADD MSTORE PUSH1 0x64 ADD PUSH2 0xA8D JUMP JUMPDEST PUSH1 0x1 PUSH1 0x1 PUSH1 0xA0 SHL SUB DUP7 AND PUSH0 SWAP1 DUP2 MSTORE PUSH1 0x3 PUSH1 0x20 MSTORE PUSH1 0x40 SWAP1 KECCAK256 SLOAD DUP7 SWAP1 PUSH1 0xFF AND PUSH2 0x23A3 JUMPI PUSH1 0x40 MLOAD PUSH3 0x461BCD PUSH1 0xE5 SHL DUP2 MSTORE PUSH1 0x20 PUSH1 0x4 DUP3 ADD MSTORE PUSH1 0x13 PUSH1 0x24 DUP3 ADD MSTORE PUSH19 0x1513D2D15397D393D517D4D5541413D4951151 PUSH1 0x6A SHL PUSH1 0x44 DUP3 ADD MSTORE PUSH1 0x64 ADD PUSH2 0xA8D JUMP JUMPDEST PUSH0 DUP7 GT PUSH2 0x23C2 JUMPI PUSH1 0x40 MLOAD PUSH3 0x461BCD PUSH1 0xE5 SHL DUP2 MSTORE PUSH1 0x4 ADD PUSH2 0xA8D SWAP1 PUSH2 0x38A0 JUMP JUMPDEST CALLER PUSH0 DUP2 DUP2 MSTORE PUSH1 0xA PUSH1 0x20 SWAP1 DUP2 MSTORE PUSH1 0x40 DUP1 DUP4 KECCAK256 SLOAD SWAP1 MLOAD PUSH1 0x60 SWAP5 SWAP1 SWAP5 SHL PUSH12 0xFFFFFFFFFFFFFFFFFFFFFFFF NOT AND SWAP2 DUP5 ADD SWAP2 SWAP1 SWAP2 MSTORE PUSH1 0x34 DUP4 ADD DUP12 SWAP1 MSTORE PUSH1 0x54 DUP4 ADD DUP10 SWAP1 MSTORE TIMESTAMP PUSH1 0x74 DUP5 ADD MSTORE NUMBER PUSH1 0x94 DUP5 ADD MSTORE PUSH1 0xB4 DUP4 ADD MSTORE SWAP1 PUSH1 0xD4 ADD PUSH1 0x40 MLOAD PUSH1 0x20 DUP2 DUP4 SUB SUB DUP2 MSTORE SWAP1 PUSH1 0x40 MSTORE DUP1 MLOAD SWAP1 PUSH1 0x20 ADD KECCAK256 SWAP1 POP PUSH1 0x40 MLOAD DUP1 PUSH2 0x160 ADD PUSH1 0x40 MSTORE DUP1 DUP3 DUP2 MSTORE PUSH1 0x20 ADD CALLER PUSH1 0x1 PUSH1 0x1 PUSH1 0xA0 SHL SUB AND DUP2 MSTORE PUSH1 0x20 ADD DUP11 DUP2 MSTORE PUSH1 0x20 ADD DUP10 PUSH1 0x1 PUSH1 0x1 PUSH1 0xA0 SHL SUB AND DUP2 MSTORE PUSH1 0x20 ADD DUP9 DUP2 MSTORE PUSH1 0x20 ADD DUP8 PUSH1 0x3 DUP2 GT ISZERO PUSH2 0x247B JUMPI PUSH2 0x247B PUSH2 0x3286 JUMP JUMPDEST DUP2 MSTORE PUSH1 0x20 ADD PUSH0 DUP2 MSTORE PUSH1 0x20 ADD TIMESTAMP DUP2 MSTORE PUSH1 0x20 ADD PUSH0 DUP2 MSTORE PUSH1 0x20 ADD DUP7 PUSH2 0x24A6 JUMPI PUSH2 0x24A1 TIMESTAMP DUP10 PUSH2 0x280D JUMP JUMPDEST PUSH2 0x24A8 JUMP JUMPDEST TIMESTAMP JUMPDEST DUP2 MSTORE PUSH0 PUSH1 0x20 SWAP2 DUP3 ADD DUP2 SWAP1 MSTORE DUP4 DUP2 MSTORE PUSH1 0x9 DUP3 MSTORE PUSH1 0x40 SWAP1 DUP2 SWAP1 KECCAK256 DUP4 MLOAD DUP2 SSTORE SWAP2 DUP4 ADD MLOAD PUSH1 0x1 DUP1 DUP5 ADD DUP1 SLOAD PUSH1 0x1 PUSH1 0x1 PUSH1 0xA0 SHL SUB NOT SWAP1 DUP2 AND PUSH1 0x1 PUSH1 0x1 PUSH1 0xA0 SHL SUB SWAP5 DUP6 AND OR SWAP1 SWAP2 SSTORE SWAP3 DUP6 ADD MLOAD PUSH1 0x2 DUP6 ADD SSTORE PUSH1 0x60 DUP6 ADD MLOAD PUSH1 0x3 DUP1 DUP7 ADD DUP1 SLOAD SWAP1 SWAP6 AND SWAP2 SWAP1 SWAP4 AND OR SWAP1 SWAP3 SSTORE PUSH1 0x80 DUP5 ADD MLOAD PUSH1 0x4 DUP5 ADD SSTORE PUSH1 0xA0 DUP5 ADD MLOAD PUSH1 0x5 DUP5 ADD DUP1 SLOAD SWAP2 SWAP4 SWAP1 SWAP3 PUSH1 0xFF NOT SWAP1 SWAP3 AND SWAP2 DUP5 SWAP1 DUP2 GT ISZERO PUSH2 0x253B JUMPI PUSH2 0x253B PUSH2 0x3286 JUMP JUMPDEST MUL OR SWAP1 SSTORE POP PUSH1 0xC0 DUP3 ADD MLOAD PUSH1 0x5 DUP3 ADD DUP1 SLOAD PUSH2 0xFF00 NOT AND PUSH2 0x100 DUP4 PUSH1 0x2 DUP2 GT ISZERO PUSH2 0x2565 JUMPI PUSH2 0x2565 PUSH2 0x3286 JUMP JUMPDEST MUL OR SWAP1 SSTORE POP PUSH1 0xE0 DUP3 ADD MLOAD PUSH1 0x6 DUP3 ADD SSTORE PUSH2 0x100 DUP3 ADD MLOAD PUSH1 0x7 DUP3 ADD SSTORE PUSH2 0x120 DUP3 ADD MLOAD PUSH1 0x8 DUP3 ADD SSTORE PUSH2 0x140 SWAP1 SWAP2 ADD MLOAD PUSH1 0x9 SWAP1 SWAP2 ADD SSTORE CALLER PUSH0 DUP2 DUP2 MSTORE PUSH1 0xA PUSH1 0x20 SWAP1 DUP2 MSTORE PUSH1 0x40 DUP1 DUP4 KECCAK256 DUP1 SLOAD DUP15 DUP6 MSTORE PUSH1 0xB DUP5 MSTORE DUP3 DUP6 KECCAK256 DUP1 SLOAD PUSH1 0x1 DUP1 DUP5 ADD DUP6 SSTORE SWAP4 DUP8 MSTORE DUP6 DUP8 KECCAK256 DUP4 ADD DUP10 SWAP1 SSTORE DUP2 SLOAD SWAP4 DUP5 ADD DUP3 SSTORE SWAP1 DUP7 MSTORE DUP5 DUP7 KECCAK256 SWAP1 SWAP3 ADD DUP8 SWAP1 SSTORE DUP7 DUP6 MSTORE PUSH1 0xC DUP5 MSTORE DUP3 DUP6 KECCAK256 DUP7 DUP7 MSTORE DUP5 MSTORE DUP3 DUP6 KECCAK256 DUP2 SWAP1 SSTORE DUP7 DUP6 MSTORE PUSH1 0xD DUP5 MSTORE DUP3 DUP6 KECCAK256 DUP16 DUP7 MSTORE SWAP1 SWAP4 MSTORE SWAP3 DUP2 SWAP1 KECCAK256 DUP4 SWAP1 SSTORE MLOAD SWAP1 SWAP3 DUP13 SWAP2 DUP6 SWAP1 PUSH32 0xCC9F74B87107468EB3CDAD1F245ADC8CE93D052C5143EAE269793F711470972 SWAP1 PUSH2 0x263D SWAP1 DUP15 SWAP1 DUP15 SWAP1 PUSH2 0x3A7E JUMP JUMPDEST PUSH1 0x40 MLOAD DUP1 SWAP2 SUB SWAP1 LOG4 DUP7 ISZERO PUSH2 0x2655 JUMPI PUSH2 0x2655 DUP4 PUSH0 PUSH2 0x29E0 JUMP JUMPDEST POP SWAP1 SWAP4 POP POP POP POP PUSH2 0x2672 PUSH1 0x1 PUSH0 DUP1 MLOAD PUSH1 0x20 PUSH2 0x3ADD DUP4 CODECOPY DUP2 MLOAD SWAP2 MSTORE SSTORE JUMP JUMPDEST SWAP6 SWAP5 POP POP POP POP POP JUMP JUMPDEST PUSH0 DUP4 DUP2 MSTORE PUSH1 0x6 PUSH1 0x20 MSTORE PUSH1 0x40 SWAP1 KECCAK256 DUP1 SLOAD PUSH1 0x1 PUSH1 0x1 PUSH1 0xA0 SHL SUB AND CALLER EQ PUSH2 0x26B1 JUMPI PUSH1 0x40 MLOAD PUSH3 0x461BCD PUSH1 0xE5 SHL DUP2 MSTORE PUSH1 0x4 ADD PUSH2 0xA8D SWAP1 PUSH2 0x383C JUMP JUMPDEST PUSH1 0x2 DUP2 ADD DUP1 SLOAD PUSH1 0xFF NOT AND DUP4 ISZERO ISZERO OR SWAP1 SSTORE PUSH1 0x1 PUSH1 0x1 PUSH1 0xA0 SHL SUB DUP4 AND ISZERO DUP1 ISZERO SWAP1 PUSH2 0x26E6 JUMPI POP DUP1 SLOAD PUSH1 0x1 PUSH1 0x1 PUSH1 0xA0 SHL SUB DUP5 DUP2 AND SWAP2 AND EQ ISZERO JUMPDEST ISZERO PUSH2 0x27A1 JUMPI PUSH1 0x1 PUSH1 0x1 PUSH1 0xA0 SHL SUB DUP4 AND PUSH0 SWAP1 DUP2 MSTORE PUSH1 0x7 PUSH1 0x20 MSTORE PUSH1 0x40 SWAP1 KECCAK256 SLOAD ISZERO PUSH2 0x274C JUMPI PUSH1 0x40 MLOAD PUSH3 0x461BCD PUSH1 0xE5 SHL DUP2 MSTORE PUSH1 0x20 PUSH1 0x4 DUP3 ADD MSTORE PUSH1 0x19 PUSH1 0x24 DUP3 ADD MSTORE PUSH25 0x15D05313115517D053149150511657D49151D254D511549151 PUSH1 0x3A SHL PUSH1 0x44 DUP3 ADD MSTORE PUSH1 0x64 ADD PUSH2 0xA8D JUMP JUMPDEST PUSH0 DUP5 DUP2 MSTORE PUSH1 0x5 PUSH1 0x20 MSTORE PUSH1 0x40 DUP1 DUP3 KECCAK256 DUP1 SLOAD PUSH1 0x1 PUSH1 0x1 PUSH1 0xA0 SHL SUB NOT AND PUSH1 0x1 PUSH1 0x1 PUSH1 0xA0 SHL SUB DUP8 AND SWAP1 DUP2 OR SWAP1 SWAP2 SSTORE SWAP1 MLOAD SWAP1 SWAP2 DUP7 SWAP2 PUSH32 0x73B585BA33023E53677797D01CD3376054ACB573CE071B919E23DDBD23A84ED9 SWAP2 SWAP1 LOG3 JUMPDEST DUP1 SLOAD PUSH1 0x40 DUP1 MLOAD PUSH1 0x1 PUSH1 0x1 PUSH1 0xA0 SHL SUB SWAP1 SWAP3 AND DUP3 MSTORE DUP4 ISZERO ISZERO PUSH1 0x20 DUP4 ADD MSTORE DUP6 SWAP2 PUSH32 0x7DAC21E92520EAEDC798F2261DA9EECEBDA327DB2D8DFF77C1AAB26798DC25E8 SWAP2 ADD PUSH1 0x40 MLOAD DUP1 SWAP2 SUB SWAP1 LOG2 POP POP POP POP JUMP JUMPDEST PUSH2 0x27F7 PUSH2 0x2FA7 JUMP JUMPDEST PUSH1 0x2 PUSH0 DUP1 MLOAD PUSH1 0x20 PUSH2 0x3ADD DUP4 CODECOPY DUP2 MLOAD SWAP2 MSTORE SSTORE JUMP JUMPDEST SWAP1 JUMP JUMPDEST PUSH0 DUP1 DUP3 PUSH1 0x3 DUP2 GT ISZERO PUSH2 0x2821 JUMPI PUSH2 0x2821 PUSH2 0x3286 JUMP JUMPDEST SUB PUSH2 0x283A JUMPI PUSH2 0x2833 DUP4 PUSH3 0x93A80 PUSH2 0x39DC JUMP JUMPDEST SWAP1 POP PUSH2 0x28E8 JUMP JUMPDEST PUSH1 0x1 DUP3 PUSH1 0x3 DUP2 GT ISZERO PUSH2 0x284E JUMPI PUSH2 0x284E PUSH2 0x3286 JUMP JUMPDEST SUB PUSH2 0x2860 JUMPI PUSH2 0x2833 DUP4 PUSH3 0x278D00 PUSH2 0x39DC JUMP JUMPDEST PUSH1 0x2 DUP3 PUSH1 0x3 DUP2 GT ISZERO PUSH2 0x2874 JUMPI PUSH2 0x2874 PUSH2 0x3286 JUMP JUMPDEST SUB PUSH2 0x2886 JUMPI PUSH2 0x2833 DUP4 PUSH3 0x76A700 PUSH2 0x39DC JUMP JUMPDEST PUSH1 0x3 DUP3 PUSH1 0x3 DUP2 GT ISZERO PUSH2 0x289A JUMPI PUSH2 0x289A PUSH2 0x3286 JUMP JUMPDEST SUB PUSH2 0x28AD JUMPI PUSH2 0x2833 DUP4 PUSH4 0x1E13380 PUSH2 0x39DC JUMP JUMPDEST PUSH1 0x40 MLOAD PUSH3 0x461BCD PUSH1 0xE5 SHL DUP2 MSTORE PUSH1 0x20 PUSH1 0x4 DUP3 ADD MSTORE PUSH1 0x10 PUSH1 0x24 DUP3 ADD MSTORE PUSH16 0x1253959053125117D253951154959053 PUSH1 0x82 SHL PUSH1 0x44 DUP3 ADD MSTORE PUSH1 0x64 ADD PUSH2 0xA8D JUMP JUMPDEST SWAP3 SWAP2 POP POP JUMP JUMPDEST PUSH0 DUP3 DUP2 MSTORE PUSH1 0x6 PUSH1 0x20 MSTORE PUSH1 0x40 DUP2 KECCAK256 PUSH1 0x4 ADD SLOAD DUP2 SWAP1 PUSH2 0x290D JUMPI PUSH1 0x4 SLOAD PUSH2 0x291F JUMP JUMPDEST PUSH0 DUP5 DUP2 MSTORE PUSH1 0x6 PUSH1 0x20 MSTORE PUSH1 0x40 SWAP1 KECCAK256 PUSH1 0x4 ADD SLOAD JUMPDEST SWAP1 POP PUSH2 0x2710 PUSH2 0x292E DUP3 DUP6 PUSH2 0x3A92 JUMP JUMPDEST PUSH2 0x2938 SWAP2 SWAP1 PUSH2 0x3AA9 JUMP JUMPDEST SWAP5 SWAP4 POP POP POP POP JUMP JUMPDEST PUSH2 0x294E DUP5 DUP5 DUP5 DUP5 PUSH1 0x1 PUSH2 0x2FD8 JUMP JUMPDEST PUSH2 0x2976 JUMPI PUSH1 0x40 MLOAD PUSH4 0x5274AFE7 PUSH1 0xE0 SHL DUP2 MSTORE PUSH1 0x1 PUSH1 0x1 PUSH1 0xA0 SHL SUB DUP6 AND PUSH1 0x4 DUP3 ADD MSTORE PUSH1 0x24 ADD PUSH2 0xA8D JUMP JUMPDEST POP POP POP POP JUMP JUMPDEST PUSH1 0xF DUP1 SLOAD PUSH0 SWAP2 DUP3 PUSH2 0x298C DUP4 PUSH2 0x3824 JUMP JUMPDEST SWAP1 SWAP2 SSTORE POP POP PUSH1 0xF SLOAD PUSH1 0x40 MLOAD PUSH12 0xFFFFFFFFFFFFFFFFFFFFFFFF NOT PUSH1 0x60 DUP7 SWAP1 SHL AND PUSH1 0x20 DUP3 ADD MSTORE PUSH1 0x34 DUP2 ADD DUP5 SWAP1 MSTORE PUSH1 0x54 DUP2 ADD SWAP2 SWAP1 SWAP2 MSTORE PUSH1 0x74 ADD PUSH1 0x40 MLOAD PUSH1 0x20 DUP2 DUP4 SUB SUB DUP2 MSTORE SWAP1 PUSH1 0x40 MSTORE DUP1 MLOAD SWAP1 PUSH1 0x20 ADD KECCAK256 SWAP1 POP SWAP3 SWAP2 POP POP JUMP JUMPDEST PUSH0 DUP3 DUP2 MSTORE PUSH1 0x9 PUSH1 0x20 MSTORE PUSH1 0x40 DUP2 KECCAK256 PUSH1 0x2 DUP2 ADD SLOAD PUSH1 0x4 DUP3 ADD SLOAD SWAP2 SWAP3 SWAP2 PUSH2 0x2A04 SWAP2 SWAP1 PUSH2 0x28EE JUMP JUMPDEST SWAP1 POP PUSH0 DUP2 DUP4 PUSH1 0x4 ADD SLOAD PUSH2 0x2A17 SWAP2 SWAP1 PUSH2 0x38C8 JUMP JUMPDEST SWAP1 POP DUP4 DUP2 LT ISZERO PUSH2 0x2A5D JUMPI PUSH1 0x40 MLOAD PUSH3 0x461BCD PUSH1 0xE5 SHL DUP2 MSTORE PUSH1 0x20 PUSH1 0x4 DUP3 ADD MSTORE PUSH1 0x11 PUSH1 0x24 DUP3 ADD MSTORE PUSH17 0x14D31254141051D157D15610D151511151 PUSH1 0x7A SHL PUSH1 0x44 DUP3 ADD MSTORE PUSH1 0x64 ADD PUSH2 0xA8D JUMP JUMPDEST PUSH1 0x1 DUP4 ADD SLOAD PUSH1 0x2 DUP5 ADD SLOAD PUSH0 SWAP2 PUSH2 0x2A7E SWAP2 PUSH1 0x1 PUSH1 0x1 PUSH1 0xA0 SHL SUB SWAP1 SWAP2 AND SWAP1 PUSH2 0x297C JUMP JUMPDEST SWAP1 POP PUSH1 0x40 MLOAD DUP1 PUSH2 0x120 ADD PUSH1 0x40 MSTORE DUP1 DUP3 DUP2 MSTORE PUSH1 0x20 ADD DUP6 PUSH1 0x1 ADD PUSH0 SWAP1 SLOAD SWAP1 PUSH2 0x100 EXP SWAP1 DIV PUSH1 0x1 PUSH1 0x1 PUSH1 0xA0 SHL SUB AND PUSH1 0x1 PUSH1 0x1 PUSH1 0xA0 SHL SUB AND DUP2 MSTORE PUSH1 0x20 ADD DUP6 PUSH1 0x2 ADD SLOAD DUP2 MSTORE PUSH1 0x20 ADD DUP6 PUSH1 0x3 ADD PUSH0 SWAP1 SLOAD SWAP1 PUSH2 0x100 EXP SWAP1 DIV PUSH1 0x1 PUSH1 0x1 PUSH1 0xA0 SHL SUB AND PUSH1 0x1 PUSH1 0x1 PUSH1 0xA0 SHL SUB AND DUP2 MSTORE PUSH1 0x20 ADD DUP6 PUSH1 0x4 ADD SLOAD DUP2 MSTORE PUSH1 0x20 ADD DUP5 DUP2 MSTORE PUSH1 0x20 ADD TIMESTAMP DUP2 MSTORE PUSH1 0x20 ADD DUP8 DUP2 MSTORE PUSH1 0x20 ADD PUSH1 0x40 MLOAD DUP1 PUSH1 0x20 ADD PUSH1 0x40 MSTORE DUP1 PUSH0 DUP2 MSTORE POP DUP2 MSTORE POP PUSH1 0xE PUSH0 DUP4 DUP2 MSTORE PUSH1 0x20 ADD SWAP1 DUP2 MSTORE PUSH1 0x20 ADD PUSH0 KECCAK256 PUSH0 DUP3 ADD MLOAD DUP2 PUSH0 ADD SSTORE PUSH1 0x20 DUP3 ADD MLOAD DUP2 PUSH1 0x1 ADD PUSH0 PUSH2 0x100 EXP DUP2 SLOAD DUP2 PUSH1 0x1 PUSH1 0x1 PUSH1 0xA0 SHL SUB MUL NOT AND SWAP1 DUP4 PUSH1 0x1 PUSH1 0x1 PUSH1 0xA0 SHL SUB AND MUL OR SWAP1 SSTORE POP PUSH1 0x40 DUP3 ADD MLOAD DUP2 PUSH1 0x2 ADD SSTORE PUSH1 0x60 DUP3 ADD MLOAD DUP2 PUSH1 0x3 ADD PUSH0 PUSH2 0x100 EXP DUP2 SLOAD DUP2 PUSH1 0x1 PUSH1 0x1 PUSH1 0xA0 SHL SUB MUL NOT AND SWAP1 DUP4 PUSH1 0x1 PUSH1 0x1 PUSH1 0xA0 SHL SUB AND MUL OR SWAP1 SSTORE POP PUSH1 0x80 DUP3 ADD MLOAD DUP2 PUSH1 0x4 ADD SSTORE PUSH1 0xA0 DUP3 ADD MLOAD DUP2 PUSH1 0x5 ADD SSTORE PUSH1 0xC0 DUP3 ADD MLOAD DUP2 PUSH1 0x6 ADD SSTORE PUSH1 0xE0 DUP3 ADD MLOAD DUP2 PUSH1 0x7 ADD SSTORE PUSH2 0x100 DUP3 ADD MLOAD DUP2 PUSH1 0x8 ADD SWAP1 DUP2 PUSH2 0x2BCD SWAP2 SWAP1 PUSH2 0x3920 JUMP JUMPDEST POP POP TIMESTAMP PUSH1 0x7 DUP7 ADD DUP2 SWAP1 SSTORE PUSH1 0x5 DUP7 ADD SLOAD PUSH2 0x2BE9 SWAP3 POP PUSH1 0xFF AND PUSH2 0x280D JUMP JUMPDEST PUSH1 0x8 DUP6 ADD SSTORE PUSH1 0x9 DUP5 ADD DUP1 SLOAD SWAP1 PUSH0 PUSH2 0x2BFF DUP4 PUSH2 0x3824 JUMP JUMPDEST SWAP1 SWAP2 SSTORE POP POP PUSH1 0x4 DUP5 ADD SLOAD PUSH1 0x2 DUP6 ADD SLOAD PUSH0 SWAP1 DUP2 MSTORE PUSH1 0x6 PUSH1 0x20 MSTORE PUSH1 0x40 DUP2 KECCAK256 PUSH1 0x3 ADD DUP1 SLOAD SWAP1 SWAP2 SWAP1 PUSH2 0x2C2E SWAP1 DUP5 SWAP1 PUSH2 0x39DC JUMP JUMPDEST SWAP3 POP POP DUP2 SWAP1 SSTORE POP DUP1 DUP7 PUSH32 0xCA1DCDB530B2D7AA5D5DEFD481FD1D48A8E46D57F4C18E5D60EC2518FD1BE1A DUP7 PUSH1 0x4 ADD SLOAD PUSH1 0x40 MLOAD PUSH2 0x2C6C SWAP2 DUP2 MSTORE PUSH1 0x20 ADD SWAP1 JUMP JUMPDEST PUSH1 0x40 MLOAD DUP1 SWAP2 SUB SWAP1 LOG3 PUSH1 0x1 DUP5 ADD SLOAD PUSH1 0x2 DUP6 ADD SLOAD PUSH0 SWAP1 DUP2 MSTORE PUSH1 0x6 PUSH1 0x20 MSTORE PUSH1 0x40 SWAP1 KECCAK256 SLOAD PUSH1 0x3 DUP7 ADD SLOAD PUSH2 0x2CAC SWAP3 PUSH1 0x1 PUSH1 0x1 PUSH1 0xA0 SHL SUB SWAP2 DUP3 AND SWAP3 SWAP1 DUP3 AND SWAP2 AND DUP6 PUSH2 0x2940 JUMP JUMPDEST DUP3 ISZERO PUSH2 0x2CDA JUMPI PUSH1 0x1 DUP1 DUP6 ADD SLOAD SWAP1 SLOAD PUSH1 0x3 DUP7 ADD SLOAD PUSH2 0x2CDA SWAP3 PUSH1 0x1 PUSH1 0x1 PUSH1 0xA0 SHL SUB SWAP2 DUP3 AND SWAP3 SWAP1 DUP3 AND SWAP2 AND DUP7 PUSH2 0x2940 JUMP JUMPDEST POP POP POP POP POP POP JUMP JUMPDEST PUSH0 DUP2 DUP2 MSTORE PUSH1 0x9 PUSH1 0x20 MSTORE PUSH1 0x40 SWAP1 KECCAK256 PUSH1 0x1 DUP2 ADD SLOAD PUSH1 0x2 DUP3 ADD SLOAD PUSH1 0x1 PUSH1 0x1 PUSH1 0xA0 SHL SUB SWAP1 SWAP2 AND SWAP1 DUP2 ISZERO PUSH2 0x2E61 JUMPI PUSH0 DUP5 DUP2 MSTORE PUSH1 0xC PUSH1 0x20 SWAP1 DUP2 MSTORE PUSH1 0x40 DUP1 DUP4 KECCAK256 PUSH1 0x1 PUSH1 0x1 PUSH1 0xA0 SHL SUB DUP7 AND DUP5 MSTORE DUP3 MSTORE DUP1 DUP4 KECCAK256 SLOAD PUSH1 0xA SWAP1 SWAP3 MSTORE SWAP1 SWAP2 KECCAK256 DUP1 SLOAD DUP7 SWAP1 DUP3 SWAP1 DUP5 SWAP1 DUP2 LT PUSH2 0x2D4B JUMPI PUSH2 0x2D4B PUSH2 0x36EB JUMP JUMPDEST SWAP1 PUSH0 MSTORE PUSH1 0x20 PUSH0 KECCAK256 ADD SLOAD EQ PUSH2 0x2D91 JUMPI PUSH1 0x40 MLOAD PUSH3 0x461BCD PUSH1 0xE5 SHL DUP2 MSTORE PUSH1 0x20 PUSH1 0x4 DUP3 ADD MSTORE PUSH1 0xD PUSH1 0x24 DUP3 ADD MSTORE PUSH13 0x125391115617D0D3D494955415 PUSH1 0x9A SHL PUSH1 0x44 DUP3 ADD MSTORE PUSH1 0x64 ADD PUSH2 0xA8D JUMP JUMPDEST DUP1 SLOAD PUSH2 0x2D9F SWAP1 PUSH1 0x1 SWAP1 PUSH2 0x38C8 JUMP JUMPDEST DUP3 LT ISZERO PUSH2 0x2E17 JUMPI DUP1 SLOAD PUSH0 SWAP1 DUP3 SWAP1 PUSH2 0x2DB8 SWAP1 PUSH1 0x1 SWAP1 PUSH2 0x38C8 JUMP JUMPDEST DUP2 SLOAD DUP2 LT PUSH2 0x2DC8 JUMPI PUSH2 0x2DC8 PUSH2 0x36EB JUMP JUMPDEST SWAP1 PUSH0 MSTORE PUSH1 0x20 PUSH0 KECCAK256 ADD SLOAD SWAP1 POP DUP1 DUP3 DUP5 DUP2 SLOAD DUP2 LT PUSH2 0x2DE6 JUMPI PUSH2 0x2DE6 PUSH2 0x36EB JUMP JUMPDEST PUSH0 SWAP2 DUP3 MSTORE PUSH1 0x20 DUP1 DUP4 KECCAK256 SWAP1 SWAP2 ADD SWAP3 SWAP1 SWAP3 SSTORE SWAP2 DUP3 MSTORE PUSH1 0xC DUP2 MSTORE PUSH1 0x40 DUP1 DUP4 KECCAK256 PUSH1 0x1 PUSH1 0x1 PUSH1 0xA0 SHL SUB DUP9 AND DUP5 MSTORE SWAP1 SWAP2 MSTORE SWAP1 KECCAK256 DUP3 SWAP1 SSTORE JUMPDEST DUP1 DUP1 SLOAD DUP1 PUSH2 0x2E27 JUMPI PUSH2 0x2E27 PUSH2 0x3AC8 JUMP JUMPDEST PUSH0 DUP3 DUP2 MSTORE PUSH1 0x20 DUP1 DUP3 KECCAK256 DUP4 ADD PUSH0 NOT SWAP1 DUP2 ADD DUP4 SWAP1 SSTORE SWAP1 SWAP3 ADD SWAP1 SWAP3 SSTORE DUP8 DUP3 MSTORE PUSH1 0xC DUP2 MSTORE PUSH1 0x40 DUP1 DUP4 KECCAK256 PUSH1 0x1 PUSH1 0x1 PUSH1 0xA0 SHL SUB DUP9 AND DUP5 MSTORE SWAP1 SWAP2 MSTORE DUP2 KECCAK256 SSTORE POP POP JUMPDEST DUP1 ISZERO PUSH2 0x2976 JUMPI PUSH0 DUP5 DUP2 MSTORE PUSH1 0xD PUSH1 0x20 SWAP1 DUP2 MSTORE PUSH1 0x40 DUP1 DUP4 KECCAK256 DUP5 DUP5 MSTORE DUP3 MSTORE DUP1 DUP4 KECCAK256 SLOAD PUSH1 0xB SWAP1 SWAP3 MSTORE SWAP1 SWAP2 KECCAK256 DUP1 SLOAD DUP7 SWAP1 DUP3 SWAP1 DUP5 SWAP1 DUP2 LT PUSH2 0x2E9E JUMPI PUSH2 0x2E9E PUSH2 0x36EB JUMP JUMPDEST SWAP1 PUSH0 MSTORE PUSH1 0x20 PUSH0 KECCAK256 ADD SLOAD EQ PUSH2 0x2EE4 JUMPI PUSH1 0x40 MLOAD PUSH3 0x461BCD PUSH1 0xE5 SHL DUP2 MSTORE PUSH1 0x20 PUSH1 0x4 DUP3 ADD MSTORE PUSH1 0xD PUSH1 0x24 DUP3 ADD MSTORE PUSH13 0x125391115617D0D3D494955415 PUSH1 0x9A SHL PUSH1 0x44 DUP3 ADD MSTORE PUSH1 0x64 ADD PUSH2 0xA8D JUMP JUMPDEST DUP1 SLOAD PUSH2 0x2EF2 SWAP1 PUSH1 0x1 SWAP1 PUSH2 0x38C8 JUMP JUMPDEST DUP3 LT ISZERO PUSH2 0x2F61 JUMPI DUP1 SLOAD PUSH0 SWAP1 DUP3 SWAP1 PUSH2 0x2F0B SWAP1 PUSH1 0x1 SWAP1 PUSH2 0x38C8 JUMP JUMPDEST DUP2 SLOAD DUP2 LT PUSH2 0x2F1B JUMPI PUSH2 0x2F1B PUSH2 0x36EB JUMP JUMPDEST SWAP1 PUSH0 MSTORE PUSH1 0x20 PUSH0 KECCAK256 ADD SLOAD SWAP1 POP DUP1 DUP3 DUP5 DUP2 SLOAD DUP2 LT PUSH2 0x2F39 JUMPI PUSH2 0x2F39 PUSH2 0x36EB JUMP JUMPDEST PUSH0 SWAP2 DUP3 MSTORE PUSH1 0x20 DUP1 DUP4 KECCAK256 SWAP1 SWAP2 ADD SWAP3 SWAP1 SWAP3 SSTORE SWAP2 DUP3 MSTORE PUSH1 0xD DUP2 MSTORE PUSH1 0x40 DUP1 DUP4 KECCAK256 DUP7 DUP5 MSTORE SWAP1 SWAP2 MSTORE SWAP1 KECCAK256 DUP3 SWAP1 SSTORE JUMPDEST DUP1 DUP1 SLOAD DUP1 PUSH2 0x2F71 JUMPI PUSH2 0x2F71 PUSH2 0x3AC8 JUMP JUMPDEST PUSH0 DUP3 DUP2 MSTORE PUSH1 0x20 DUP1 DUP3 KECCAK256 DUP4 ADD PUSH0 NOT SWAP1 DUP2 ADD DUP4 SWAP1 SSTORE SWAP1 SWAP3 ADD SWAP1 SWAP3 SSTORE DUP8 DUP3 MSTORE PUSH1 0xD DUP2 MSTORE PUSH1 0x40 DUP1 DUP4 KECCAK256 DUP7 DUP5 MSTORE SWAP1 SWAP2 MSTORE DUP2 KECCAK256 SSTORE POP POP POP POP POP POP JUMP JUMPDEST PUSH0 DUP1 MLOAD PUSH1 0x20 PUSH2 0x3ADD DUP4 CODECOPY DUP2 MLOAD SWAP2 MSTORE SLOAD PUSH1 0x2 SUB PUSH2 0x2FD6 JUMPI PUSH1 0x40 MLOAD PUSH4 0x3EE5AEB5 PUSH1 0xE0 SHL DUP2 MSTORE PUSH1 0x4 ADD PUSH1 0x40 MLOAD DUP1 SWAP2 SUB SWAP1 REVERT JUMPDEST JUMP JUMPDEST PUSH1 0x40 MLOAD PUSH4 0x23B872DD PUSH1 0xE0 SHL PUSH0 DUP2 DUP2 MSTORE PUSH1 0x1 PUSH1 0x1 PUSH1 0xA0 SHL SUB DUP8 DUP2 AND PUSH1 0x4 MSTORE DUP7 AND PUSH1 0x24 MSTORE PUSH1 0x44 DUP6 SWAP1 MSTORE SWAP2 PUSH1 0x20 DUP4 PUSH1 0x64 DUP2 DUP1 DUP13 GAS CALL SWAP3 POP PUSH1 0x1 PUSH0 MLOAD EQ DUP4 AND PUSH2 0x3034 JUMPI DUP4 DUP4 ISZERO AND ISZERO PUSH2 0x3028 JUMPI RETURNDATASIZE PUSH0 DUP3 RETURNDATACOPY RETURNDATASIZE DUP2 REVERT JUMPDEST PUSH0 DUP9 EXTCODESIZE GT RETURNDATASIZE ISZERO AND DUP4 AND SWAP3 POP JUMPDEST PUSH1 0x40 MSTORE POP PUSH0 PUSH1 0x60 MSTORE SWAP6 SWAP5 POP POP POP POP POP JUMP JUMPDEST PUSH0 PUSH1 0x20 DUP3 DUP5 SUB SLT ISZERO PUSH2 0x3055 JUMPI PUSH0 DUP1 REVERT JUMPDEST POP CALLDATALOAD SWAP2 SWAP1 POP JUMP JUMPDEST PUSH0 DUP2 MLOAD DUP1 DUP5 MSTORE PUSH0 JUMPDEST DUP2 DUP2 LT ISZERO PUSH2 0x3080 JUMPI PUSH1 0x20 DUP2 DUP6 ADD DUP2 ADD MLOAD DUP7 DUP4 ADD DUP3 ADD MSTORE ADD PUSH2 0x3064 JUMP JUMPDEST POP PUSH0 PUSH1 0x20 DUP3 DUP7 ADD ADD MSTORE PUSH1 0x20 PUSH1 0x1F NOT PUSH1 0x1F DUP4 ADD AND DUP6 ADD ADD SWAP2 POP POP SWAP3 SWAP2 POP POP JUMP JUMPDEST PUSH0 PUSH2 0x120 DUP12 DUP4 MSTORE PUSH1 0x1 DUP1 PUSH1 0xA0 SHL SUB DUP1 DUP13 AND PUSH1 0x20 DUP6 ADD MSTORE DUP11 PUSH1 0x40 DUP6 ADD MSTORE DUP1 DUP11 AND PUSH1 0x60 DUP6 ADD MSTORE POP DUP8 PUSH1 0x80 DUP5 ADD MSTORE DUP7 PUSH1 0xA0 DUP5 ADD MSTORE DUP6 PUSH1 0xC0 DUP5 ADD MSTORE DUP5 PUSH1 0xE0 DUP5 ADD MSTORE DUP1 PUSH2 0x100 DUP5 ADD MSTORE PUSH2 0x30EF DUP2 DUP5 ADD DUP6 PUSH2 0x305C JUMP JUMPDEST SWAP13 SWAP12 POP POP POP POP POP POP POP POP POP POP POP POP JUMP JUMPDEST PUSH0 DUP1 PUSH0 PUSH1 0x40 DUP5 DUP7 SUB SLT ISZERO PUSH2 0x3111 JUMPI PUSH0 DUP1 REVERT JUMPDEST DUP4 CALLDATALOAD PUSH8 0xFFFFFFFFFFFFFFFF DUP1 DUP3 GT ISZERO PUSH2 0x3128 JUMPI PUSH0 DUP1 REVERT JUMPDEST DUP2 DUP7 ADD SWAP2 POP DUP7 PUSH1 0x1F DUP4 ADD SLT PUSH2 0x313B JUMPI PUSH0 DUP1 REVERT JUMPDEST DUP2 CALLDATALOAD DUP2 DUP2 GT ISZERO PUSH2 0x3149 JUMPI PUSH0 DUP1 REVERT JUMPDEST DUP8 PUSH1 0x20 DUP3 PUSH1 0x5 SHL DUP6 ADD ADD GT ISZERO PUSH2 0x315D JUMPI PUSH0 DUP1 REVERT JUMPDEST PUSH1 0x20 SWAP3 DUP4 ADD SWAP9 SWAP1 SWAP8 POP SWAP6 SWAP1 SWAP2 ADD CALLDATALOAD SWAP5 SWAP4 POP POP POP POP JUMP JUMPDEST PUSH1 0x1 PUSH1 0x1 PUSH1 0xA0 SHL SUB DUP8 AND DUP2 MSTORE PUSH1 0xC0 PUSH1 0x20 DUP3 ADD DUP2 SWAP1 MSTORE PUSH0 SWAP1 PUSH2 0x3196 SWAP1 DUP4 ADD DUP9 PUSH2 0x305C JUMP JUMPDEST SWAP6 ISZERO ISZERO PUSH1 0x40 DUP4 ADD MSTORE POP PUSH1 0x60 DUP2 ADD SWAP4 SWAP1 SWAP4 MSTORE PUSH1 0x80 DUP4 ADD SWAP2 SWAP1 SWAP2 MSTORE PUSH1 0xA0 SWAP1 SWAP2 ADD MSTORE SWAP3 SWAP2 POP POP JUMP JUMPDEST DUP1 CALLDATALOAD PUSH1 0x1 PUSH1 0x1 PUSH1 0xA0 SHL SUB DUP2 AND DUP2 EQ PUSH2 0x31D1 JUMPI PUSH0 DUP1 REVERT JUMPDEST SWAP2 SWAP1 POP JUMP JUMPDEST PUSH0 DUP1 DUP4 PUSH1 0x1F DUP5 ADD SLT PUSH2 0x31E6 JUMPI PUSH0 DUP1 REVERT JUMPDEST POP DUP2 CALLDATALOAD PUSH8 0xFFFFFFFFFFFFFFFF DUP2 GT ISZERO PUSH2 0x31FD JUMPI PUSH0 DUP1 REVERT JUMPDEST PUSH1 0x20 DUP4 ADD SWAP2 POP DUP4 PUSH1 0x20 DUP3 DUP6 ADD ADD GT ISZERO PUSH2 0x3214 JUMPI PUSH0 DUP1 REVERT JUMPDEST SWAP3 POP SWAP3 SWAP1 POP JUMP JUMPDEST PUSH0 DUP1 PUSH0 DUP1 PUSH0 DUP1 PUSH1 0xA0 DUP8 DUP10 SUB SLT ISZERO PUSH2 0x3230 JUMPI PUSH0 DUP1 REVERT JUMPDEST DUP7 CALLDATALOAD SWAP6 POP PUSH2 0x3240 PUSH1 0x20 DUP9 ADD PUSH2 0x31BB JUMP JUMPDEST SWAP5 POP PUSH1 0x40 DUP8 ADD CALLDATALOAD SWAP4 POP PUSH1 0x60 DUP8 ADD CALLDATALOAD PUSH8 0xFFFFFFFFFFFFFFFF DUP2 GT ISZERO PUSH2 0x3262 JUMPI PUSH0 DUP1 REVERT JUMPDEST PUSH2 0x326E DUP10 DUP3 DUP11 ADD PUSH2 0x31D6 JUMP JUMPDEST SWAP8 SWAP11 SWAP7 SWAP10 POP SWAP5 SWAP8 SWAP5 SWAP7 SWAP6 PUSH1 0x80 SWAP1 SWAP6 ADD CALLDATALOAD SWAP5 SWAP4 POP POP POP POP JUMP JUMPDEST PUSH4 0x4E487B71 PUSH1 0xE0 SHL PUSH0 MSTORE PUSH1 0x21 PUSH1 0x4 MSTORE PUSH1 0x24 PUSH0 REVERT JUMPDEST PUSH1 0x4 DUP2 LT PUSH2 0x32AA JUMPI PUSH2 0x32AA PUSH2 0x3286 JUMP JUMPDEST SWAP1 MSTORE JUMP JUMPDEST PUSH1 0x3 DUP2 LT PUSH2 0x32AA JUMPI PUSH2 0x32AA PUSH2 0x3286 JUMP JUMPDEST DUP2 MLOAD DUP2 MSTORE PUSH1 0x20 DUP1 DUP4 ADD MLOAD PUSH2 0x160 DUP4 ADD SWAP2 PUSH2 0x32E2 SWAP1 DUP5 ADD DUP3 PUSH1 0x1 PUSH1 0x1 PUSH1 0xA0 SHL SUB AND SWAP1 MSTORE JUMP JUMPDEST POP PUSH1 0x40 DUP4 ADD MLOAD PUSH1 0x40 DUP4 ADD MSTORE PUSH1 0x60 DUP4 ADD MLOAD PUSH2 0x3307 PUSH1 0x60 DUP5 ADD DUP3 PUSH1 0x1 PUSH1 0x1 PUSH1 0xA0 SHL SUB AND SWAP1 MSTORE JUMP JUMPDEST POP PUSH1 0x80 DUP4 ADD MLOAD PUSH1 0x80 DUP4 ADD MSTORE PUSH1 0xA0 DUP4 ADD MLOAD PUSH2 0x3324 PUSH1 0xA0 DUP5 ADD DUP3 PUSH2 0x329A JUMP JUMPDEST POP PUSH1 0xC0 DUP4 ADD MLOAD PUSH2 0x3337 PUSH1 0xC0 DUP5 ADD DUP3 PUSH2 0x32AE JUMP JUMPDEST POP PUSH1 0xE0 DUP4 DUP2 ADD MLOAD SWAP1 DUP4 ADD MSTORE PUSH2 0x100 DUP1 DUP5 ADD MLOAD SWAP1 DUP4 ADD MSTORE PUSH2 0x120 DUP1 DUP5 ADD MLOAD SWAP1 DUP4 ADD MSTORE PUSH2 0x140 SWAP3 DUP4 ADD MLOAD SWAP3 SWAP1 SWAP2 ADD SWAP2 SWAP1 SWAP2 MSTORE SWAP1 JUMP JUMPDEST PUSH0 DUP1 PUSH1 0x40 DUP4 DUP6 SUB SLT ISZERO PUSH2 0x337B JUMPI PUSH0 DUP1 REVERT JUMPDEST POP POP DUP1 CALLDATALOAD SWAP3 PUSH1 0x20 SWAP1 SWAP2 ADD CALLDATALOAD SWAP2 POP JUMP JUMPDEST PUSH0 PUSH1 0x20 DUP3 DUP5 SUB SLT ISZERO PUSH2 0x339A JUMPI PUSH0 DUP1 REVERT JUMPDEST PUSH2 0x13D0 DUP3 PUSH2 0x31BB JUMP JUMPDEST PUSH1 0x20 DUP1 DUP3 MSTORE DUP3 MLOAD DUP3 DUP3 ADD DUP2 SWAP1 MSTORE PUSH0 SWAP2 SWAP1 DUP5 DUP3 ADD SWAP1 PUSH1 0x40 DUP6 ADD SWAP1 DUP5 JUMPDEST DUP2 DUP2 LT ISZERO PUSH2 0x33DA JUMPI DUP4 MLOAD DUP4 MSTORE SWAP3 DUP5 ADD SWAP3 SWAP2 DUP5 ADD SWAP2 PUSH1 0x1 ADD PUSH2 0x33BE JUMP JUMPDEST POP SWAP1 SWAP7 SWAP6 POP POP POP POP POP POP JUMP JUMPDEST PUSH1 0x20 DUP2 MSTORE DUP2 MLOAD PUSH1 0x20 DUP3 ADD MSTORE PUSH0 PUSH1 0x20 DUP4 ADD MLOAD PUSH2 0x340C PUSH1 0x40 DUP5 ADD DUP3 PUSH1 0x1 PUSH1 0x1 PUSH1 0xA0 SHL SUB AND SWAP1 MSTORE JUMP JUMPDEST POP PUSH1 0x40 DUP4 ADD MLOAD PUSH1 0x60 DUP4 ADD MSTORE PUSH1 0x60 DUP4 ADD MLOAD PUSH2 0x3431 PUSH1 0x80 DUP5 ADD DUP3 PUSH1 0x1 PUSH1 0x1 PUSH1 0xA0 SHL SUB AND SWAP1 MSTORE JUMP JUMPDEST POP PUSH1 0x80 DUP4 ADD MLOAD PUSH1 0xA0 DUP4 ADD MSTORE PUSH1 0xA0 DUP4 ADD MLOAD PUSH1 0xC0 DUP4 ADD MSTORE PUSH1 0xC0 DUP4 ADD MLOAD PUSH1 0xE0 DUP4 ADD MSTORE PUSH1 0xE0 DUP4 ADD MLOAD PUSH2 0x100 DUP2 DUP2 DUP6 ADD MSTORE DUP1 DUP6 ADD MLOAD SWAP2 POP POP PUSH2 0x120 DUP1 DUP2 DUP6 ADD MSTORE POP PUSH2 0x2938 PUSH2 0x140 DUP5 ADD DUP3 PUSH2 0x305C JUMP JUMPDEST DUP12 DUP2 MSTORE PUSH1 0x1 PUSH1 0x1 PUSH1 0xA0 SHL SUB DUP12 DUP2 AND PUSH1 0x20 DUP4 ADD MSTORE PUSH1 0x40 DUP3 ADD DUP12 SWAP1 MSTORE DUP10 AND PUSH1 0x60 DUP3 ADD MSTORE PUSH1 0x80 DUP2 ADD DUP9 SWAP1 MSTORE PUSH2 0x160 DUP2 ADD PUSH2 0x34B5 PUSH1 0xA0 DUP4 ADD DUP10 PUSH2 0x329A JUMP JUMPDEST PUSH2 0x34C2 PUSH1 0xC0 DUP4 ADD DUP9 PUSH2 0x32AE JUMP JUMPDEST DUP6 PUSH1 0xE0 DUP4 ADD MSTORE DUP5 PUSH2 0x100 DUP4 ADD MSTORE DUP4 PUSH2 0x120 DUP4 ADD MSTORE DUP3 PUSH2 0x140 DUP4 ADD MSTORE SWAP13 SWAP12 POP POP POP POP POP POP POP POP POP POP POP POP JUMP JUMPDEST PUSH0 DUP1 PUSH0 PUSH1 0x40 DUP5 DUP7 SUB SLT ISZERO PUSH2 0x34FF JUMPI PUSH0 DUP1 REVERT JUMPDEST PUSH2 0x3508 DUP5 PUSH2 0x31BB JUMP JUMPDEST SWAP3 POP PUSH1 0x20 DUP5 ADD CALLDATALOAD PUSH8 0xFFFFFFFFFFFFFFFF DUP2 GT ISZERO PUSH2 0x3523 JUMPI PUSH0 DUP1 REVERT JUMPDEST PUSH2 0x352F DUP7 DUP3 DUP8 ADD PUSH2 0x31D6 JUMP JUMPDEST SWAP5 SWAP8 SWAP1 SWAP7 POP SWAP4 SWAP5 POP POP POP POP JUMP JUMPDEST PUSH0 DUP1 PUSH1 0x40 DUP4 DUP6 SUB SLT ISZERO PUSH2 0x354D JUMPI PUSH0 DUP1 REVERT JUMPDEST DUP3 CALLDATALOAD SWAP2 POP PUSH2 0x355D PUSH1 0x20 DUP5 ADD PUSH2 0x31BB JUMP JUMPDEST SWAP1 POP SWAP3 POP SWAP3 SWAP1 POP JUMP JUMPDEST PUSH0 DUP1 PUSH1 0x40 DUP4 DUP6 SUB SLT ISZERO PUSH2 0x3577 JUMPI PUSH0 DUP1 REVERT JUMPDEST PUSH2 0x3580 DUP4 PUSH2 0x31BB JUMP JUMPDEST SWAP5 PUSH1 0x20 SWAP4 SWAP1 SWAP4 ADD CALLDATALOAD SWAP4 POP POP POP JUMP JUMPDEST PUSH1 0x20 DUP1 DUP3 MSTORE DUP3 MLOAD PUSH1 0x1 PUSH1 0x1 PUSH1 0xA0 SHL SUB AND DUP3 DUP3 ADD MSTORE DUP3 ADD MLOAD PUSH1 0xC0 PUSH1 0x40 DUP4 ADD MSTORE PUSH0 SWAP1 PUSH2 0x35BB PUSH1 0xE0 DUP5 ADD DUP3 PUSH2 0x305C JUMP JUMPDEST SWAP1 POP PUSH1 0x40 DUP5 ADD MLOAD ISZERO ISZERO PUSH1 0x60 DUP5 ADD MSTORE PUSH1 0x60 DUP5 ADD MLOAD PUSH1 0x80 DUP5 ADD MSTORE PUSH1 0x80 DUP5 ADD MLOAD PUSH1 0xA0 DUP5 ADD MSTORE PUSH1 0xA0 DUP5 ADD MLOAD PUSH1 0xC0 DUP5 ADD MSTORE DUP1 SWAP2 POP POP SWAP3 SWAP2 POP POP JUMP JUMPDEST DUP1 CALLDATALOAD DUP1 ISZERO ISZERO DUP2 EQ PUSH2 0x31D1 JUMPI PUSH0 DUP1 REVERT JUMPDEST PUSH0 DUP1 PUSH1 0x40 DUP4 DUP6 SUB SLT ISZERO PUSH2 0x3611 JUMPI PUSH0 DUP1 REVERT JUMPDEST PUSH2 0x361A DUP4 PUSH2 0x31BB JUMP JUMPDEST SWAP2 POP PUSH2 0x355D PUSH1 0x20 DUP5 ADD PUSH2 0x35F1 JUMP JUMPDEST PUSH0 DUP1 PUSH0 DUP1 PUSH0 PUSH1 0xA0 DUP7 DUP9 SUB SLT ISZERO PUSH2 0x363C JUMPI PUSH0 DUP1 REVERT JUMPDEST DUP6 CALLDATALOAD SWAP5 POP PUSH2 0x364C PUSH1 0x20 DUP8 ADD PUSH2 0x31BB JUMP JUMPDEST SWAP4 POP PUSH1 0x40 DUP7 ADD CALLDATALOAD SWAP3 POP PUSH1 0x60 DUP7 ADD CALLDATALOAD PUSH1 0x4 DUP2 LT PUSH2 0x3666 JUMPI PUSH0 DUP1 REVERT JUMPDEST SWAP2 POP PUSH2 0x3674 PUSH1 0x80 DUP8 ADD PUSH2 0x35F1 JUMP JUMPDEST SWAP1 POP SWAP3 SWAP6 POP SWAP3 SWAP6 SWAP1 SWAP4 POP JUMP JUMPDEST PUSH0 DUP1 PUSH0 PUSH1 0x60 DUP5 DUP7 SUB SLT ISZERO PUSH2 0x3692 JUMPI PUSH0 DUP1 REVERT JUMPDEST DUP4 CALLDATALOAD SWAP3 POP PUSH2 0x36A2 PUSH1 0x20 DUP6 ADD PUSH2 0x31BB JUMP JUMPDEST SWAP2 POP PUSH2 0x36B0 PUSH1 0x40 DUP6 ADD PUSH2 0x35F1 JUMP JUMPDEST SWAP1 POP SWAP3 POP SWAP3 POP SWAP3 JUMP JUMPDEST PUSH1 0x1 DUP2 DUP2 SHR SWAP1 DUP3 AND DUP1 PUSH2 0x36CD JUMPI PUSH1 0x7F DUP3 AND SWAP2 POP JUMPDEST PUSH1 0x20 DUP3 LT DUP2 SUB PUSH2 0x1A14 JUMPI PUSH4 0x4E487B71 PUSH1 0xE0 SHL PUSH0 MSTORE PUSH1 0x22 PUSH1 0x4 MSTORE PUSH1 0x24 PUSH0 REVERT JUMPDEST PUSH4 0x4E487B71 PUSH1 0xE0 SHL PUSH0 MSTORE PUSH1 0x32 PUSH1 0x4 MSTORE PUSH1 0x24 PUSH0 REVERT JUMPDEST PUSH0 PUSH1 0x3 RETURNDATASIZE GT ISZERO PUSH2 0x280A JUMPI PUSH1 0x4 PUSH0 DUP1 RETURNDATACOPY POP PUSH0 MLOAD PUSH1 0xE0 SHR SWAP1 JUMP JUMPDEST PUSH4 0x4E487B71 PUSH1 0xE0 SHL PUSH0 MSTORE PUSH1 0x41 PUSH1 0x4 MSTORE PUSH1 0x24 PUSH0 REVERT JUMPDEST PUSH1 0x1F DUP3 ADD PUSH1 0x1F NOT AND DUP2 ADD PUSH8 0xFFFFFFFFFFFFFFFF DUP2 GT DUP3 DUP3 LT OR ISZERO PUSH2 0x3751 JUMPI PUSH2 0x3751 PUSH2 0x3717 JUMP JUMPDEST PUSH1 0x40 MSTORE POP POP JUMP JUMPDEST PUSH0 PUSH1 0x44 RETURNDATASIZE LT ISZERO PUSH2 0x3765 JUMPI SWAP1 JUMP JUMPDEST PUSH1 0x40 MLOAD PUSH1 0x3 NOT RETURNDATASIZE DUP2 ADD PUSH1 0x4 DUP4 RETURNDATACOPY DUP2 MLOAD RETURNDATASIZE PUSH8 0xFFFFFFFFFFFFFFFF DUP2 PUSH1 0x24 DUP5 ADD GT DUP2 DUP5 GT OR ISZERO PUSH2 0x3795 JUMPI POP POP POP POP POP SWAP1 JUMP JUMPDEST DUP3 DUP6 ADD SWAP2 POP DUP2 MLOAD DUP2 DUP2 GT ISZERO PUSH2 0x37AD JUMPI POP POP POP POP POP POP SWAP1 JUMP JUMPDEST DUP5 RETURNDATASIZE DUP8 ADD ADD PUSH1 0x20 DUP3 DUP6 ADD ADD GT ISZERO PUSH2 0x37C7 JUMPI POP POP POP POP POP POP SWAP1 JUMP JUMPDEST PUSH2 0x37D6 PUSH1 0x20 DUP3 DUP7 ADD ADD DUP8 PUSH2 0x372B JUMP JUMPDEST POP SWAP1 SWAP6 SWAP5 POP POP POP POP POP JUMP JUMPDEST PUSH1 0x20 DUP2 MSTORE PUSH0 PUSH2 0x13D0 PUSH1 0x20 DUP4 ADD DUP5 PUSH2 0x305C JUMP JUMPDEST PUSH0 DUP1 PUSH1 0x23 RETURNDATASIZE GT ISZERO PUSH2 0x380C JUMPI PUSH1 0x20 PUSH1 0x4 PUSH0 RETURNDATACOPY POP POP PUSH0 MLOAD PUSH1 0x1 SWAP1 JUMPDEST SWAP1 SWAP2 JUMP JUMPDEST PUSH4 0x4E487B71 PUSH1 0xE0 SHL PUSH0 MSTORE PUSH1 0x11 PUSH1 0x4 MSTORE PUSH1 0x24 PUSH0 REVERT JUMPDEST PUSH0 PUSH1 0x1 DUP3 ADD PUSH2 0x3835 JUMPI PUSH2 0x3835 PUSH2 0x3810 JUMP JUMPDEST POP PUSH1 0x1 ADD SWAP1 JUMP JUMPDEST PUSH1 0x20 DUP1 DUP3 MSTORE PUSH1 0xC SWAP1 DUP3 ADD MSTORE PUSH12 0x15539055551213D492569151 PUSH1 0xA2 SHL PUSH1 0x40 DUP3 ADD MSTORE PUSH1 0x60 ADD SWAP1 JUMP JUMPDEST PUSH1 0x20 DUP1 DUP3 MSTORE PUSH1 0x16 SWAP1 DUP3 ADD MSTORE PUSH22 0x14D55094D0D49254151253D397D393D517D193D55391 PUSH1 0x52 SHL PUSH1 0x40 DUP3 ADD MSTORE PUSH1 0x60 ADD SWAP1 JUMP JUMPDEST PUSH1 0x20 DUP2 ADD PUSH2 0x28E8 DUP3 DUP5 PUSH2 0x32AE JUMP JUMPDEST PUSH1 0x20 DUP1 DUP3 MSTORE PUSH1 0xE SWAP1 DUP3 ADD MSTORE PUSH14 0x1253959053125117D05353D55395 PUSH1 0x92 SHL PUSH1 0x40 DUP3 ADD MSTORE PUSH1 0x60 ADD SWAP1 JUMP JUMPDEST DUP2 DUP2 SUB DUP2 DUP2 GT ISZERO PUSH2 0x28E8 JUMPI PUSH2 0x28E8 PUSH2 0x3810 JUMP JUMPDEST PUSH1 0x1F DUP3 GT ISZERO PUSH2 0xA34 JUMPI PUSH0 DUP2 DUP2 MSTORE PUSH1 0x20 DUP2 KECCAK256 PUSH1 0x1F DUP6 ADD PUSH1 0x5 SHR DUP2 ADD PUSH1 0x20 DUP7 LT ISZERO PUSH2 0x3901 JUMPI POP DUP1 JUMPDEST PUSH1 0x1F DUP6 ADD PUSH1 0x5 SHR DUP3 ADD SWAP2 POP JUMPDEST DUP2 DUP2 LT ISZERO PUSH2 0x2CDA JUMPI DUP3 DUP2 SSTORE PUSH1 0x1 ADD PUSH2 0x390D JUMP JUMPDEST DUP2 MLOAD PUSH8 0xFFFFFFFFFFFFFFFF DUP2 GT ISZERO PUSH2 0x393A JUMPI PUSH2 0x393A PUSH2 0x3717 JUMP JUMPDEST PUSH2 0x394E DUP2 PUSH2 0x3948 DUP5 SLOAD PUSH2 0x36B9 JUMP JUMPDEST DUP5 PUSH2 0x38DB JUMP JUMPDEST PUSH1 0x20 DUP1 PUSH1 0x1F DUP4 GT PUSH1 0x1 DUP2 EQ PUSH2 0x3981 JUMPI PUSH0 DUP5 ISZERO PUSH2 0x396A JUMPI POP DUP6 DUP4 ADD MLOAD JUMPDEST PUSH0 NOT PUSH1 0x3 DUP7 SWAP1 SHL SHR NOT AND PUSH1 0x1 DUP6 SWAP1 SHL OR DUP6 SSTORE PUSH2 0x2CDA JUMP JUMPDEST PUSH0 DUP6 DUP2 MSTORE PUSH1 0x20 DUP2 KECCAK256 PUSH1 0x1F NOT DUP7 AND SWAP2 JUMPDEST DUP3 DUP2 LT ISZERO PUSH2 0x39AF JUMPI DUP9 DUP7 ADD MLOAD DUP3 SSTORE SWAP5 DUP5 ADD SWAP5 PUSH1 0x1 SWAP1 SWAP2 ADD SWAP1 DUP5 ADD PUSH2 0x3990 JUMP JUMPDEST POP DUP6 DUP3 LT ISZERO PUSH2 0x39CC JUMPI DUP8 DUP6 ADD MLOAD PUSH0 NOT PUSH1 0x3 DUP9 SWAP1 SHL PUSH1 0xF8 AND SHR NOT AND DUP2 SSTORE JUMPDEST POP POP POP POP POP PUSH1 0x1 SWAP1 DUP2 SHL ADD SWAP1 SSTORE POP JUMP JUMPDEST DUP1 DUP3 ADD DUP1 DUP3 GT ISZERO PUSH2 0x28E8 JUMPI PUSH2 0x28E8 PUSH2 0x3810 JUMP JUMPDEST PUSH1 0x20 DUP1 DUP3 MSTORE PUSH1 0x12 SWAP1 DUP3 ADD MSTORE PUSH18 0x13515490D210539517D393D517D193D55391 PUSH1 0x72 SHL PUSH1 0x40 DUP3 ADD MSTORE PUSH1 0x60 ADD SWAP1 JUMP JUMPDEST PUSH12 0xFFFFFFFFFFFFFFFFFFFFFFFF NOT DUP7 PUSH1 0x60 SHL AND DUP2 MSTORE DUP4 DUP6 PUSH1 0x14 DUP4 ADD CALLDATACOPY PUSH1 0x14 SWAP4 ADD SWAP3 DUP4 ADD SWAP2 SWAP1 SWAP2 MSTORE PUSH1 0x34 DUP3 ADD MSTORE PUSH1 0x54 ADD SWAP3 SWAP2 POP POP JUMP JUMPDEST PUSH1 0x20 DUP2 MSTORE DUP2 PUSH1 0x20 DUP3 ADD MSTORE DUP2 DUP4 PUSH1 0x40 DUP4 ADD CALLDATACOPY PUSH0 DUP2 DUP4 ADD PUSH1 0x40 SWAP1 DUP2 ADD SWAP2 SWAP1 SWAP2 MSTORE PUSH1 0x1F SWAP1 SWAP3 ADD PUSH1 0x1F NOT AND ADD ADD SWAP2 SWAP1 POP JUMP JUMPDEST DUP3 DUP2 MSTORE PUSH1 0x40 DUP2 ADD PUSH2 0x13D0 PUSH1 0x20 DUP4 ADD DUP5 PUSH2 0x329A JUMP JUMPDEST DUP1 DUP3 MUL DUP2 ISZERO DUP3 DUP3 DIV DUP5 EQ OR PUSH2 0x28E8 JUMPI PUSH2 0x28E8 PUSH2 0x3810 JUMP JUMPDEST PUSH0 DUP3 PUSH2 0x3AC3 JUMPI PUSH4 0x4E487B71 PUSH1 0xE0 SHL PUSH0 MSTORE PUSH1 0x12 PUSH1 0x4 MSTORE PUSH1 0x24 PUSH0 REVERT JUMPDEST POP DIV SWAP1 JUMP JUMPDEST PUSH4 0x4E487B71 PUSH1 0xE0 SHL PUSH0 MSTORE PUSH1 0x31 PUSH1 0x4 MSTORE PUSH1 0x24 PUSH0 REVERT INVALID SWAP12 PUSH24 0x9B17422D0DF92223018B32B4D1FA46E071723D6817E2486D STOP EXTCODESIZE 0xEC 0xC5 PUSH0 STOP ADDMOD 0xD5 0xB9 0xD7 0x25 LOG4 ADD LOG0 0x2A PUSH0 SAR PUSH25 0xD13960DD231B16BB5A7EFE9616F6E4D57936701BA264697066 PUSH20 0x582212201F08C7D6D708B3A8B2D938C81FDEF6BB 0xE4 0x5D PUSH14 0xE53AE55B3C2B58625C4D2A90564 PUSH20 0x6F6C634300081400330000000000000000000000 "},"methodIdentifiers":{"BPS_DENOMINATOR()":"e1a45218","MAX_FEE_BPS()":"d55be8c6","_chargeSubscriptionExternal(bytes32,uint256)":"48b1e0ea","acceptOwnership()":"79ba5097","batchChargeSubscriptions(bytes32[],uint256)":"09cf4190","cancelSubscription(bytes32)":"d21f1ffc","cancelWalletUpdate(bytes32)":"9381bdd6","chargeSubscription(bytes32,uint256)":"996d10d8","confirmWalletUpdate(bytes32)":"1d9dac21","createSubscription(bytes32,address,uint256,uint8,bool)":"f3212445","feeCollector()":"c415b95c","getEffectiveFee(bytes32)":"9b5bf14c","getMerchantDetails(bytes32)":"d91a128d","getMerchantSubscriptions(bytes32)":"2eaad46b","getPaymentDetails(bytes32)":"5fd13996","getSubscriptionDetails(bytes32)":"2c147917","getUserSubscriptions(address)":"2e6ca588","isSubscriptionDue(bytes32)":"2ef4d116","merchantCount()":"89105185","merchantSubscriptionIndex(bytes32,bytes32)":"62d80666","merchantSubscriptions(bytes32,uint256)":"2d34d187","merchants(bytes32)":"20003022","owner()":"8da5cb5b","pauseSubscription(bytes32)":"cd827fb7","pay(bytes32,address,uint256,string,uint256)":"26ed63f3","paymentNonce()":"fbeec81f","payments(bytes32)":"0716326d","pendingOwner()":"e30c3978","pendingWallet(bytes32)":"c725f868","protocolFeeBps()":"35659fb8","registerMerchant(address,string)":"a6c8a384","registerMerchantFor(address,string)":"9c5117f4","resumeSubscription(bytes32)":"246082cd","setFeeCollector(address)":"a42dce80","setMerchantFee(bytes32,uint256)":"6b1f2772","setProtocolFee(uint256)":"787dce3d","setSupportedToken(address,bool)":"e7986466","subscriptions(bytes32)":"94259c6c","supportedTokens(address)":"68c4ac26","transferOwnership(address)":"f2fde38b","updateMerchant(bytes32,address,bool)":"ff0f7b74","updateSubscriptionAmount(bytes32,uint256)":"7e0724fb","userSubscriptionIndex(bytes32,address)":"b49a9a0b","userSubscriptions(address,uint256)":"c95d6edc","walletToMerchant(address)":"d992a701"}}}}}